{
	"data": {
		"bytecode": {
			"linkReferences": {},
			"object": "60126102008181527126b7b134b634b2b91034b73a32b934b2bab960711b6102205260809081526102409182527126b7b134b634b2b91032bc3a32b934b2bab960711b6102605260a091909152600b6102808181526a4163636573736f6972657360a81b6102a05260c05260096102c0818152685665686963756c657360b81b6102e05260e052600a610300818152694d756c74696d6564696160b01b610320526101005261034082815268566574656d656e747360b81b61036052610120526103809283526a4a6575782d766964656f7360a81b6103a0526101409290925260086103c090815267536572766963657360c01b6103e0526101605261040090815268090d2ced05aa8cac6d60bb1b6104205261018052600e6104409081526d22b632b1ba3937b6b2b730b3b2b960911b610460526101a052610480818152692232b1b7b930ba34b7b760b11b6104a0526101c0526105006040526104c08181526924b6b6b7b134b634b2b960b11b6104e0526101e0526200018391600c62000394565b503480156200019157600080fd5b5060405162001a0838038062001a08833981016040819052620001b491620005ac565b6000805b600a548110156200026157600a8181548110620001e557634e487b7160e01b600052603260045260246000fd5b9060005260206000200160405160200162000201919062000710565b60405160208183030381529060405280519060200120846040516020016200022a9190620006f2565b6040516020818303038152906040528051906020012014156200024c57600191505b80620002588162000823565b915050620001b8565b5080620002c25760405162461bcd60e51b815260206004820152602560248201527f4c612063617465676f7269652073656c656374696f6e6e65206e276578697374604482015264652070617360d81b606482015260840160405180910390fd5b8851620002d79060009060208c0190620003f8565b508751620002ed9060019060208b0190620003f8565b508651620003039060029060208a0190620003f8565b50600386905583516200031e906004906020870190620003f8565b50845162000334906005906020880190620003f8565b50600780546001600160a01b0319166001600160a01b038c16179055815162000365906006906020850190620003f8565b50506007805460ff60a01b191690555050600880546001600160a01b0319169055506200086195505050505050565b828054828255906000526020600020908101928215620003e6579160200282015b82811115620003e65782518051620003d5918491602090910190620003f8565b5091602001919060010190620003b5565b50620003f492915062000483565b5090565b8280546200040690620007e6565b90600052602060002090601f0160209004810192826200042a576000855562000475565b82601f106200044557805160ff191683800117855562000475565b8280016001018555821562000475579182015b828111156200047557825182559160200191906001019062000458565b50620003f4929150620004a4565b80821115620003f45760006200049a8282620004bb565b5060010162000483565b5b80821115620003f45760008155600101620004a5565b508054620004c990620007e6565b6000825580601f10620004dd5750620004fd565b601f016020900490600052602060002090810190620004fd9190620004a4565b50565b80516001600160a01b03811681146200051857600080fd5b919050565b600082601f8301126200052e578081fd5b81516001600160401b03808211156200054b576200054b6200084b565b604051601f8301601f19908116603f011681019082821181831017156200057657620005766200084b565b816040528381528660208588010111156200058f578485fd5b620005a2846020830160208901620007b3565b9695505050505050565b60008060008060008060008060006101208a8c031215620005cb578485fd5b620005d68a62000500565b60208b01519099506001600160401b0380821115620005f3578687fd5b620006018d838e016200051d565b995060408c015191508082111562000617578687fd5b620006258d838e016200051d565b985060608c01519150808211156200063b578687fd5b620006498d838e016200051d565b975060808c0151965060a08c015191508082111562000666578586fd5b620006748d838e016200051d565b955060c08c01519150808211156200068a578485fd5b620006988d838e016200051d565b945060e08c0151915080821115620006ae578384fd5b620006bc8d838e016200051d565b93506101008c0151915080821115620006d3578283fd5b50620006e28c828d016200051d565b9150509295985092959850929598565b6000825162000706818460208701620007b3565b9190910192915050565b81546000908190600281046001808316806200072d57607f831692505b60208084108214156200074e57634e487b7160e01b87526022600452602487fd5b8180156200076557600181146200077757620007a5565b60ff19861689528489019650620007a5565b60008a815260209020885b868110156200079d5781548b82015290850190830162000782565b505084890196505b509498975050505050505050565b60005b83811015620007d0578181015183820152602001620007b6565b83811115620007e0576000848401525b50505050565b600281046001821680620007fb57607f821691505b602082108114156200081d57634e487b7160e01b600052602260045260246000fd5b50919050565b60006000198214156200084457634e487b7160e01b81526011600452602481fd5b5060010190565b634e487b7160e01b600052604160045260246000fd5b61119780620008716000396000f3fe608060405234801561001057600080fd5b50600436106100f55760003560e01c8063aa5761ac11610097578063d64c937911610066578063d64c93791461020a578063e959740a14610212578063ea382fa91461021a578063ee0ebe7a1461022f576100f5565b8063aa5761ac146101b4578063c65e9c79146101bc578063c6cdbe5e146101d3578063d4abf017146101e6576100f5565b8063562ea737116100d3578063562ea737146101895780637284e4161461019c578063a2287c86146101a4578063a9f67cbf146101ac576100f5565b806318484d74146100fa578063250eba32146101185780634f8632ba1461015e575b600080fd5b610102610242565b60405161010f9190610fb0565b60405180910390f35b61015c610126366004610c84565b6007805460ff60a01b1916600160a01b179055600880546001600160a01b039092166001600160a01b0319909216919091179055565b005b600754610171906001600160a01b031681565b6040516001600160a01b03909116815260200161010f565b61015c610197366004610d56565b6102d0565b61010261045a565b610102610467565b610102610474565b610102610481565b6101c560035481565b60405190815260200161010f565b6101026101e1366004610e4f565b61048e565b6007546101fa90600160a01b900460ff1681565b604051901515815260200161010f565b6101026104b9565b6101026104c6565b6102226104d3565b60405161010f9190610f62565b600854610171906001600160a01b031681565b6004805461024f906110c7565b80601f016020809104026020016040519081016040528092919081815260200182805461027b906110c7565b80156102c85780601f1061029d576101008083540402835291602001916102c8565b820191906000526020600020905b8154815290600101906020018083116102ab57829003601f168201915b505050505081565b6000805b600a5481101561037357600a81815481106102ff57634e487b7160e01b600052603260045260246000fd5b906000526020600020016040516020016103199190610ec7565b60405160208183030381529060405280519060200120846040516020016103409190610eab565b60405160208183030381529060405280519060200120141561036157600191505b8061036b81611102565b9150506102d4565b50806103d35760405162461bcd60e51b815260206004820152602560248201527f4c612063617465676f7269652073656c656374696f6e6e65206e276578697374604482015264652070617360d81b606482015260840160405180910390fd5b87516103e69060009060208b0190610b72565b5086516103fa9060019060208a0190610b72565b50855161040e906002906020890190610b72565b5060038590558151610427906004906020850190610b72565b50825161043b906009906020860190610b72565b50835161044f906005906020870190610b72565b505050505050505050565b6001805461024f906110c7565b6002805461024f906110c7565b6005805461024f906110c7565b6009805461024f906110c7565b600a818154811061049e57600080fd5b90600052602060002001600091509050805461024f906110c7565b6000805461024f906110c7565b6006805461024f906110c7565b6104db610bf6565b6104e3610bf6565b306001600160a01b031663d64c93796040518163ffffffff1660e01b815260040160006040518083038186803b15801561051c57600080fd5b505afa158015610530573d6000803e3d6000fd5b505050506040513d6000823e601f3d908101601f191682016040526105589190810190610ce3565b815260408051633942720b60e11b815290513091637284e416916004808301926000929190829003018186803b15801561059157600080fd5b505afa1580156105a5573d6000803e3d6000fd5b505050506040513d6000823e601f3d908101601f191682016040526105cd9190810190610ce3565b6020820152604080516351143e4360e11b81529051309163a2287c86916004808301926000929190829003018186803b15801561060957600080fd5b505afa15801561061d573d6000803e3d6000fd5b505050506040513d6000823e601f3d908101601f191682016040526106459190810190610ce3565b81600260200201819052506106c9306001600160a01b031663c65e9c796040518163ffffffff1660e01b815260040160206040518083038186803b15801561068c57600080fd5b505afa1580156106a0573d6000803e3d6000fd5b505050506040513d601f19601f820116820180604052508101906106c49190610e67565b610a2a565b606082015260408051630612135d60e21b8152905130916318484d74916004808301926000929190829003018186803b15801561070557600080fd5b505afa158015610719573d6000803e3d6000fd5b505050506040513d6000823e601f3d908101601f191682016040526107419190810190610ce3565b60808201526040805163a9f67cbf60e01b81529051309163a9f67cbf916004828101926000929190829003018186803b15801561077d57600080fd5b505afa158015610791573d6000803e3d6000fd5b505050506040513d6000823e601f3d908101601f191682016040526107b99190810190610ce3565b60a0820152604080516374acba0560e11b81529051309163e959740a916004808301926000929190829003018186803b1580156107f557600080fd5b505afa158015610809573d6000803e3d6000fd5b505050506040513d6000823e601f3d908101601f191682016040526108319190810190610ce3565b60c08201526040805163d4abf01760e01b81529051309163d4abf017916004808301926020929190829003018186803b15801561086d57600080fd5b505afa158015610881573d6000803e3d6000fd5b505050506040513d601f19601f820116820180604052508101906108a59190610cc3565b156108d05760408051808201909152600581526476656e647560d81b602082015260e08201526108f6565b6040805180820190915260098152687061732076656e647560b81b602082015260e08201525b306001600160a01b031663ee0ebe7a6040518163ffffffff1660e01b815260040160206040518083038186803b15801561092f57600080fd5b505afa158015610943573d6000803e3d6000fd5b505050506040513d601f19601f820116820180604052508101906109679190610ca7565b60405160200161098f919060609190911b6bffffffffffffffffffffffff1916815260140190565b60408051601f198184030181529190528160086020020181905250306001600160a01b031663aa5761ac6040518163ffffffff1660e01b815260040160006040518083038186803b1580156109e357600080fd5b505afa1580156109f7573d6000803e3d6000fd5b505050506040513d6000823e601f3d908101601f19168201604052610a1f9190810190610ce3565b610120820152919050565b606081610a4f57506040805180820190915260018152600360fc1b6020820152610b6d565b8160005b8115610a795780610a6381611102565b9150610a729050600a83611041565b9150610a53565b60008167ffffffffffffffff811115610aa257634e487b7160e01b600052604160045260246000fd5b6040519080825280601f01601f191660200182016040528015610acc576020820181803683370190505b509050815b8515610b6757610ae2600182611080565b90506000610af1600a88611041565b610afc90600a611061565b610b069088611080565b610b1190603061101c565b905060008160f81b905080848481518110610b3c57634e487b7160e01b600052603260045260246000fd5b60200101906001600160f81b031916908160001a905350610b5e600a89611041565b97505050610ad1565b50925050505b919050565b828054610b7e906110c7565b90600052602060002090601f016020900481019282610ba05760008555610be6565b82601f10610bb957805160ff1916838001178555610be6565b82800160010185558215610be6579182015b82811115610be6578251825591602001919060010190610bcb565b50610bf2929150610c1e565b5090565b604051806101600160405280600b905b6060815260200190600190039081610c065790505090565b5b80821115610bf25760008155600101610c1f565b600082601f830112610c43578081fd5b8135610c56610c5182610ff4565b610fc3565b818152846020838601011115610c6a578283fd5b816020850160208301379081016020019190915292915050565b600060208284031215610c95578081fd5b8135610ca081611149565b9392505050565b600060208284031215610cb8578081fd5b8151610ca081611149565b600060208284031215610cd4578081fd5b81518015158114610ca0578182fd5b600060208284031215610cf4578081fd5b815167ffffffffffffffff811115610d0a578182fd5b8201601f81018413610d1a578182fd5b8051610d28610c5182610ff4565b818152856020838501011115610d3c578384fd5b610d4d826020830160208601611097565b95945050505050565b600080600080600080600060e0888a031215610d70578283fd5b873567ffffffffffffffff80821115610d87578485fd5b610d938b838c01610c33565b985060208a0135915080821115610da8578485fd5b610db48b838c01610c33565b975060408a0135915080821115610dc9578485fd5b610dd58b838c01610c33565b965060608a0135955060808a0135915080821115610df1578485fd5b610dfd8b838c01610c33565b945060a08a0135915080821115610e12578384fd5b610e1e8b838c01610c33565b935060c08a0135915080821115610e33578283fd5b50610e408a828b01610c33565b91505092959891949750929550565b600060208284031215610e60578081fd5b5035919050565b600060208284031215610e78578081fd5b5051919050565b60008151808452610e97816020860160208601611097565b601f01601f19169290920160200192915050565b60008251610ebd818460208701611097565b9190910192915050565b8154600090819060028104600180831680610ee357607f831692505b6020808410821415610f0357634e487b7160e01b87526022600452602487fd5b818015610f175760018114610f2857610f54565b60ff19861689528489019650610f54565b60008a815260209020885b86811015610f4c5781548b820152908501908301610f33565b505084890196505b509498975050505050505050565b6020808252600090610180830183820185845b600b811015610fa457601f19878503018352610f92848351610e7f565b93509184019190840190600101610f75565b50919695505050505050565b600060208252610ca06020830184610e7f565b604051601f8201601f1916810167ffffffffffffffff81118282101715610fec57610fec611133565b604052919050565b600067ffffffffffffffff82111561100e5761100e611133565b50601f01601f191660200190565b600060ff821660ff84168060ff038211156110395761103961111d565b019392505050565b60008261105c57634e487b7160e01b81526012600452602481fd5b500490565b600081600019048311821515161561107b5761107b61111d565b500290565b6000828210156110925761109261111d565b500390565b60005b838110156110b257818101518382015260200161109a565b838111156110c1576000848401525b50505050565b6002810460018216806110db57607f821691505b602082108114156110fc57634e487b7160e01b600052602260045260246000fd5b50919050565b60006000198214156111165761111661111d565b5060010190565b634e487b7160e01b600052601160045260246000fd5b634e487b7160e01b600052604160045260246000fd5b6001600160a01b038116811461115e57600080fd5b5056fea264697066735822122025325364114ee8bec1d724b03c1d81df28083806d554668443bf4e0225e9263c64736f6c63430008020033",
			"opcodes": "PUSH1 0x12 PUSH2 0x200 DUP2 DUP2 MSTORE PUSH18 0x26B7B134B634B2B91034B73A32B934B2BAB9 PUSH1 0x71 SHL PUSH2 0x220 MSTORE PUSH1 0x80 SWAP1 DUP2 MSTORE PUSH2 0x240 SWAP2 DUP3 MSTORE PUSH18 0x26B7B134B634B2B91032BC3A32B934B2BAB9 PUSH1 0x71 SHL PUSH2 0x260 MSTORE PUSH1 0xA0 SWAP2 SWAP1 SWAP2 MSTORE PUSH1 0xB PUSH2 0x280 DUP2 DUP2 MSTORE PUSH11 0x4163636573736F69726573 PUSH1 0xA8 SHL PUSH2 0x2A0 MSTORE PUSH1 0xC0 MSTORE PUSH1 0x9 PUSH2 0x2C0 DUP2 DUP2 MSTORE PUSH9 0x5665686963756C6573 PUSH1 0xB8 SHL PUSH2 0x2E0 MSTORE PUSH1 0xE0 MSTORE PUSH1 0xA PUSH2 0x300 DUP2 DUP2 MSTORE PUSH10 0x4D756C74696D65646961 PUSH1 0xB0 SHL PUSH2 0x320 MSTORE PUSH2 0x100 MSTORE PUSH2 0x340 DUP3 DUP2 MSTORE PUSH9 0x566574656D656E7473 PUSH1 0xB8 SHL PUSH2 0x360 MSTORE PUSH2 0x120 MSTORE PUSH2 0x380 SWAP3 DUP4 MSTORE PUSH11 0x4A6575782D766964656F73 PUSH1 0xA8 SHL PUSH2 0x3A0 MSTORE PUSH2 0x140 SWAP3 SWAP1 SWAP3 MSTORE PUSH1 0x8 PUSH2 0x3C0 SWAP1 DUP2 MSTORE PUSH8 0x5365727669636573 PUSH1 0xC0 SHL PUSH2 0x3E0 MSTORE PUSH2 0x160 MSTORE PUSH2 0x400 SWAP1 DUP2 MSTORE PUSH9 0x90D2CED05AA8CAC6D PUSH1 0xBB SHL PUSH2 0x420 MSTORE PUSH2 0x180 MSTORE PUSH1 0xE PUSH2 0x440 SWAP1 DUP2 MSTORE PUSH14 0x22B632B1BA3937B6B2B730B3B2B9 PUSH1 0x91 SHL PUSH2 0x460 MSTORE PUSH2 0x1A0 MSTORE PUSH2 0x480 DUP2 DUP2 MSTORE PUSH10 0x2232B1B7B930BA34B7B7 PUSH1 0xB1 SHL PUSH2 0x4A0 MSTORE PUSH2 0x1C0 MSTORE PUSH2 0x500 PUSH1 0x40 MSTORE PUSH2 0x4C0 DUP2 DUP2 MSTORE PUSH10 0x24B6B6B7B134B634B2B9 PUSH1 0xB1 SHL PUSH2 0x4E0 MSTORE PUSH2 0x1E0 MSTORE PUSH3 0x183 SWAP2 PUSH1 0xC PUSH3 0x394 JUMP JUMPDEST POP CALLVALUE DUP1 ISZERO PUSH3 0x191 JUMPI PUSH1 0x0 DUP1 REVERT JUMPDEST POP PUSH1 0x40 MLOAD PUSH3 0x1A08 CODESIZE SUB DUP1 PUSH3 0x1A08 DUP4 CODECOPY DUP2 ADD PUSH1 0x40 DUP2 SWAP1 MSTORE PUSH3 0x1B4 SWAP2 PUSH3 0x5AC JUMP JUMPDEST PUSH1 0x0 DUP1 JUMPDEST PUSH1 0xA SLOAD DUP2 LT ISZERO PUSH3 0x261 JUMPI PUSH1 0xA DUP2 DUP2 SLOAD DUP2 LT PUSH3 0x1E5 JUMPI PUSH4 0x4E487B71 PUSH1 0xE0 SHL PUSH1 0x0 MSTORE PUSH1 0x32 PUSH1 0x4 MSTORE PUSH1 0x24 PUSH1 0x0 REVERT JUMPDEST SWAP1 PUSH1 0x0 MSTORE PUSH1 0x20 PUSH1 0x0 KECCAK256 ADD PUSH1 0x40 MLOAD PUSH1 0x20 ADD PUSH3 0x201 SWAP2 SWAP1 PUSH3 0x710 JUMP JUMPDEST PUSH1 0x40 MLOAD PUSH1 0x20 DUP2 DUP4 SUB SUB DUP2 MSTORE SWAP1 PUSH1 0x40 MSTORE DUP1 MLOAD SWAP1 PUSH1 0x20 ADD KECCAK256 DUP5 PUSH1 0x40 MLOAD PUSH1 0x20 ADD PUSH3 0x22A SWAP2 SWAP1 PUSH3 0x6F2 JUMP JUMPDEST PUSH1 0x40 MLOAD PUSH1 0x20 DUP2 DUP4 SUB SUB DUP2 MSTORE SWAP1 PUSH1 0x40 MSTORE DUP1 MLOAD SWAP1 PUSH1 0x20 ADD KECCAK256 EQ ISZERO PUSH3 0x24C JUMPI PUSH1 0x1 SWAP2 POP JUMPDEST DUP1 PUSH3 0x258 DUP2 PUSH3 0x823 JUMP JUMPDEST SWAP2 POP POP PUSH3 0x1B8 JUMP JUMPDEST POP DUP1 PUSH3 0x2C2 JUMPI PUSH1 0x40 MLOAD PUSH3 0x461BCD PUSH1 0xE5 SHL DUP2 MSTORE PUSH1 0x20 PUSH1 0x4 DUP3 ADD MSTORE PUSH1 0x25 PUSH1 0x24 DUP3 ADD MSTORE PUSH32 0x4C612063617465676F7269652073656C656374696F6E6E65206E276578697374 PUSH1 0x44 DUP3 ADD MSTORE PUSH5 0x6520706173 PUSH1 0xD8 SHL PUSH1 0x64 DUP3 ADD MSTORE PUSH1 0x84 ADD PUSH1 0x40 MLOAD DUP1 SWAP2 SUB SWAP1 REVERT JUMPDEST DUP9 MLOAD PUSH3 0x2D7 SWAP1 PUSH1 0x0 SWAP1 PUSH1 0x20 DUP13 ADD SWAP1 PUSH3 0x3F8 JUMP JUMPDEST POP DUP8 MLOAD PUSH3 0x2ED SWAP1 PUSH1 0x1 SWAP1 PUSH1 0x20 DUP12 ADD SWAP1 PUSH3 0x3F8 JUMP JUMPDEST POP DUP7 MLOAD PUSH3 0x303 SWAP1 PUSH1 0x2 SWAP1 PUSH1 0x20 DUP11 ADD SWAP1 PUSH3 0x3F8 JUMP JUMPDEST POP PUSH1 0x3 DUP7 SWAP1 SSTORE DUP4 MLOAD PUSH3 0x31E SWAP1 PUSH1 0x4 SWAP1 PUSH1 0x20 DUP8 ADD SWAP1 PUSH3 0x3F8 JUMP JUMPDEST POP DUP5 MLOAD PUSH3 0x334 SWAP1 PUSH1 0x5 SWAP1 PUSH1 0x20 DUP9 ADD SWAP1 PUSH3 0x3F8 JUMP JUMPDEST POP PUSH1 0x7 DUP1 SLOAD PUSH1 0x1 PUSH1 0x1 PUSH1 0xA0 SHL SUB NOT AND PUSH1 0x1 PUSH1 0x1 PUSH1 0xA0 SHL SUB DUP13 AND OR SWAP1 SSTORE DUP2 MLOAD PUSH3 0x365 SWAP1 PUSH1 0x6 SWAP1 PUSH1 0x20 DUP6 ADD SWAP1 PUSH3 0x3F8 JUMP JUMPDEST POP POP PUSH1 0x7 DUP1 SLOAD PUSH1 0xFF PUSH1 0xA0 SHL NOT AND SWAP1 SSTORE POP POP PUSH1 0x8 DUP1 SLOAD PUSH1 0x1 PUSH1 0x1 PUSH1 0xA0 SHL SUB NOT AND SWAP1 SSTORE POP PUSH3 0x861 SWAP6 POP POP POP POP POP POP JUMP JUMPDEST DUP3 DUP1 SLOAD DUP3 DUP3 SSTORE SWAP1 PUSH1 0x0 MSTORE PUSH1 0x20 PUSH1 0x0 KECCAK256 SWAP1 DUP2 ADD SWAP3 DUP3 ISZERO PUSH3 0x3E6 JUMPI SWAP2 PUSH1 0x20 MUL DUP3 ADD JUMPDEST DUP3 DUP2 GT ISZERO PUSH3 0x3E6 JUMPI DUP3 MLOAD DUP1 MLOAD PUSH3 0x3D5 SWAP2 DUP5 SWAP2 PUSH1 0x20 SWAP1 SWAP2 ADD SWAP1 PUSH3 0x3F8 JUMP JUMPDEST POP SWAP2 PUSH1 0x20 ADD SWAP2 SWAP1 PUSH1 0x1 ADD SWAP1 PUSH3 0x3B5 JUMP JUMPDEST POP PUSH3 0x3F4 SWAP3 SWAP2 POP PUSH3 0x483 JUMP JUMPDEST POP SWAP1 JUMP JUMPDEST DUP3 DUP1 SLOAD PUSH3 0x406 SWAP1 PUSH3 0x7E6 JUMP JUMPDEST SWAP1 PUSH1 0x0 MSTORE PUSH1 0x20 PUSH1 0x0 KECCAK256 SWAP1 PUSH1 0x1F ADD PUSH1 0x20 SWAP1 DIV DUP2 ADD SWAP3 DUP3 PUSH3 0x42A JUMPI PUSH1 0x0 DUP6 SSTORE PUSH3 0x475 JUMP JUMPDEST DUP3 PUSH1 0x1F LT PUSH3 0x445 JUMPI DUP1 MLOAD PUSH1 0xFF NOT AND DUP4 DUP1 ADD OR DUP6 SSTORE PUSH3 0x475 JUMP JUMPDEST DUP3 DUP1 ADD PUSH1 0x1 ADD DUP6 SSTORE DUP3 ISZERO PUSH3 0x475 JUMPI SWAP2 DUP3 ADD JUMPDEST DUP3 DUP2 GT ISZERO PUSH3 0x475 JUMPI DUP3 MLOAD DUP3 SSTORE SWAP2 PUSH1 0x20 ADD SWAP2 SWAP1 PUSH1 0x1 ADD SWAP1 PUSH3 0x458 JUMP JUMPDEST POP PUSH3 0x3F4 SWAP3 SWAP2 POP PUSH3 0x4A4 JUMP JUMPDEST DUP1 DUP3 GT ISZERO PUSH3 0x3F4 JUMPI PUSH1 0x0 PUSH3 0x49A DUP3 DUP3 PUSH3 0x4BB JUMP JUMPDEST POP PUSH1 0x1 ADD PUSH3 0x483 JUMP JUMPDEST JUMPDEST DUP1 DUP3 GT ISZERO PUSH3 0x3F4 JUMPI PUSH1 0x0 DUP2 SSTORE PUSH1 0x1 ADD PUSH3 0x4A5 JUMP JUMPDEST POP DUP1 SLOAD PUSH3 0x4C9 SWAP1 PUSH3 0x7E6 JUMP JUMPDEST PUSH1 0x0 DUP3 SSTORE DUP1 PUSH1 0x1F LT PUSH3 0x4DD JUMPI POP PUSH3 0x4FD JUMP JUMPDEST PUSH1 0x1F ADD PUSH1 0x20 SWAP1 DIV SWAP1 PUSH1 0x0 MSTORE PUSH1 0x20 PUSH1 0x0 KECCAK256 SWAP1 DUP2 ADD SWAP1 PUSH3 0x4FD SWAP2 SWAP1 PUSH3 0x4A4 JUMP JUMPDEST POP JUMP JUMPDEST DUP1 MLOAD PUSH1 0x1 PUSH1 0x1 PUSH1 0xA0 SHL SUB DUP2 AND DUP2 EQ PUSH3 0x518 JUMPI PUSH1 0x0 DUP1 REVERT JUMPDEST SWAP2 SWAP1 POP JUMP JUMPDEST PUSH1 0x0 DUP3 PUSH1 0x1F DUP4 ADD SLT PUSH3 0x52E JUMPI DUP1 DUP2 REVERT JUMPDEST DUP2 MLOAD PUSH1 0x1 PUSH1 0x1 PUSH1 0x40 SHL SUB DUP1 DUP3 GT ISZERO PUSH3 0x54B JUMPI PUSH3 0x54B PUSH3 0x84B JUMP JUMPDEST PUSH1 0x40 MLOAD PUSH1 0x1F DUP4 ADD PUSH1 0x1F NOT SWAP1 DUP2 AND PUSH1 0x3F ADD AND DUP2 ADD SWAP1 DUP3 DUP3 GT DUP2 DUP4 LT OR ISZERO PUSH3 0x576 JUMPI PUSH3 0x576 PUSH3 0x84B JUMP JUMPDEST DUP2 PUSH1 0x40 MSTORE DUP4 DUP2 MSTORE DUP7 PUSH1 0x20 DUP6 DUP9 ADD ADD GT ISZERO PUSH3 0x58F JUMPI DUP5 DUP6 REVERT JUMPDEST PUSH3 0x5A2 DUP5 PUSH1 0x20 DUP4 ADD PUSH1 0x20 DUP10 ADD PUSH3 0x7B3 JUMP JUMPDEST SWAP7 SWAP6 POP POP POP POP POP POP JUMP JUMPDEST PUSH1 0x0 DUP1 PUSH1 0x0 DUP1 PUSH1 0x0 DUP1 PUSH1 0x0 DUP1 PUSH1 0x0 PUSH2 0x120 DUP11 DUP13 SUB SLT ISZERO PUSH3 0x5CB JUMPI DUP5 DUP6 REVERT JUMPDEST PUSH3 0x5D6 DUP11 PUSH3 0x500 JUMP JUMPDEST PUSH1 0x20 DUP12 ADD MLOAD SWAP1 SWAP10 POP PUSH1 0x1 PUSH1 0x1 PUSH1 0x40 SHL SUB DUP1 DUP3 GT ISZERO PUSH3 0x5F3 JUMPI DUP7 DUP8 REVERT JUMPDEST PUSH3 0x601 DUP14 DUP4 DUP15 ADD PUSH3 0x51D JUMP JUMPDEST SWAP10 POP PUSH1 0x40 DUP13 ADD MLOAD SWAP2 POP DUP1 DUP3 GT ISZERO PUSH3 0x617 JUMPI DUP7 DUP8 REVERT JUMPDEST PUSH3 0x625 DUP14 DUP4 DUP15 ADD PUSH3 0x51D JUMP JUMPDEST SWAP9 POP PUSH1 0x60 DUP13 ADD MLOAD SWAP2 POP DUP1 DUP3 GT ISZERO PUSH3 0x63B JUMPI DUP7 DUP8 REVERT JUMPDEST PUSH3 0x649 DUP14 DUP4 DUP15 ADD PUSH3 0x51D JUMP JUMPDEST SWAP8 POP PUSH1 0x80 DUP13 ADD MLOAD SWAP7 POP PUSH1 0xA0 DUP13 ADD MLOAD SWAP2 POP DUP1 DUP3 GT ISZERO PUSH3 0x666 JUMPI DUP6 DUP7 REVERT JUMPDEST PUSH3 0x674 DUP14 DUP4 DUP15 ADD PUSH3 0x51D JUMP JUMPDEST SWAP6 POP PUSH1 0xC0 DUP13 ADD MLOAD SWAP2 POP DUP1 DUP3 GT ISZERO PUSH3 0x68A JUMPI DUP5 DUP6 REVERT JUMPDEST PUSH3 0x698 DUP14 DUP4 DUP15 ADD PUSH3 0x51D JUMP JUMPDEST SWAP5 POP PUSH1 0xE0 DUP13 ADD MLOAD SWAP2 POP DUP1 DUP3 GT ISZERO PUSH3 0x6AE JUMPI DUP4 DUP5 REVERT JUMPDEST PUSH3 0x6BC DUP14 DUP4 DUP15 ADD PUSH3 0x51D JUMP JUMPDEST SWAP4 POP PUSH2 0x100 DUP13 ADD MLOAD SWAP2 POP DUP1 DUP3 GT ISZERO PUSH3 0x6D3 JUMPI DUP3 DUP4 REVERT JUMPDEST POP PUSH3 0x6E2 DUP13 DUP3 DUP14 ADD PUSH3 0x51D JUMP JUMPDEST SWAP2 POP POP SWAP3 SWAP6 SWAP9 POP SWAP3 SWAP6 SWAP9 POP SWAP3 SWAP6 SWAP9 JUMP JUMPDEST PUSH1 0x0 DUP3 MLOAD PUSH3 0x706 DUP2 DUP5 PUSH1 0x20 DUP8 ADD PUSH3 0x7B3 JUMP JUMPDEST SWAP2 SWAP1 SWAP2 ADD SWAP3 SWAP2 POP POP JUMP JUMPDEST DUP2 SLOAD PUSH1 0x0 SWAP1 DUP2 SWAP1 PUSH1 0x2 DUP2 DIV PUSH1 0x1 DUP1 DUP4 AND DUP1 PUSH3 0x72D JUMPI PUSH1 0x7F DUP4 AND SWAP3 POP JUMPDEST PUSH1 0x20 DUP1 DUP5 LT DUP3 EQ ISZERO PUSH3 0x74E JUMPI PUSH4 0x4E487B71 PUSH1 0xE0 SHL DUP8 MSTORE PUSH1 0x22 PUSH1 0x4 MSTORE PUSH1 0x24 DUP8 REVERT JUMPDEST DUP2 DUP1 ISZERO PUSH3 0x765 JUMPI PUSH1 0x1 DUP2 EQ PUSH3 0x777 JUMPI PUSH3 0x7A5 JUMP JUMPDEST PUSH1 0xFF NOT DUP7 AND DUP10 MSTORE DUP5 DUP10 ADD SWAP7 POP PUSH3 0x7A5 JUMP JUMPDEST PUSH1 0x0 DUP11 DUP2 MSTORE PUSH1 0x20 SWAP1 KECCAK256 DUP9 JUMPDEST DUP7 DUP2 LT ISZERO PUSH3 0x79D JUMPI DUP2 SLOAD DUP12 DUP3 ADD MSTORE SWAP1 DUP6 ADD SWAP1 DUP4 ADD PUSH3 0x782 JUMP JUMPDEST POP POP DUP5 DUP10 ADD SWAP7 POP JUMPDEST POP SWAP5 SWAP9 SWAP8 POP POP POP POP POP POP POP POP JUMP JUMPDEST PUSH1 0x0 JUMPDEST DUP4 DUP2 LT ISZERO PUSH3 0x7D0 JUMPI DUP2 DUP2 ADD MLOAD DUP4 DUP3 ADD MSTORE PUSH1 0x20 ADD PUSH3 0x7B6 JUMP JUMPDEST DUP4 DUP2 GT ISZERO PUSH3 0x7E0 JUMPI PUSH1 0x0 DUP5 DUP5 ADD MSTORE JUMPDEST POP POP POP POP JUMP JUMPDEST PUSH1 0x2 DUP2 DIV PUSH1 0x1 DUP3 AND DUP1 PUSH3 0x7FB JUMPI PUSH1 0x7F DUP3 AND SWAP2 POP JUMPDEST PUSH1 0x20 DUP3 LT DUP2 EQ ISZERO PUSH3 0x81D JUMPI PUSH4 0x4E487B71 PUSH1 0xE0 SHL PUSH1 0x0 MSTORE PUSH1 0x22 PUSH1 0x4 MSTORE PUSH1 0x24 PUSH1 0x0 REVERT JUMPDEST POP SWAP2 SWAP1 POP JUMP JUMPDEST PUSH1 0x0 PUSH1 0x0 NOT DUP3 EQ ISZERO PUSH3 0x844 JUMPI PUSH4 0x4E487B71 PUSH1 0xE0 SHL DUP2 MSTORE PUSH1 0x11 PUSH1 0x4 MSTORE PUSH1 0x24 DUP2 REVERT JUMPDEST POP PUSH1 0x1 ADD SWAP1 JUMP JUMPDEST PUSH4 0x4E487B71 PUSH1 0xE0 SHL PUSH1 0x0 MSTORE PUSH1 0x41 PUSH1 0x4 MSTORE PUSH1 0x24 PUSH1 0x0 REVERT JUMPDEST PUSH2 0x1197 DUP1 PUSH3 0x871 PUSH1 0x0 CODECOPY PUSH1 0x0 RETURN INVALID PUSH1 0x80 PUSH1 0x40 MSTORE CALLVALUE DUP1 ISZERO PUSH2 0x10 JUMPI PUSH1 0x0 DUP1 REVERT JUMPDEST POP PUSH1 0x4 CALLDATASIZE LT PUSH2 0xF5 JUMPI PUSH1 0x0 CALLDATALOAD PUSH1 0xE0 SHR DUP1 PUSH4 0xAA5761AC GT PUSH2 0x97 JUMPI DUP1 PUSH4 0xD64C9379 GT PUSH2 0x66 JUMPI DUP1 PUSH4 0xD64C9379 EQ PUSH2 0x20A JUMPI DUP1 PUSH4 0xE959740A EQ PUSH2 0x212 JUMPI DUP1 PUSH4 0xEA382FA9 EQ PUSH2 0x21A JUMPI DUP1 PUSH4 0xEE0EBE7A EQ PUSH2 0x22F JUMPI PUSH2 0xF5 JUMP JUMPDEST DUP1 PUSH4 0xAA5761AC EQ PUSH2 0x1B4 JUMPI DUP1 PUSH4 0xC65E9C79 EQ PUSH2 0x1BC JUMPI DUP1 PUSH4 0xC6CDBE5E EQ PUSH2 0x1D3 JUMPI DUP1 PUSH4 0xD4ABF017 EQ PUSH2 0x1E6 JUMPI PUSH2 0xF5 JUMP JUMPDEST DUP1 PUSH4 0x562EA737 GT PUSH2 0xD3 JUMPI DUP1 PUSH4 0x562EA737 EQ PUSH2 0x189 JUMPI DUP1 PUSH4 0x7284E416 EQ PUSH2 0x19C JUMPI DUP1 PUSH4 0xA2287C86 EQ PUSH2 0x1A4 JUMPI DUP1 PUSH4 0xA9F67CBF EQ PUSH2 0x1AC JUMPI PUSH2 0xF5 JUMP JUMPDEST DUP1 PUSH4 0x18484D74 EQ PUSH2 0xFA JUMPI DUP1 PUSH4 0x250EBA32 EQ PUSH2 0x118 JUMPI DUP1 PUSH4 0x4F8632BA EQ PUSH2 0x15E JUMPI JUMPDEST PUSH1 0x0 DUP1 REVERT JUMPDEST PUSH2 0x102 PUSH2 0x242 JUMP JUMPDEST PUSH1 0x40 MLOAD PUSH2 0x10F SWAP2 SWAP1 PUSH2 0xFB0 JUMP JUMPDEST PUSH1 0x40 MLOAD DUP1 SWAP2 SUB SWAP1 RETURN JUMPDEST PUSH2 0x15C PUSH2 0x126 CALLDATASIZE PUSH1 0x4 PUSH2 0xC84 JUMP JUMPDEST PUSH1 0x7 DUP1 SLOAD PUSH1 0xFF PUSH1 0xA0 SHL NOT AND PUSH1 0x1 PUSH1 0xA0 SHL OR SWAP1 SSTORE PUSH1 0x8 DUP1 SLOAD PUSH1 0x1 PUSH1 0x1 PUSH1 0xA0 SHL SUB SWAP1 SWAP3 AND PUSH1 0x1 PUSH1 0x1 PUSH1 0xA0 SHL SUB NOT SWAP1 SWAP3 AND SWAP2 SWAP1 SWAP2 OR SWAP1 SSTORE JUMP JUMPDEST STOP JUMPDEST PUSH1 0x7 SLOAD PUSH2 0x171 SWAP1 PUSH1 0x1 PUSH1 0x1 PUSH1 0xA0 SHL SUB AND DUP2 JUMP JUMPDEST PUSH1 0x40 MLOAD PUSH1 0x1 PUSH1 0x1 PUSH1 0xA0 SHL SUB SWAP1 SWAP2 AND DUP2 MSTORE PUSH1 0x20 ADD PUSH2 0x10F JUMP JUMPDEST PUSH2 0x15C PUSH2 0x197 CALLDATASIZE PUSH1 0x4 PUSH2 0xD56 JUMP JUMPDEST PUSH2 0x2D0 JUMP JUMPDEST PUSH2 0x102 PUSH2 0x45A JUMP JUMPDEST PUSH2 0x102 PUSH2 0x467 JUMP JUMPDEST PUSH2 0x102 PUSH2 0x474 JUMP JUMPDEST PUSH2 0x102 PUSH2 0x481 JUMP JUMPDEST PUSH2 0x1C5 PUSH1 0x3 SLOAD DUP2 JUMP JUMPDEST PUSH1 0x40 MLOAD SWAP1 DUP2 MSTORE PUSH1 0x20 ADD PUSH2 0x10F JUMP JUMPDEST PUSH2 0x102 PUSH2 0x1E1 CALLDATASIZE PUSH1 0x4 PUSH2 0xE4F JUMP JUMPDEST PUSH2 0x48E JUMP JUMPDEST PUSH1 0x7 SLOAD PUSH2 0x1FA SWAP1 PUSH1 0x1 PUSH1 0xA0 SHL SWAP1 DIV PUSH1 0xFF AND DUP2 JUMP JUMPDEST PUSH1 0x40 MLOAD SWAP1 ISZERO ISZERO DUP2 MSTORE PUSH1 0x20 ADD PUSH2 0x10F JUMP JUMPDEST PUSH2 0x102 PUSH2 0x4B9 JUMP JUMPDEST PUSH2 0x102 PUSH2 0x4C6 JUMP JUMPDEST PUSH2 0x222 PUSH2 0x4D3 JUMP JUMPDEST PUSH1 0x40 MLOAD PUSH2 0x10F SWAP2 SWAP1 PUSH2 0xF62 JUMP JUMPDEST PUSH1 0x8 SLOAD PUSH2 0x171 SWAP1 PUSH1 0x1 PUSH1 0x1 PUSH1 0xA0 SHL SUB AND DUP2 JUMP JUMPDEST PUSH1 0x4 DUP1 SLOAD PUSH2 0x24F SWAP1 PUSH2 0x10C7 JUMP JUMPDEST DUP1 PUSH1 0x1F ADD PUSH1 0x20 DUP1 SWAP2 DIV MUL PUSH1 0x20 ADD PUSH1 0x40 MLOAD SWAP1 DUP2 ADD PUSH1 0x40 MSTORE DUP1 SWAP3 SWAP2 SWAP1 DUP2 DUP2 MSTORE PUSH1 0x20 ADD DUP3 DUP1 SLOAD PUSH2 0x27B SWAP1 PUSH2 0x10C7 JUMP JUMPDEST DUP1 ISZERO PUSH2 0x2C8 JUMPI DUP1 PUSH1 0x1F LT PUSH2 0x29D JUMPI PUSH2 0x100 DUP1 DUP4 SLOAD DIV MUL DUP4 MSTORE SWAP2 PUSH1 0x20 ADD SWAP2 PUSH2 0x2C8 JUMP JUMPDEST DUP3 ADD SWAP2 SWAP1 PUSH1 0x0 MSTORE PUSH1 0x20 PUSH1 0x0 KECCAK256 SWAP1 JUMPDEST DUP2 SLOAD DUP2 MSTORE SWAP1 PUSH1 0x1 ADD SWAP1 PUSH1 0x20 ADD DUP1 DUP4 GT PUSH2 0x2AB JUMPI DUP3 SWAP1 SUB PUSH1 0x1F AND DUP3 ADD SWAP2 JUMPDEST POP POP POP POP POP DUP2 JUMP JUMPDEST PUSH1 0x0 DUP1 JUMPDEST PUSH1 0xA SLOAD DUP2 LT ISZERO PUSH2 0x373 JUMPI PUSH1 0xA DUP2 DUP2 SLOAD DUP2 LT PUSH2 0x2FF JUMPI PUSH4 0x4E487B71 PUSH1 0xE0 SHL PUSH1 0x0 MSTORE PUSH1 0x32 PUSH1 0x4 MSTORE PUSH1 0x24 PUSH1 0x0 REVERT JUMPDEST SWAP1 PUSH1 0x0 MSTORE PUSH1 0x20 PUSH1 0x0 KECCAK256 ADD PUSH1 0x40 MLOAD PUSH1 0x20 ADD PUSH2 0x319 SWAP2 SWAP1 PUSH2 0xEC7 JUMP JUMPDEST PUSH1 0x40 MLOAD PUSH1 0x20 DUP2 DUP4 SUB SUB DUP2 MSTORE SWAP1 PUSH1 0x40 MSTORE DUP1 MLOAD SWAP1 PUSH1 0x20 ADD KECCAK256 DUP5 PUSH1 0x40 MLOAD PUSH1 0x20 ADD PUSH2 0x340 SWAP2 SWAP1 PUSH2 0xEAB JUMP JUMPDEST PUSH1 0x40 MLOAD PUSH1 0x20 DUP2 DUP4 SUB SUB DUP2 MSTORE SWAP1 PUSH1 0x40 MSTORE DUP1 MLOAD SWAP1 PUSH1 0x20 ADD KECCAK256 EQ ISZERO PUSH2 0x361 JUMPI PUSH1 0x1 SWAP2 POP JUMPDEST DUP1 PUSH2 0x36B DUP2 PUSH2 0x1102 JUMP JUMPDEST SWAP2 POP POP PUSH2 0x2D4 JUMP JUMPDEST POP DUP1 PUSH2 0x3D3 JUMPI PUSH1 0x40 MLOAD PUSH3 0x461BCD PUSH1 0xE5 SHL DUP2 MSTORE PUSH1 0x20 PUSH1 0x4 DUP3 ADD MSTORE PUSH1 0x25 PUSH1 0x24 DUP3 ADD MSTORE PUSH32 0x4C612063617465676F7269652073656C656374696F6E6E65206E276578697374 PUSH1 0x44 DUP3 ADD MSTORE PUSH5 0x6520706173 PUSH1 0xD8 SHL PUSH1 0x64 DUP3 ADD MSTORE PUSH1 0x84 ADD PUSH1 0x40 MLOAD DUP1 SWAP2 SUB SWAP1 REVERT JUMPDEST DUP8 MLOAD PUSH2 0x3E6 SWAP1 PUSH1 0x0 SWAP1 PUSH1 0x20 DUP12 ADD SWAP1 PUSH2 0xB72 JUMP JUMPDEST POP DUP7 MLOAD PUSH2 0x3FA SWAP1 PUSH1 0x1 SWAP1 PUSH1 0x20 DUP11 ADD SWAP1 PUSH2 0xB72 JUMP JUMPDEST POP DUP6 MLOAD PUSH2 0x40E SWAP1 PUSH1 0x2 SWAP1 PUSH1 0x20 DUP10 ADD SWAP1 PUSH2 0xB72 JUMP JUMPDEST POP PUSH1 0x3 DUP6 SWAP1 SSTORE DUP2 MLOAD PUSH2 0x427 SWAP1 PUSH1 0x4 SWAP1 PUSH1 0x20 DUP6 ADD SWAP1 PUSH2 0xB72 JUMP JUMPDEST POP DUP3 MLOAD PUSH2 0x43B SWAP1 PUSH1 0x9 SWAP1 PUSH1 0x20 DUP7 ADD SWAP1 PUSH2 0xB72 JUMP JUMPDEST POP DUP4 MLOAD PUSH2 0x44F SWAP1 PUSH1 0x5 SWAP1 PUSH1 0x20 DUP8 ADD SWAP1 PUSH2 0xB72 JUMP JUMPDEST POP POP POP POP POP POP POP POP POP JUMP JUMPDEST PUSH1 0x1 DUP1 SLOAD PUSH2 0x24F SWAP1 PUSH2 0x10C7 JUMP JUMPDEST PUSH1 0x2 DUP1 SLOAD PUSH2 0x24F SWAP1 PUSH2 0x10C7 JUMP JUMPDEST PUSH1 0x5 DUP1 SLOAD PUSH2 0x24F SWAP1 PUSH2 0x10C7 JUMP JUMPDEST PUSH1 0x9 DUP1 SLOAD PUSH2 0x24F SWAP1 PUSH2 0x10C7 JUMP JUMPDEST PUSH1 0xA DUP2 DUP2 SLOAD DUP2 LT PUSH2 0x49E JUMPI PUSH1 0x0 DUP1 REVERT JUMPDEST SWAP1 PUSH1 0x0 MSTORE PUSH1 0x20 PUSH1 0x0 KECCAK256 ADD PUSH1 0x0 SWAP2 POP SWAP1 POP DUP1 SLOAD PUSH2 0x24F SWAP1 PUSH2 0x10C7 JUMP JUMPDEST PUSH1 0x0 DUP1 SLOAD PUSH2 0x24F SWAP1 PUSH2 0x10C7 JUMP JUMPDEST PUSH1 0x6 DUP1 SLOAD PUSH2 0x24F SWAP1 PUSH2 0x10C7 JUMP JUMPDEST PUSH2 0x4DB PUSH2 0xBF6 JUMP JUMPDEST PUSH2 0x4E3 PUSH2 0xBF6 JUMP JUMPDEST ADDRESS PUSH1 0x1 PUSH1 0x1 PUSH1 0xA0 SHL SUB AND PUSH4 0xD64C9379 PUSH1 0x40 MLOAD DUP2 PUSH4 0xFFFFFFFF AND PUSH1 0xE0 SHL DUP2 MSTORE PUSH1 0x4 ADD PUSH1 0x0 PUSH1 0x40 MLOAD DUP1 DUP4 SUB DUP2 DUP7 DUP1 EXTCODESIZE ISZERO DUP1 ISZERO PUSH2 0x51C JUMPI PUSH1 0x0 DUP1 REVERT JUMPDEST POP GAS STATICCALL ISZERO DUP1 ISZERO PUSH2 0x530 JUMPI RETURNDATASIZE PUSH1 0x0 DUP1 RETURNDATACOPY RETURNDATASIZE PUSH1 0x0 REVERT JUMPDEST POP POP POP POP PUSH1 0x40 MLOAD RETURNDATASIZE PUSH1 0x0 DUP3 RETURNDATACOPY PUSH1 0x1F RETURNDATASIZE SWAP1 DUP2 ADD PUSH1 0x1F NOT AND DUP3 ADD PUSH1 0x40 MSTORE PUSH2 0x558 SWAP2 SWAP1 DUP2 ADD SWAP1 PUSH2 0xCE3 JUMP JUMPDEST DUP2 MSTORE PUSH1 0x40 DUP1 MLOAD PUSH4 0x3942720B PUSH1 0xE1 SHL DUP2 MSTORE SWAP1 MLOAD ADDRESS SWAP2 PUSH4 0x7284E416 SWAP2 PUSH1 0x4 DUP1 DUP4 ADD SWAP3 PUSH1 0x0 SWAP3 SWAP2 SWAP1 DUP3 SWAP1 SUB ADD DUP2 DUP7 DUP1 EXTCODESIZE ISZERO DUP1 ISZERO PUSH2 0x591 JUMPI PUSH1 0x0 DUP1 REVERT JUMPDEST POP GAS STATICCALL ISZERO DUP1 ISZERO PUSH2 0x5A5 JUMPI RETURNDATASIZE PUSH1 0x0 DUP1 RETURNDATACOPY RETURNDATASIZE PUSH1 0x0 REVERT JUMPDEST POP POP POP POP PUSH1 0x40 MLOAD RETURNDATASIZE PUSH1 0x0 DUP3 RETURNDATACOPY PUSH1 0x1F RETURNDATASIZE SWAP1 DUP2 ADD PUSH1 0x1F NOT AND DUP3 ADD PUSH1 0x40 MSTORE PUSH2 0x5CD SWAP2 SWAP1 DUP2 ADD SWAP1 PUSH2 0xCE3 JUMP JUMPDEST PUSH1 0x20 DUP3 ADD MSTORE PUSH1 0x40 DUP1 MLOAD PUSH4 0x51143E43 PUSH1 0xE1 SHL DUP2 MSTORE SWAP1 MLOAD ADDRESS SWAP2 PUSH4 0xA2287C86 SWAP2 PUSH1 0x4 DUP1 DUP4 ADD SWAP3 PUSH1 0x0 SWAP3 SWAP2 SWAP1 DUP3 SWAP1 SUB ADD DUP2 DUP7 DUP1 EXTCODESIZE ISZERO DUP1 ISZERO PUSH2 0x609 JUMPI PUSH1 0x0 DUP1 REVERT JUMPDEST POP GAS STATICCALL ISZERO DUP1 ISZERO PUSH2 0x61D JUMPI RETURNDATASIZE PUSH1 0x0 DUP1 RETURNDATACOPY RETURNDATASIZE PUSH1 0x0 REVERT JUMPDEST POP POP POP POP PUSH1 0x40 MLOAD RETURNDATASIZE PUSH1 0x0 DUP3 RETURNDATACOPY PUSH1 0x1F RETURNDATASIZE SWAP1 DUP2 ADD PUSH1 0x1F NOT AND DUP3 ADD PUSH1 0x40 MSTORE PUSH2 0x645 SWAP2 SWAP1 DUP2 ADD SWAP1 PUSH2 0xCE3 JUMP JUMPDEST DUP2 PUSH1 0x2 PUSH1 0x20 MUL ADD DUP2 SWAP1 MSTORE POP PUSH2 0x6C9 ADDRESS PUSH1 0x1 PUSH1 0x1 PUSH1 0xA0 SHL SUB AND PUSH4 0xC65E9C79 PUSH1 0x40 MLOAD DUP2 PUSH4 0xFFFFFFFF AND PUSH1 0xE0 SHL DUP2 MSTORE PUSH1 0x4 ADD PUSH1 0x20 PUSH1 0x40 MLOAD DUP1 DUP4 SUB DUP2 DUP7 DUP1 EXTCODESIZE ISZERO DUP1 ISZERO PUSH2 0x68C JUMPI PUSH1 0x0 DUP1 REVERT JUMPDEST POP GAS STATICCALL ISZERO DUP1 ISZERO PUSH2 0x6A0 JUMPI RETURNDATASIZE PUSH1 0x0 DUP1 RETURNDATACOPY RETURNDATASIZE PUSH1 0x0 REVERT JUMPDEST POP POP POP POP PUSH1 0x40 MLOAD RETURNDATASIZE PUSH1 0x1F NOT PUSH1 0x1F DUP3 ADD AND DUP3 ADD DUP1 PUSH1 0x40 MSTORE POP DUP2 ADD SWAP1 PUSH2 0x6C4 SWAP2 SWAP1 PUSH2 0xE67 JUMP JUMPDEST PUSH2 0xA2A JUMP JUMPDEST PUSH1 0x60 DUP3 ADD MSTORE PUSH1 0x40 DUP1 MLOAD PUSH4 0x612135D PUSH1 0xE2 SHL DUP2 MSTORE SWAP1 MLOAD ADDRESS SWAP2 PUSH4 0x18484D74 SWAP2 PUSH1 0x4 DUP1 DUP4 ADD SWAP3 PUSH1 0x0 SWAP3 SWAP2 SWAP1 DUP3 SWAP1 SUB ADD DUP2 DUP7 DUP1 EXTCODESIZE ISZERO DUP1 ISZERO PUSH2 0x705 JUMPI PUSH1 0x0 DUP1 REVERT JUMPDEST POP GAS STATICCALL ISZERO DUP1 ISZERO PUSH2 0x719 JUMPI RETURNDATASIZE PUSH1 0x0 DUP1 RETURNDATACOPY RETURNDATASIZE PUSH1 0x0 REVERT JUMPDEST POP POP POP POP PUSH1 0x40 MLOAD RETURNDATASIZE PUSH1 0x0 DUP3 RETURNDATACOPY PUSH1 0x1F RETURNDATASIZE SWAP1 DUP2 ADD PUSH1 0x1F NOT AND DUP3 ADD PUSH1 0x40 MSTORE PUSH2 0x741 SWAP2 SWAP1 DUP2 ADD SWAP1 PUSH2 0xCE3 JUMP JUMPDEST PUSH1 0x80 DUP3 ADD MSTORE PUSH1 0x40 DUP1 MLOAD PUSH4 0xA9F67CBF PUSH1 0xE0 SHL DUP2 MSTORE SWAP1 MLOAD ADDRESS SWAP2 PUSH4 0xA9F67CBF SWAP2 PUSH1 0x4 DUP3 DUP2 ADD SWAP3 PUSH1 0x0 SWAP3 SWAP2 SWAP1 DUP3 SWAP1 SUB ADD DUP2 DUP7 DUP1 EXTCODESIZE ISZERO DUP1 ISZERO PUSH2 0x77D JUMPI PUSH1 0x0 DUP1 REVERT JUMPDEST POP GAS STATICCALL ISZERO DUP1 ISZERO PUSH2 0x791 JUMPI RETURNDATASIZE PUSH1 0x0 DUP1 RETURNDATACOPY RETURNDATASIZE PUSH1 0x0 REVERT JUMPDEST POP POP POP POP PUSH1 0x40 MLOAD RETURNDATASIZE PUSH1 0x0 DUP3 RETURNDATACOPY PUSH1 0x1F RETURNDATASIZE SWAP1 DUP2 ADD PUSH1 0x1F NOT AND DUP3 ADD PUSH1 0x40 MSTORE PUSH2 0x7B9 SWAP2 SWAP1 DUP2 ADD SWAP1 PUSH2 0xCE3 JUMP JUMPDEST PUSH1 0xA0 DUP3 ADD MSTORE PUSH1 0x40 DUP1 MLOAD PUSH4 0x74ACBA05 PUSH1 0xE1 SHL DUP2 MSTORE SWAP1 MLOAD ADDRESS SWAP2 PUSH4 0xE959740A SWAP2 PUSH1 0x4 DUP1 DUP4 ADD SWAP3 PUSH1 0x0 SWAP3 SWAP2 SWAP1 DUP3 SWAP1 SUB ADD DUP2 DUP7 DUP1 EXTCODESIZE ISZERO DUP1 ISZERO PUSH2 0x7F5 JUMPI PUSH1 0x0 DUP1 REVERT JUMPDEST POP GAS STATICCALL ISZERO DUP1 ISZERO PUSH2 0x809 JUMPI RETURNDATASIZE PUSH1 0x0 DUP1 RETURNDATACOPY RETURNDATASIZE PUSH1 0x0 REVERT JUMPDEST POP POP POP POP PUSH1 0x40 MLOAD RETURNDATASIZE PUSH1 0x0 DUP3 RETURNDATACOPY PUSH1 0x1F RETURNDATASIZE SWAP1 DUP2 ADD PUSH1 0x1F NOT AND DUP3 ADD PUSH1 0x40 MSTORE PUSH2 0x831 SWAP2 SWAP1 DUP2 ADD SWAP1 PUSH2 0xCE3 JUMP JUMPDEST PUSH1 0xC0 DUP3 ADD MSTORE PUSH1 0x40 DUP1 MLOAD PUSH4 0xD4ABF017 PUSH1 0xE0 SHL DUP2 MSTORE SWAP1 MLOAD ADDRESS SWAP2 PUSH4 0xD4ABF017 SWAP2 PUSH1 0x4 DUP1 DUP4 ADD SWAP3 PUSH1 0x20 SWAP3 SWAP2 SWAP1 DUP3 SWAP1 SUB ADD DUP2 DUP7 DUP1 EXTCODESIZE ISZERO DUP1 ISZERO PUSH2 0x86D JUMPI PUSH1 0x0 DUP1 REVERT JUMPDEST POP GAS STATICCALL ISZERO DUP1 ISZERO PUSH2 0x881 JUMPI RETURNDATASIZE PUSH1 0x0 DUP1 RETURNDATACOPY RETURNDATASIZE PUSH1 0x0 REVERT JUMPDEST POP POP POP POP PUSH1 0x40 MLOAD RETURNDATASIZE PUSH1 0x1F NOT PUSH1 0x1F DUP3 ADD AND DUP3 ADD DUP1 PUSH1 0x40 MSTORE POP DUP2 ADD SWAP1 PUSH2 0x8A5 SWAP2 SWAP1 PUSH2 0xCC3 JUMP JUMPDEST ISZERO PUSH2 0x8D0 JUMPI PUSH1 0x40 DUP1 MLOAD DUP1 DUP3 ADD SWAP1 SWAP2 MSTORE PUSH1 0x5 DUP2 MSTORE PUSH5 0x76656E6475 PUSH1 0xD8 SHL PUSH1 0x20 DUP3 ADD MSTORE PUSH1 0xE0 DUP3 ADD MSTORE PUSH2 0x8F6 JUMP JUMPDEST PUSH1 0x40 DUP1 MLOAD DUP1 DUP3 ADD SWAP1 SWAP2 MSTORE PUSH1 0x9 DUP2 MSTORE PUSH9 0x7061732076656E6475 PUSH1 0xB8 SHL PUSH1 0x20 DUP3 ADD MSTORE PUSH1 0xE0 DUP3 ADD MSTORE JUMPDEST ADDRESS PUSH1 0x1 PUSH1 0x1 PUSH1 0xA0 SHL SUB AND PUSH4 0xEE0EBE7A PUSH1 0x40 MLOAD DUP2 PUSH4 0xFFFFFFFF AND PUSH1 0xE0 SHL DUP2 MSTORE PUSH1 0x4 ADD PUSH1 0x20 PUSH1 0x40 MLOAD DUP1 DUP4 SUB DUP2 DUP7 DUP1 EXTCODESIZE ISZERO DUP1 ISZERO PUSH2 0x92F JUMPI PUSH1 0x0 DUP1 REVERT JUMPDEST POP GAS STATICCALL ISZERO DUP1 ISZERO PUSH2 0x943 JUMPI RETURNDATASIZE PUSH1 0x0 DUP1 RETURNDATACOPY RETURNDATASIZE PUSH1 0x0 REVERT JUMPDEST POP POP POP POP PUSH1 0x40 MLOAD RETURNDATASIZE PUSH1 0x1F NOT PUSH1 0x1F DUP3 ADD AND DUP3 ADD DUP1 PUSH1 0x40 MSTORE POP DUP2 ADD SWAP1 PUSH2 0x967 SWAP2 SWAP1 PUSH2 0xCA7 JUMP JUMPDEST PUSH1 0x40 MLOAD PUSH1 0x20 ADD PUSH2 0x98F SWAP2 SWAP1 PUSH1 0x60 SWAP2 SWAP1 SWAP2 SHL PUSH12 0xFFFFFFFFFFFFFFFFFFFFFFFF NOT AND DUP2 MSTORE PUSH1 0x14 ADD SWAP1 JUMP JUMPDEST PUSH1 0x40 DUP1 MLOAD PUSH1 0x1F NOT DUP2 DUP5 SUB ADD DUP2 MSTORE SWAP2 SWAP1 MSTORE DUP2 PUSH1 0x8 PUSH1 0x20 MUL ADD DUP2 SWAP1 MSTORE POP ADDRESS PUSH1 0x1 PUSH1 0x1 PUSH1 0xA0 SHL SUB AND PUSH4 0xAA5761AC PUSH1 0x40 MLOAD DUP2 PUSH4 0xFFFFFFFF AND PUSH1 0xE0 SHL DUP2 MSTORE PUSH1 0x4 ADD PUSH1 0x0 PUSH1 0x40 MLOAD DUP1 DUP4 SUB DUP2 DUP7 DUP1 EXTCODESIZE ISZERO DUP1 ISZERO PUSH2 0x9E3 JUMPI PUSH1 0x0 DUP1 REVERT JUMPDEST POP GAS STATICCALL ISZERO DUP1 ISZERO PUSH2 0x9F7 JUMPI RETURNDATASIZE PUSH1 0x0 DUP1 RETURNDATACOPY RETURNDATASIZE PUSH1 0x0 REVERT JUMPDEST POP POP POP POP PUSH1 0x40 MLOAD RETURNDATASIZE PUSH1 0x0 DUP3 RETURNDATACOPY PUSH1 0x1F RETURNDATASIZE SWAP1 DUP2 ADD PUSH1 0x1F NOT AND DUP3 ADD PUSH1 0x40 MSTORE PUSH2 0xA1F SWAP2 SWAP1 DUP2 ADD SWAP1 PUSH2 0xCE3 JUMP JUMPDEST PUSH2 0x120 DUP3 ADD MSTORE SWAP2 SWAP1 POP JUMP JUMPDEST PUSH1 0x60 DUP2 PUSH2 0xA4F JUMPI POP PUSH1 0x40 DUP1 MLOAD DUP1 DUP3 ADD SWAP1 SWAP2 MSTORE PUSH1 0x1 DUP2 MSTORE PUSH1 0x3 PUSH1 0xFC SHL PUSH1 0x20 DUP3 ADD MSTORE PUSH2 0xB6D JUMP JUMPDEST DUP2 PUSH1 0x0 JUMPDEST DUP2 ISZERO PUSH2 0xA79 JUMPI DUP1 PUSH2 0xA63 DUP2 PUSH2 0x1102 JUMP JUMPDEST SWAP2 POP PUSH2 0xA72 SWAP1 POP PUSH1 0xA DUP4 PUSH2 0x1041 JUMP JUMPDEST SWAP2 POP PUSH2 0xA53 JUMP JUMPDEST PUSH1 0x0 DUP2 PUSH8 0xFFFFFFFFFFFFFFFF DUP2 GT ISZERO PUSH2 0xAA2 JUMPI PUSH4 0x4E487B71 PUSH1 0xE0 SHL PUSH1 0x0 MSTORE PUSH1 0x41 PUSH1 0x4 MSTORE PUSH1 0x24 PUSH1 0x0 REVERT JUMPDEST PUSH1 0x40 MLOAD SWAP1 DUP1 DUP3 MSTORE DUP1 PUSH1 0x1F ADD PUSH1 0x1F NOT AND PUSH1 0x20 ADD DUP3 ADD PUSH1 0x40 MSTORE DUP1 ISZERO PUSH2 0xACC JUMPI PUSH1 0x20 DUP3 ADD DUP2 DUP1 CALLDATASIZE DUP4 CALLDATACOPY ADD SWAP1 POP JUMPDEST POP SWAP1 POP DUP2 JUMPDEST DUP6 ISZERO PUSH2 0xB67 JUMPI PUSH2 0xAE2 PUSH1 0x1 DUP3 PUSH2 0x1080 JUMP JUMPDEST SWAP1 POP PUSH1 0x0 PUSH2 0xAF1 PUSH1 0xA DUP9 PUSH2 0x1041 JUMP JUMPDEST PUSH2 0xAFC SWAP1 PUSH1 0xA PUSH2 0x1061 JUMP JUMPDEST PUSH2 0xB06 SWAP1 DUP9 PUSH2 0x1080 JUMP JUMPDEST PUSH2 0xB11 SWAP1 PUSH1 0x30 PUSH2 0x101C JUMP JUMPDEST SWAP1 POP PUSH1 0x0 DUP2 PUSH1 0xF8 SHL SWAP1 POP DUP1 DUP5 DUP5 DUP2 MLOAD DUP2 LT PUSH2 0xB3C JUMPI PUSH4 0x4E487B71 PUSH1 0xE0 SHL PUSH1 0x0 MSTORE PUSH1 0x32 PUSH1 0x4 MSTORE PUSH1 0x24 PUSH1 0x0 REVERT JUMPDEST PUSH1 0x20 ADD ADD SWAP1 PUSH1 0x1 PUSH1 0x1 PUSH1 0xF8 SHL SUB NOT AND SWAP1 DUP2 PUSH1 0x0 BYTE SWAP1 MSTORE8 POP PUSH2 0xB5E PUSH1 0xA DUP10 PUSH2 0x1041 JUMP JUMPDEST SWAP8 POP POP POP PUSH2 0xAD1 JUMP JUMPDEST POP SWAP3 POP POP POP JUMPDEST SWAP2 SWAP1 POP JUMP JUMPDEST DUP3 DUP1 SLOAD PUSH2 0xB7E SWAP1 PUSH2 0x10C7 JUMP JUMPDEST SWAP1 PUSH1 0x0 MSTORE PUSH1 0x20 PUSH1 0x0 KECCAK256 SWAP1 PUSH1 0x1F ADD PUSH1 0x20 SWAP1 DIV DUP2 ADD SWAP3 DUP3 PUSH2 0xBA0 JUMPI PUSH1 0x0 DUP6 SSTORE PUSH2 0xBE6 JUMP JUMPDEST DUP3 PUSH1 0x1F LT PUSH2 0xBB9 JUMPI DUP1 MLOAD PUSH1 0xFF NOT AND DUP4 DUP1 ADD OR DUP6 SSTORE PUSH2 0xBE6 JUMP JUMPDEST DUP3 DUP1 ADD PUSH1 0x1 ADD DUP6 SSTORE DUP3 ISZERO PUSH2 0xBE6 JUMPI SWAP2 DUP3 ADD JUMPDEST DUP3 DUP2 GT ISZERO PUSH2 0xBE6 JUMPI DUP3 MLOAD DUP3 SSTORE SWAP2 PUSH1 0x20 ADD SWAP2 SWAP1 PUSH1 0x1 ADD SWAP1 PUSH2 0xBCB JUMP JUMPDEST POP PUSH2 0xBF2 SWAP3 SWAP2 POP PUSH2 0xC1E JUMP JUMPDEST POP SWAP1 JUMP JUMPDEST PUSH1 0x40 MLOAD DUP1 PUSH2 0x160 ADD PUSH1 0x40 MSTORE DUP1 PUSH1 0xB SWAP1 JUMPDEST PUSH1 0x60 DUP2 MSTORE PUSH1 0x20 ADD SWAP1 PUSH1 0x1 SWAP1 SUB SWAP1 DUP2 PUSH2 0xC06 JUMPI SWAP1 POP POP SWAP1 JUMP JUMPDEST JUMPDEST DUP1 DUP3 GT ISZERO PUSH2 0xBF2 JUMPI PUSH1 0x0 DUP2 SSTORE PUSH1 0x1 ADD PUSH2 0xC1F JUMP JUMPDEST PUSH1 0x0 DUP3 PUSH1 0x1F DUP4 ADD SLT PUSH2 0xC43 JUMPI DUP1 DUP2 REVERT JUMPDEST DUP2 CALLDATALOAD PUSH2 0xC56 PUSH2 0xC51 DUP3 PUSH2 0xFF4 JUMP JUMPDEST PUSH2 0xFC3 JUMP JUMPDEST DUP2 DUP2 MSTORE DUP5 PUSH1 0x20 DUP4 DUP7 ADD ADD GT ISZERO PUSH2 0xC6A JUMPI DUP3 DUP4 REVERT JUMPDEST DUP2 PUSH1 0x20 DUP6 ADD PUSH1 0x20 DUP4 ADD CALLDATACOPY SWAP1 DUP2 ADD PUSH1 0x20 ADD SWAP2 SWAP1 SWAP2 MSTORE SWAP3 SWAP2 POP POP JUMP JUMPDEST PUSH1 0x0 PUSH1 0x20 DUP3 DUP5 SUB SLT ISZERO PUSH2 0xC95 JUMPI DUP1 DUP2 REVERT JUMPDEST DUP2 CALLDATALOAD PUSH2 0xCA0 DUP2 PUSH2 0x1149 JUMP JUMPDEST SWAP4 SWAP3 POP POP POP JUMP JUMPDEST PUSH1 0x0 PUSH1 0x20 DUP3 DUP5 SUB SLT ISZERO PUSH2 0xCB8 JUMPI DUP1 DUP2 REVERT JUMPDEST DUP2 MLOAD PUSH2 0xCA0 DUP2 PUSH2 0x1149 JUMP JUMPDEST PUSH1 0x0 PUSH1 0x20 DUP3 DUP5 SUB SLT ISZERO PUSH2 0xCD4 JUMPI DUP1 DUP2 REVERT JUMPDEST DUP2 MLOAD DUP1 ISZERO ISZERO DUP2 EQ PUSH2 0xCA0 JUMPI DUP2 DUP3 REVERT JUMPDEST PUSH1 0x0 PUSH1 0x20 DUP3 DUP5 SUB SLT ISZERO PUSH2 0xCF4 JUMPI DUP1 DUP2 REVERT JUMPDEST DUP2 MLOAD PUSH8 0xFFFFFFFFFFFFFFFF DUP2 GT ISZERO PUSH2 0xD0A JUMPI DUP2 DUP3 REVERT JUMPDEST DUP3 ADD PUSH1 0x1F DUP2 ADD DUP5 SGT PUSH2 0xD1A JUMPI DUP2 DUP3 REVERT JUMPDEST DUP1 MLOAD PUSH2 0xD28 PUSH2 0xC51 DUP3 PUSH2 0xFF4 JUMP JUMPDEST DUP2 DUP2 MSTORE DUP6 PUSH1 0x20 DUP4 DUP6 ADD ADD GT ISZERO PUSH2 0xD3C JUMPI DUP4 DUP5 REVERT JUMPDEST PUSH2 0xD4D DUP3 PUSH1 0x20 DUP4 ADD PUSH1 0x20 DUP7 ADD PUSH2 0x1097 JUMP JUMPDEST SWAP6 SWAP5 POP POP POP POP POP JUMP JUMPDEST PUSH1 0x0 DUP1 PUSH1 0x0 DUP1 PUSH1 0x0 DUP1 PUSH1 0x0 PUSH1 0xE0 DUP9 DUP11 SUB SLT ISZERO PUSH2 0xD70 JUMPI DUP3 DUP4 REVERT JUMPDEST DUP8 CALLDATALOAD PUSH8 0xFFFFFFFFFFFFFFFF DUP1 DUP3 GT ISZERO PUSH2 0xD87 JUMPI DUP5 DUP6 REVERT JUMPDEST PUSH2 0xD93 DUP12 DUP4 DUP13 ADD PUSH2 0xC33 JUMP JUMPDEST SWAP9 POP PUSH1 0x20 DUP11 ADD CALLDATALOAD SWAP2 POP DUP1 DUP3 GT ISZERO PUSH2 0xDA8 JUMPI DUP5 DUP6 REVERT JUMPDEST PUSH2 0xDB4 DUP12 DUP4 DUP13 ADD PUSH2 0xC33 JUMP JUMPDEST SWAP8 POP PUSH1 0x40 DUP11 ADD CALLDATALOAD SWAP2 POP DUP1 DUP3 GT ISZERO PUSH2 0xDC9 JUMPI DUP5 DUP6 REVERT JUMPDEST PUSH2 0xDD5 DUP12 DUP4 DUP13 ADD PUSH2 0xC33 JUMP JUMPDEST SWAP7 POP PUSH1 0x60 DUP11 ADD CALLDATALOAD SWAP6 POP PUSH1 0x80 DUP11 ADD CALLDATALOAD SWAP2 POP DUP1 DUP3 GT ISZERO PUSH2 0xDF1 JUMPI DUP5 DUP6 REVERT JUMPDEST PUSH2 0xDFD DUP12 DUP4 DUP13 ADD PUSH2 0xC33 JUMP JUMPDEST SWAP5 POP PUSH1 0xA0 DUP11 ADD CALLDATALOAD SWAP2 POP DUP1 DUP3 GT ISZERO PUSH2 0xE12 JUMPI DUP4 DUP5 REVERT JUMPDEST PUSH2 0xE1E DUP12 DUP4 DUP13 ADD PUSH2 0xC33 JUMP JUMPDEST SWAP4 POP PUSH1 0xC0 DUP11 ADD CALLDATALOAD SWAP2 POP DUP1 DUP3 GT ISZERO PUSH2 0xE33 JUMPI DUP3 DUP4 REVERT JUMPDEST POP PUSH2 0xE40 DUP11 DUP3 DUP12 ADD PUSH2 0xC33 JUMP JUMPDEST SWAP2 POP POP SWAP3 SWAP6 SWAP9 SWAP2 SWAP5 SWAP8 POP SWAP3 SWAP6 POP JUMP JUMPDEST PUSH1 0x0 PUSH1 0x20 DUP3 DUP5 SUB SLT ISZERO PUSH2 0xE60 JUMPI DUP1 DUP2 REVERT JUMPDEST POP CALLDATALOAD SWAP2 SWAP1 POP JUMP JUMPDEST PUSH1 0x0 PUSH1 0x20 DUP3 DUP5 SUB SLT ISZERO PUSH2 0xE78 JUMPI DUP1 DUP2 REVERT JUMPDEST POP MLOAD SWAP2 SWAP1 POP JUMP JUMPDEST PUSH1 0x0 DUP2 MLOAD DUP1 DUP5 MSTORE PUSH2 0xE97 DUP2 PUSH1 0x20 DUP7 ADD PUSH1 0x20 DUP7 ADD PUSH2 0x1097 JUMP JUMPDEST PUSH1 0x1F ADD PUSH1 0x1F NOT AND SWAP3 SWAP1 SWAP3 ADD PUSH1 0x20 ADD SWAP3 SWAP2 POP POP JUMP JUMPDEST PUSH1 0x0 DUP3 MLOAD PUSH2 0xEBD DUP2 DUP5 PUSH1 0x20 DUP8 ADD PUSH2 0x1097 JUMP JUMPDEST SWAP2 SWAP1 SWAP2 ADD SWAP3 SWAP2 POP POP JUMP JUMPDEST DUP2 SLOAD PUSH1 0x0 SWAP1 DUP2 SWAP1 PUSH1 0x2 DUP2 DIV PUSH1 0x1 DUP1 DUP4 AND DUP1 PUSH2 0xEE3 JUMPI PUSH1 0x7F DUP4 AND SWAP3 POP JUMPDEST PUSH1 0x20 DUP1 DUP5 LT DUP3 EQ ISZERO PUSH2 0xF03 JUMPI PUSH4 0x4E487B71 PUSH1 0xE0 SHL DUP8 MSTORE PUSH1 0x22 PUSH1 0x4 MSTORE PUSH1 0x24 DUP8 REVERT JUMPDEST DUP2 DUP1 ISZERO PUSH2 0xF17 JUMPI PUSH1 0x1 DUP2 EQ PUSH2 0xF28 JUMPI PUSH2 0xF54 JUMP JUMPDEST PUSH1 0xFF NOT DUP7 AND DUP10 MSTORE DUP5 DUP10 ADD SWAP7 POP PUSH2 0xF54 JUMP JUMPDEST PUSH1 0x0 DUP11 DUP2 MSTORE PUSH1 0x20 SWAP1 KECCAK256 DUP9 JUMPDEST DUP7 DUP2 LT ISZERO PUSH2 0xF4C JUMPI DUP2 SLOAD DUP12 DUP3 ADD MSTORE SWAP1 DUP6 ADD SWAP1 DUP4 ADD PUSH2 0xF33 JUMP JUMPDEST POP POP DUP5 DUP10 ADD SWAP7 POP JUMPDEST POP SWAP5 SWAP9 SWAP8 POP POP POP POP POP POP POP POP JUMP JUMPDEST PUSH1 0x20 DUP1 DUP3 MSTORE PUSH1 0x0 SWAP1 PUSH2 0x180 DUP4 ADD DUP4 DUP3 ADD DUP6 DUP5 JUMPDEST PUSH1 0xB DUP2 LT ISZERO PUSH2 0xFA4 JUMPI PUSH1 0x1F NOT DUP8 DUP6 SUB ADD DUP4 MSTORE PUSH2 0xF92 DUP5 DUP4 MLOAD PUSH2 0xE7F JUMP JUMPDEST SWAP4 POP SWAP2 DUP5 ADD SWAP2 SWAP1 DUP5 ADD SWAP1 PUSH1 0x1 ADD PUSH2 0xF75 JUMP JUMPDEST POP SWAP2 SWAP7 SWAP6 POP POP POP POP POP POP JUMP JUMPDEST PUSH1 0x0 PUSH1 0x20 DUP3 MSTORE PUSH2 0xCA0 PUSH1 0x20 DUP4 ADD DUP5 PUSH2 0xE7F JUMP JUMPDEST PUSH1 0x40 MLOAD PUSH1 0x1F DUP3 ADD PUSH1 0x1F NOT AND DUP2 ADD PUSH8 0xFFFFFFFFFFFFFFFF DUP2 GT DUP3 DUP3 LT OR ISZERO PUSH2 0xFEC JUMPI PUSH2 0xFEC PUSH2 0x1133 JUMP JUMPDEST PUSH1 0x40 MSTORE SWAP2 SWAP1 POP JUMP JUMPDEST PUSH1 0x0 PUSH8 0xFFFFFFFFFFFFFFFF DUP3 GT ISZERO PUSH2 0x100E JUMPI PUSH2 0x100E PUSH2 0x1133 JUMP JUMPDEST POP PUSH1 0x1F ADD PUSH1 0x1F NOT AND PUSH1 0x20 ADD SWAP1 JUMP JUMPDEST PUSH1 0x0 PUSH1 0xFF DUP3 AND PUSH1 0xFF DUP5 AND DUP1 PUSH1 0xFF SUB DUP3 GT ISZERO PUSH2 0x1039 JUMPI PUSH2 0x1039 PUSH2 0x111D JUMP JUMPDEST ADD SWAP4 SWAP3 POP POP POP JUMP JUMPDEST PUSH1 0x0 DUP3 PUSH2 0x105C JUMPI PUSH4 0x4E487B71 PUSH1 0xE0 SHL DUP2 MSTORE PUSH1 0x12 PUSH1 0x4 MSTORE PUSH1 0x24 DUP2 REVERT JUMPDEST POP DIV SWAP1 JUMP JUMPDEST PUSH1 0x0 DUP2 PUSH1 0x0 NOT DIV DUP4 GT DUP3 ISZERO ISZERO AND ISZERO PUSH2 0x107B JUMPI PUSH2 0x107B PUSH2 0x111D JUMP JUMPDEST POP MUL SWAP1 JUMP JUMPDEST PUSH1 0x0 DUP3 DUP3 LT ISZERO PUSH2 0x1092 JUMPI PUSH2 0x1092 PUSH2 0x111D JUMP JUMPDEST POP SUB SWAP1 JUMP JUMPDEST PUSH1 0x0 JUMPDEST DUP4 DUP2 LT ISZERO PUSH2 0x10B2 JUMPI DUP2 DUP2 ADD MLOAD DUP4 DUP3 ADD MSTORE PUSH1 0x20 ADD PUSH2 0x109A JUMP JUMPDEST DUP4 DUP2 GT ISZERO PUSH2 0x10C1 JUMPI PUSH1 0x0 DUP5 DUP5 ADD MSTORE JUMPDEST POP POP POP POP JUMP JUMPDEST PUSH1 0x2 DUP2 DIV PUSH1 0x1 DUP3 AND DUP1 PUSH2 0x10DB JUMPI PUSH1 0x7F DUP3 AND SWAP2 POP JUMPDEST PUSH1 0x20 DUP3 LT DUP2 EQ ISZERO PUSH2 0x10FC JUMPI PUSH4 0x4E487B71 PUSH1 0xE0 SHL PUSH1 0x0 MSTORE PUSH1 0x22 PUSH1 0x4 MSTORE PUSH1 0x24 PUSH1 0x0 REVERT JUMPDEST POP SWAP2 SWAP1 POP JUMP JUMPDEST PUSH1 0x0 PUSH1 0x0 NOT DUP3 EQ ISZERO PUSH2 0x1116 JUMPI PUSH2 0x1116 PUSH2 0x111D JUMP JUMPDEST POP PUSH1 0x1 ADD SWAP1 JUMP JUMPDEST PUSH4 0x4E487B71 PUSH1 0xE0 SHL PUSH1 0x0 MSTORE PUSH1 0x11 PUSH1 0x4 MSTORE PUSH1 0x24 PUSH1 0x0 REVERT JUMPDEST PUSH4 0x4E487B71 PUSH1 0xE0 SHL PUSH1 0x0 MSTORE PUSH1 0x41 PUSH1 0x4 MSTORE PUSH1 0x24 PUSH1 0x0 REVERT JUMPDEST PUSH1 0x1 PUSH1 0x1 PUSH1 0xA0 SHL SUB DUP2 AND DUP2 EQ PUSH2 0x115E JUMPI PUSH1 0x0 DUP1 REVERT JUMPDEST POP JUMP INVALID LOG2 PUSH5 0x6970667358 0x22 SLT KECCAK256 0x25 ORIGIN MSTORE8 PUSH5 0x114EE8BEC1 0xD7 0x24 0xB0 EXTCODECOPY SAR DUP2 0xDF 0x28 ADDMOD CODESIZE MOD 0xD5 SLOAD PUSH7 0x8443BF4E0225E9 0x26 EXTCODECOPY PUSH5 0x736F6C6343 STOP ADDMOD MUL STOP CALLER "
		},
		"gasEstimates": {
			"creation": {
				"codeDepositCost": "900600",
				"executionCost": "infinite",
				"totalCost": "infinite"
			},
			"external": {
				"categorie()": "infinite",
				"categories(uint256)": "infinite",
				"description()": "infinite",
				"etat()": "infinite",
				"getAlldata()": "infinite",
				"localisation()": "infinite",
				"modeAcheminement()": "infinite",
				"modifierAnnonce(string,string,string,uint256,string,string,string)": "infinite",
				"prix()": "1040",
				"setVendu(address)": "42041",
				"titre()": "infinite",
				"urlImage()": "infinite",
				"user()": "1108",
				"userVendu()": "1128",
				"vendu()": "1116"
			}
		},
		"methodIdentifiers": {
			"categorie()": "aa5761ac",
			"categories(uint256)": "c6cdbe5e",
			"description()": "7284e416",
			"etat()": "a2287c86",
			"getAlldata()": "ea382fa9",
			"localisation()": "18484d74",
			"modeAcheminement()": "a9f67cbf",
			"modifierAnnonce(string,string,string,uint256,string,string,string)": "562ea737",
			"prix()": "c65e9c79",
			"setVendu(address)": "250eba32",
			"titre()": "d64c9379",
			"urlImage()": "e959740a",
			"user()": "4f8632ba",
			"userVendu()": "ee0ebe7a",
			"vendu()": "d4abf017"
		}
	},
	"abi": [
		{
			"inputs": [
				{
					"internalType": "contract Utilisateur",
					"name": "_user",
					"type": "address"
				},
				{
					"internalType": "string",
					"name": "_titre",
					"type": "string"
				},
				{
					"internalType": "string",
					"name": "_description",
					"type": "string"
				},
				{
					"internalType": "string",
					"name": "_etat",
					"type": "string"
				},
				{
					"internalType": "uint256",
					"name": "_prix",
					"type": "uint256"
				},
				{
					"internalType": "string",
					"name": "_modeAcheminement",
					"type": "string"
				},
				{
					"internalType": "string",
					"name": "_localisation",
					"type": "string"
				},
				{
					"internalType": "string",
					"name": "_categorie",
					"type": "string"
				},
				{
					"internalType": "string",
					"name": "_urlImage",
					"type": "string"
				}
			],
			"stateMutability": "nonpayable",
			"type": "constructor"
		},
		{
			"inputs": [],
			"name": "categorie",
			"outputs": [
				{
					"internalType": "string",
					"name": "",
					"type": "string"
				}
			],
			"stateMutability": "view",
			"type": "function"
		},
		{
			"inputs": [
				{
					"internalType": "uint256",
					"name": "",
					"type": "uint256"
				}
			],
			"name": "categories",
			"outputs": [
				{
					"internalType": "string",
					"name": "",
					"type": "string"
				}
			],
			"stateMutability": "view",
			"type": "function"
		},
		{
			"inputs": [],
			"name": "description",
			"outputs": [
				{
					"internalType": "string",
					"name": "",
					"type": "string"
				}
			],
			"stateMutability": "view",
			"type": "function"
		},
		{
			"inputs": [],
			"name": "etat",
			"outputs": [
				{
					"internalType": "string",
					"name": "",
					"type": "string"
				}
			],
			"stateMutability": "view",
			"type": "function"
		},
		{
			"inputs": [],
			"name": "getAlldata",
			"outputs": [
				{
					"internalType": "string[11]",
					"name": "",
					"type": "string[11]"
				}
			],
			"stateMutability": "view",
			"type": "function"
		},
		{
			"inputs": [],
			"name": "localisation",
			"outputs": [
				{
					"internalType": "string",
					"name": "",
					"type": "string"
				}
			],
			"stateMutability": "view",
			"type": "function"
		},
		{
			"inputs": [],
			"name": "modeAcheminement",
			"outputs": [
				{
					"internalType": "string",
					"name": "",
					"type": "string"
				}
			],
			"stateMutability": "view",
			"type": "function"
		},
		{
			"inputs": [
				{
					"internalType": "string",
					"name": "_titre",
					"type": "string"
				},
				{
					"internalType": "string",
					"name": "_description",
					"type": "string"
				},
				{
					"internalType": "string",
					"name": "_etat",
					"type": "string"
				},
				{
					"internalType": "uint256",
					"name": "_prix",
					"type": "uint256"
				},
				{
					"internalType": "string",
					"name": "_modeAcheminement",
					"type": "string"
				},
				{
					"internalType": "string",
					"name": "_categorie",
					"type": "string"
				},
				{
					"internalType": "string",
					"name": "_localisation",
					"type": "string"
				}
			],
			"name": "modifierAnnonce",
			"outputs": [],
			"stateMutability": "nonpayable",
			"type": "function"
		},
		{
			"inputs": [],
			"name": "prix",
			"outputs": [
				{
					"internalType": "uint256",
					"name": "",
					"type": "uint256"
				}
			],
			"stateMutability": "view",
			"type": "function"
		},
		{
			"inputs": [
				{
					"internalType": "address",
					"name": "_userVendu",
					"type": "address"
				}
			],
			"name": "setVendu",
			"outputs": [],
			"stateMutability": "nonpayable",
			"type": "function"
		},
		{
			"inputs": [],
			"name": "titre",
			"outputs": [
				{
					"internalType": "string",
					"name": "",
					"type": "string"
				}
			],
			"stateMutability": "view",
			"type": "function"
		},
		{
			"inputs": [],
			"name": "urlImage",
			"outputs": [
				{
					"internalType": "string",
					"name": "",
					"type": "string"
				}
			],
			"stateMutability": "view",
			"type": "function"
		},
		{
			"inputs": [],
			"name": "user",
			"outputs": [
				{
					"internalType": "contract Utilisateur",
					"name": "",
					"type": "address"
				}
			],
			"stateMutability": "view",
			"type": "function"
		},
		{
			"inputs": [],
			"name": "userVendu",
			"outputs": [
				{
					"internalType": "address",
					"name": "",
					"type": "address"
				}
			],
			"stateMutability": "view",
			"type": "function"
		},
		{
			"inputs": [],
			"name": "vendu",
			"outputs": [
				{
					"internalType": "bool",
					"name": "",
					"type": "bool"
				}
			],
			"stateMutability": "view",
			"type": "function"
		}
	]
}