{
	"data": {
		"bytecode": {
			"linkReferences": {},
			"object": "608060405234801561001057600080fd5b5061474e806100206000396000f3fe608060405260043610620000d45760003560e01c8063c04d5eef116200008b578063e080713b1162000061578063e080713b14620002c9578063e09317c914620002fd578063e1add52b1462000322578063fffad820146200034757620000d4565b8063c04d5eef1462000251578063c38da4a51462000276578063cdb29b6a146200028d57620000d4565b806306b4a2e914620000d95780631673f4d4146200013b5780633084574a146200016257806373f594d1146200019c5780637796721614620001e15780637ba70598146200022c575b600080fd5b348015620000e657600080fd5b506200011e620000f83660046200162b565b60026020908152600092835260408084209091529082529020546001600160a01b031681565b6040516001600160a01b0390911681526020015b60405180910390f35b3480156200014857600080fd5b50620001606200015a3660046200185a565b6200036c565b005b3480156200016f57600080fd5b506200011e6200018136600462001510565b6000602081905290815260409020546001600160a01b031681565b348015620001a957600080fd5b506200011e620001bb3660046200162b565b60016020908152600092835260408084209091529082529020546001600160a01b031681565b348015620001ee57600080fd5b506200021d6200020036600462001555565b600760209081526000928352604080842090915290825290205481565b60405190815260200162000132565b3480156200023957600080fd5b50620001606200024b36600462001659565b6200043c565b3480156200025e57600080fd5b50620001606200027036600462001659565b620004bc565b62000160620002873660046200162b565b62000548565b3480156200029a57600080fd5b506200021d620002ac36600462001555565b600660209081526000928352604080842090915290825290205481565b348015620002d657600080fd5b50620002ee620002e836600462001592565b62000817565b60405162000132919062001a8b565b3480156200030a57600080fd5b50620001606200031c366004620015d7565b620008ca565b3480156200032f57600080fd5b50620002ee6200034136600462001592565b62001023565b3480156200035457600080fd5b5062000160620003663660046200170e565b6200104f565b3360009081526003602052604090205460ff16620003a75760405162461bcd60e51b81526004016200039e9062001b95565b60405180910390fd5b3360009081526001602090815260408083208b84529091529081902054905163562ea73760e01b81526001600160a01b039091169063562ea73790620003fe908a908a908a908a908a908a908a9060040162001b00565b600060405180830381600087803b1580156200041957600080fd5b505af11580156200042e573d6000803e3d6000fd5b505050505050505050505050565b3360009081526020819052604090819020549051630f74e0b360e31b81526001600160a01b0390911690637ba70598906200048290879087908790879060040162001aa0565b600060405180830381600087803b1580156200049d57600080fd5b505af1158015620004b2573d6000803e3d6000fd5b5050505050505050565b60003385858585604051620004d190620013bf565b620004e195949392919062001957565b604051809103906000f080158015620004fe573d6000803e3d6000fd5b50336000908152600360209081526040808320805460ff1916600117905590829052902080546001600160a01b039092166001600160a01b03199092169190911790555050505050565b3360009081526003602052604090205460ff166200057a5760405162461bcd60e51b81526004016200039e9062001b95565b6001600160a01b03808316600090815260016020908152604080832085845282529182902054825163c65e9c7960e01b8152925193169263c65e9c79926004808201939291829003018186803b158015620005d457600080fd5b505afa158015620005e9573d6000803e3d6000fd5b505050506040513d601f19601f820116820180604052508101906200060f919062001841565b341015620006545760405162461bcd60e51b8152602060048201526011602482015270135bdb9d185b9d081a5b98dbdc9c9958dd607a1b60448201526064016200039e565b6001600160a01b038083166000908152600160209081526040808320858452825280832054338452600283528184208484528285205483516344085a6560e01b81529351928716969195949116926344085a65926004808301939282900301818787803b158015620006c557600080fd5b505af1158015620006da573d6000803e3d6000fd5b505050506040513d601f19601f8201168201806040525081019062000700919062001841565b815260208101919091526040908101600090812080546001600160a01b039485166001600160a01b03199091161790559051918416913480156108fc0292909190818181858888f193505050501580156200075f573d6000803e3d6000fd5b506001600160a01b038281166000908152600160209081526040808320858452909152908190205490516312875d1960e11b815233600482015291169063250eba3290602401600060405180830381600087803b158015620007c057600080fd5b505af1158015620007d5573d6000803e3d6000fd5b505060408051338152602081018590527f460c7cb03fbb4bc8daeb2450324799e6f732962382b87c612344b688a05596e6935001905060405180910390a15050565b600460209081526000938452604080852082529284528284209052825290208054620008439062001bf1565b80601f0160208091040260200160405190810160405280929190818152602001828054620008719062001bf1565b8015620008c25780601f106200089657610100808354040283529160200191620008c2565b820191906000526020600020905b815481529060010190602001808311620008a457829003601f168201915b505050505081565b3360009081526003602052604090205460ff16620008fc5760405162461bcd60e51b81526004016200039e9062001b95565b336001600160a01b0383161415620009725760405162461bcd60e51b815260206004820152603260248201527f566f7573206e6520706f7576657a2070617320656e766f796572206465206d65604482015271737361676573206120766f7573206d656d6560701b60648201526084016200039e565b3360009081526003602052604090205460ff16620009d35760405162461bcd60e51b815260206004820152601a60248201527f5574696c69736174657572206e6f6e20656e726567697374726500000000000060448201526064016200039e565b33600090815260208181526040808320548151631190f1e760e31b815291516001600160a01b039091169360069390928592638c878f3892600480840193919291829003018186803b15801562000a2957600080fd5b505afa15801562000a3e573d6000803e3d6000fd5b505050506040513d601f19601f8201168201806040525081019062000a64919062001536565b6001600160a01b039081168252602080830193909352604091820160009081209187168152925290205462000a9b90600162001bcc565b60066000836001600160a01b0316638c878f386040518163ffffffff1660e01b815260040160206040518083038186803b15801562000ad957600080fd5b505afa15801562000aee573d6000803e3d6000fd5b505050506040513d601f19601f8201168201806040525081019062000b14919062001536565b6001600160a01b03166001600160a01b031681526020019081526020016000206000856001600160a01b03166001600160a01b03168152602001908152602001600020819055508160046000836001600160a01b0316638c878f386040518163ffffffff1660e01b815260040160206040518083038186803b15801562000b9a57600080fd5b505afa15801562000baf573d6000803e3d6000fd5b505050506040513d601f19601f8201168201806040525081019062000bd5919062001536565b6001600160a01b03166001600160a01b031681526020019081526020016000206000856001600160a01b03166001600160a01b03168152602001908152602001600020600060066000856001600160a01b0316638c878f386040518163ffffffff1660e01b815260040160206040518083038186803b15801562000c5857600080fd5b505afa15801562000c6d573d6000803e3d6000fd5b505050506040513d601f19601f8201168201806040525081019062000c93919062001536565b6001600160a01b03166001600160a01b031681526020019081526020016000206000876001600160a01b03166001600160a01b03168152602001908152602001600020548152602001908152602001600020908051906020019062000cfa929190620013cd565b5060076000846001600160a01b03166001600160a01b031681526020019081526020016000206000826001600160a01b0316638c878f386040518163ffffffff1660e01b815260040160206040518083038186803b15801562000d5c57600080fd5b505afa15801562000d71573d6000803e3d6000fd5b505050506040513d601f19601f8201168201806040525081019062000d97919062001536565b6001600160a01b0316815260208101919091526040016000205462000dbe90600162001bcc565b60076000856001600160a01b03166001600160a01b031681526020019081526020016000206000836001600160a01b0316638c878f386040518163ffffffff1660e01b815260040160206040518083038186803b15801562000e1f57600080fd5b505afa15801562000e34573d6000803e3d6000fd5b505050506040513d601f19601f8201168201806040525081019062000e5a919062001536565b6001600160a01b03166001600160a01b03168152602001908152602001600020819055508160056000856001600160a01b03166001600160a01b031681526020019081526020016000206000836001600160a01b0316638c878f386040518163ffffffff1660e01b815260040160206040518083038186803b15801562000ee057600080fd5b505afa15801562000ef5573d6000803e3d6000fd5b505050506040513d601f19601f8201168201806040525081019062000f1b919062001536565b6001600160a01b03166001600160a01b03168152602001908152602001600020600060076000876001600160a01b03166001600160a01b031681526020019081526020016000206000856001600160a01b0316638c878f386040518163ffffffff1660e01b815260040160206040518083038186803b15801562000f9e57600080fd5b505afa15801562000fb3573d6000803e3d6000fd5b505050506040513d601f19601f8201168201806040525081019062000fd9919062001536565b6001600160a01b03166001600160a01b0316815260200190815260200160002054815260200190815260200160002090805190602001906200101d929190620013cd565b50505050565b600560209081526000938452604080852082529284528284209052825290208054620008439062001bf1565b3360009081526003602052604090205460ff16620010815760405162461bcd60e51b81526004016200039e9062001b95565b60008511620010d35760405162461bcd60e51b815260206004820152601f60248201527f4c65207072697820646f6974206574726520737570657269657572206120300060448201526064016200039e565b336000908152602081905260408082205490516001600160a01b03909116908a908a908a908a908a908a908a908a906200110d906200145c565b6200112199989796959493929190620019c9565b604051809103906000f0801580156200113e573d6000803e3d6000fd5b5033600090815260016020908152604080832083835281842054825163643725fd60e11b8152925195965086959194936001600160a01b039091169263c86e4bfa9260048083019392829003018186803b1580156200119c57600080fd5b505afa158015620011b1573d6000803e3d6000fd5b505050506040513d601f19601f82011682018060405250810190620011d7919062001841565b81526020808201929092526040908101600090812080546001600160a01b0319166001600160a01b0395861617905533815280835281902054815163643725fd60e11b8152915193169263a985b0d692849263c86e4bfa9260048083019392829003018186803b1580156200124b57600080fd5b505afa15801562001260573d6000803e3d6000fd5b505050506040513d601f19601f8201168201806040525081019062001286919062001841565b6200129390600162001bcc565b6040518263ffffffff1660e01b8152600401620012b291815260200190565b600060405180830381600087803b158015620012cd57600080fd5b505af1158015620012e2573d6000803e3d6000fd5b5050336000818152602081815260409182902054825163643725fd60e11b815292517f54cf872cd5ac23b9fee4cab22b7c3d72ef9b945168e38e1f85649dc2f8a7399796509394506001600160a01b03169263c86e4bfa926004808201939291829003018186803b1580156200135757600080fd5b505afa1580156200136c573d6000803e3d6000fd5b505050506040513d601f19601f8201168201806040525081019062001392919062001841565b604080516001600160a01b03909316835260208301919091520160405180910390a1505050505050505050565b6110b38062001c5e83390190565b828054620013db9062001bf1565b90600052602060002090601f016020900481019282620013ff57600085556200144a565b82601f106200141a57805160ff19168380011785556200144a565b828001600101855582156200144a579182015b828111156200144a5782518255916020019190600101906200142d565b50620014589291506200146a565b5090565b611a088062002d1183390190565b5b808211156200145857600081556001016200146b565b600082601f83011262001492578081fd5b813567ffffffffffffffff80821115620014b057620014b062001c2e565b604051601f8301601f19908116603f01168101908282118183101715620014db57620014db62001c2e565b81604052838152866020858801011115620014f4578485fd5b8360208701602083013792830160200193909352509392505050565b60006020828403121562001522578081fd5b81356200152f8162001c44565b9392505050565b60006020828403121562001548578081fd5b81516200152f8162001c44565b6000806040838503121562001568578081fd5b8235620015758162001c44565b91506020830135620015878162001c44565b809150509250929050565b600080600060608486031215620015a7578081fd5b8335620015b48162001c44565b92506020840135620015c68162001c44565b929592945050506040919091013590565b60008060408385031215620015ea578182fd5b8235620015f78162001c44565b9150602083013567ffffffffffffffff81111562001613578182fd5b620016218582860162001481565b9150509250929050565b600080604083850312156200163e578182fd5b82356200164b8162001c44565b946020939093013593505050565b600080600080608085870312156200166f578081fd5b843567ffffffffffffffff8082111562001687578283fd5b620016958883890162001481565b95506020870135915080821115620016ab578283fd5b620016b98883890162001481565b94506040870135915080821115620016cf578283fd5b620016dd8883890162001481565b93506060870135915080821115620016f3578283fd5b50620017028782880162001481565b91505092959194509250565b600080600080600080600080610100898b0312156200172b578384fd5b883567ffffffffffffffff8082111562001743578586fd5b620017518c838d0162001481565b995060208b013591508082111562001767578586fd5b620017758c838d0162001481565b985060408b01359150808211156200178b578586fd5b620017998c838d0162001481565b975060608b0135965060808b0135915080821115620017b6578586fd5b620017c48c838d0162001481565b955060a08b0135915080821115620017da578485fd5b620017e88c838d0162001481565b945060c08b0135915080821115620017fe578384fd5b6200180c8c838d0162001481565b935060e08b013591508082111562001822578283fd5b50620018318b828c0162001481565b9150509295985092959890939650565b60006020828403121562001853578081fd5b5051919050565b600080600080600080600080610100898b03121562001877578384fd5b88359750602089013567ffffffffffffffff8082111562001896578586fd5b620018a48c838d0162001481565b985060408b0135915080821115620018ba578586fd5b620018c88c838d0162001481565b975060608b0135915080821115620018de578586fd5b620018ec8c838d0162001481565b965060808b0135955060a08b0135915080821115620017da578485fd5b60008151808452815b81811015620019305760208185018101518683018201520162001912565b81811115620019425782602083870101525b50601f01601f19169290920160200192915050565b6001600160a01b038616815260a0602082018190526000906200197d9083018762001909565b828103604084015262001991818762001909565b90508281036060840152620019a7818662001909565b90508281036080840152620019bd818562001909565b98975050505050505050565b6001600160a01b038a16815261012060208201819052600090620019f08382018c62001909565b9050828103604084015262001a06818b62001909565b9050828103606084015262001a1c818a62001909565b905087608084015282810360a084015262001a38818862001909565b905082810360c084015262001a4e818762001909565b905082810360e084015262001a64818662001909565b905082810361010084015262001a7b818562001909565b9c9b505050505050505050505050565b6000602082526200152f602083018462001909565b60006080825262001ab5608083018762001909565b828103602084015262001ac9818762001909565b9050828103604084015262001adf818662001909565b9050828103606084015262001af5818562001909565b979650505050505050565b600060e0825262001b1560e083018a62001909565b828103602084015262001b29818a62001909565b9050828103604084015262001b3f818962001909565b9050866060840152828103608084015262001b5b818762001909565b905082810360a084015262001b71818662001909565b905082810360c084015262001b87818562001909565b9a9950505050505050505050565b6020808252601a908201527f566f7573206e27657465732070617320656e7265676973747265000000000000604082015260600190565b6000821982111562001bec57634e487b7160e01b81526011600452602481fd5b500190565b60028104600182168062001c0657607f821691505b6020821081141562001c2857634e487b7160e01b600052602260045260246000fd5b50919050565b634e487b7160e01b600052604160045260246000fd5b6001600160a01b038116811462001c5a57600080fd5b5056fe60806040523480156200001157600080fd5b50604051620010b3380380620010b3833981016040819052620000349162000223565b600080546001600160a01b0319166001600160a01b038716179055835162000064906003906020870190620000ca565b5082516200007a906002906020860190620000ca565b50815162000090906004906020850190620000ca565b508051620000a6906001906020840190620000ca565b50506007805460ff19166001179055505060006005819055600655506200034a9050565b828054620000d890620002f7565b90600052602060002090601f016020900481019282620000fc576000855562000147565b82601f106200011757805160ff191683800117855562000147565b8280016001018555821562000147579182015b82811115620001475782518255916020019190600101906200012a565b506200015592915062000159565b5090565b5b808211156200015557600081556001016200015a565b600082601f83011262000181578081fd5b81516001600160401b03808211156200019e576200019e62000334565b604051601f8301601f19908116603f01168101908282118183101715620001c957620001c962000334565b81604052838152602092508683858801011115620001e5578485fd5b8491505b83821015620002085785820183015181830184015290820190620001e9565b838211156200021957848385830101525b9695505050505050565b600080600080600060a086880312156200023b578081fd5b85516001600160a01b038116811462000252578182fd5b60208701519095506001600160401b03808211156200026f578283fd5b6200027d89838a0162000170565b9550604088015191508082111562000293578283fd5b620002a189838a0162000170565b94506060880151915080821115620002b7578283fd5b620002c589838a0162000170565b93506080880151915080821115620002db578283fd5b50620002ea8882890162000170565b9150509295509295909350565b6002810460018216806200030c57607f821691505b602082108114156200032e57634e487b7160e01b600052602260045260246000fd5b50919050565b634e487b7160e01b600052604160045260246000fd5b610d59806200035a6000396000f3fe608060405234801561001057600080fd5b50600436106100b45760003560e01c80639a68308f116100715780639a68308f14610152578063a985b0d61461015a578063c057f95f1461016d578063c86e4bfa14610175578063e542c3e41461017e578063ea382fa914610187576100b4565b806318484d74146100b95780632de40ce3146100d757806344085a65146100f457806361fac54d1461010a5780637ba70598146101125780638c878f3814610127575b600080fd5b6100c161019c565b6040516100ce9190610b72565b60405180910390f35b6007546100e49060ff1681565b60405190151581526020016100ce565b6100fc61022a565b6040519081526020016100ce565b6100c161024c565b610125610120366004610a20565b610259565b005b60005461013a906001600160a01b031681565b6040516001600160a01b0390911681526020016100ce565b6100c16102af565b610125610168366004610ac8565b600555565b6100c16102bc565b6100fc60055481565b6100fc60065481565b61018f6102c9565b6040516100ce9190610b24565b600380546101a990610ca1565b80601f01602080910402602001604051908101604052809291908181526020018280546101d590610ca1565b80156102225780601f106101f757610100808354040283529160200191610222565b820191906000526020600020905b81548152906001019060200180831161020557829003601f168201915b505050505081565b600060016006600082825461023f9190610bde565b9091555050600654905090565b600180546101a990610ca1565b835161026c90600390602087019061084d565b50825161028090600290602086019061084d565b50815161029490600490602085019061084d565b5080516102a890600190602084019061084d565b5050505050565b600280546101a990610ca1565b600480546101a990610ca1565b6102d16108d1565b6102d96108d1565b306001600160a01b0316638c878f386040518163ffffffff1660e01b815260040160206040518083038186803b15801561031257600080fd5b505afa158015610326573d6000803e3d6000fd5b505050506040513d601f19601f8201168201806040525081019061034a919061095f565b604051602001610372919060609190911b6bffffffffffffffffffffffff1916815260140190565b60408051808303601f1901815291815290825280516361fac54d60e01b8152905130916361fac54d916004808301926000929190829003018186803b1580156103ba57600080fd5b505afa1580156103ce573d6000803e3d6000fd5b505050506040513d6000823e601f3d908101601f191682016040526103f691908101906109ad565b602082015260408051639a68308f60e01b815290513091639a68308f916004808301926000929190829003018186803b15801561043257600080fd5b505afa158015610446573d6000803e3d6000fd5b505050506040513d6000823e601f3d908101601f1916820160405261046e91908101906109ad565b8160026020020181905250306001600160a01b03166318484d746040518163ffffffff1660e01b815260040160006040518083038186803b1580156104b257600080fd5b505afa1580156104c6573d6000803e3d6000fd5b505050506040513d6000823e601f3d908101601f191682016040526104ee91908101906109ad565b60608201526040805163c057f95f60e01b81529051309163c057f95f916004808301926000929190829003018186803b15801561052a57600080fd5b505afa15801561053e573d6000803e3d6000fd5b505050506040513d6000823e601f3d908101601f1916820160405261056691908101906109ad565b81600460200201819052506105ea306001600160a01b031663c86e4bfa6040518163ffffffff1660e01b815260040160206040518083038186803b1580156105ad57600080fd5b505afa1580156105c1573d6000803e3d6000fd5b505050506040513d601f19601f820116820180604052508101906105e59190610ae0565b610705565b8160056020020181905250610631306001600160a01b031663e542c3e46040518163ffffffff1660e01b815260040160206040518083038186803b1580156105ad57600080fd5b60c082015260408051632de40ce360e01b815290513091632de40ce3916004808301926020929190829003018186803b15801561066d57600080fd5b505afa158015610681573d6000803e3d6000fd5b505050506040513d601f19601f820116820180604052508101906106a5919061098d565b156106d55760408051808201909152600a815269456e726567697374726560b01b602082015260e0820152610700565b60408051808201909152600e81526d4e6f6e20656e726567697374726560901b602082015260e08201525b905090565b60608161072a57506040805180820190915260018152600360fc1b6020820152610848565b8160005b8115610754578061073e81610cdc565b915061074d9050600a83610c1b565b915061072e565b60008167ffffffffffffffff81111561077d57634e487b7160e01b600052604160045260246000fd5b6040519080825280601f01601f1916602001820160405280156107a7576020820181803683370190505b509050815b8515610842576107bd600182610c5a565b905060006107cc600a88610c1b565b6107d790600a610c3b565b6107e19088610c5a565b6107ec906030610bf6565b905060008160f81b90508084848151811061081757634e487b7160e01b600052603260045260246000fd5b60200101906001600160f81b031916908160001a905350610839600a89610c1b565b975050506107ac565b50925050505b919050565b82805461085990610ca1565b90600052602060002090601f01602090048101928261087b57600085556108c1565b82601f1061089457805160ff19168380011785556108c1565b828001600101855582156108c1579182015b828111156108c15782518255916020019190600101906108a6565b506108cd9291506108f9565b5090565b6040518061010001604052806008905b60608152602001906001900390816108e15790505090565b5b808211156108cd57600081556001016108fa565b600082601f83011261091e578081fd5b813561093161092c82610bb6565b610b85565b818152846020838601011115610945578283fd5b816020850160208301379081016020019190915292915050565b600060208284031215610970578081fd5b81516001600160a01b0381168114610986578182fd5b9392505050565b60006020828403121561099e578081fd5b81518015158114610986578182fd5b6000602082840312156109be578081fd5b815167ffffffffffffffff8111156109d4578182fd5b8201601f810184136109e4578182fd5b80516109f261092c82610bb6565b818152856020838501011115610a06578384fd5b610a17826020830160208601610c71565b95945050505050565b60008060008060808587031215610a35578283fd5b843567ffffffffffffffff80821115610a4c578485fd5b610a588883890161090e565b95506020870135915080821115610a6d578485fd5b610a798883890161090e565b94506040870135915080821115610a8e578384fd5b610a9a8883890161090e565b93506060870135915080821115610aaf578283fd5b50610abc8782880161090e565b91505092959194509250565b600060208284031215610ad9578081fd5b5035919050565b600060208284031215610af1578081fd5b5051919050565b60008151808452610b10816020860160208601610c71565b601f01601f19169290920160200192915050565b6020808252600090610120830183820185845b6008811015610b6657601f19878503018352610b54848351610af8565b93509184019190840190600101610b37565b50919695505050505050565b6000602082526109866020830184610af8565b604051601f8201601f1916810167ffffffffffffffff81118282101715610bae57610bae610d0d565b604052919050565b600067ffffffffffffffff821115610bd057610bd0610d0d565b50601f01601f191660200190565b60008219821115610bf157610bf1610cf7565b500190565b600060ff821660ff84168060ff03821115610c1357610c13610cf7565b019392505050565b600082610c3657634e487b7160e01b81526012600452602481fd5b500490565b6000816000190483118215151615610c5557610c55610cf7565b500290565b600082821015610c6c57610c6c610cf7565b500390565b60005b83811015610c8c578181015183820152602001610c74565b83811115610c9b576000848401525b50505050565b600281046001821680610cb557607f821691505b60208210811415610cd657634e487b7160e01b600052602260045260246000fd5b50919050565b6000600019821415610cf057610cf0610cf7565b5060010190565b634e487b7160e01b600052601160045260246000fd5b634e487b7160e01b600052604160045260246000fdfea264697066735822122018ac3e1aef8e17797ed211a1c827ff1e08c5db0596d6cec3ea2c168429da594364736f6c6343000802003360126102008181527126b7b134b634b2b91034b73a32b934b2bab960711b6102205260809081526102409182527126b7b134b634b2b91032bc3a32b934b2bab960711b6102605260a091909152600b6102808181526a4163636573736f6972657360a81b6102a05260c05260096102c0818152685665686963756c657360b81b6102e05260e052600a610300818152694d756c74696d6564696160b01b610320526101005261034082815268566574656d656e747360b81b61036052610120526103809283526a4a6575782d766964656f7360a81b6103a0526101409290925260086103c090815267536572766963657360c01b6103e0526101605261040090815268090d2ced05aa8cac6d60bb1b6104205261018052600e6104409081526d22b632b1ba3937b6b2b730b3b2b960911b610460526101a052610480818152692232b1b7b930ba34b7b760b11b6104a0526101c0526105006040526104c08181526924b6b6b7b134b634b2b960b11b6104e0526101e0526200018391600c62000394565b503480156200019157600080fd5b5060405162001a0838038062001a08833981016040819052620001b491620005ac565b6000805b600a548110156200026157600a8181548110620001e557634e487b7160e01b600052603260045260246000fd5b9060005260206000200160405160200162000201919062000710565b60405160208183030381529060405280519060200120846040516020016200022a9190620006f2565b6040516020818303038152906040528051906020012014156200024c57600191505b80620002588162000823565b915050620001b8565b5080620002c25760405162461bcd60e51b815260206004820152602560248201527f4c612063617465676f7269652073656c656374696f6e6e65206e276578697374604482015264652070617360d81b606482015260840160405180910390fd5b8851620002d79060009060208c0190620003f8565b508751620002ed9060019060208b0190620003f8565b508651620003039060029060208a0190620003f8565b50600386905583516200031e906004906020870190620003f8565b50845162000334906005906020880190620003f8565b50600780546001600160a01b0319166001600160a01b038c16179055815162000365906006906020850190620003f8565b50506007805460ff60a01b191690555050600880546001600160a01b0319169055506200086195505050505050565b828054828255906000526020600020908101928215620003e6579160200282015b82811115620003e65782518051620003d5918491602090910190620003f8565b5091602001919060010190620003b5565b50620003f492915062000483565b5090565b8280546200040690620007e6565b90600052602060002090601f0160209004810192826200042a576000855562000475565b82601f106200044557805160ff191683800117855562000475565b8280016001018555821562000475579182015b828111156200047557825182559160200191906001019062000458565b50620003f4929150620004a4565b80821115620003f45760006200049a8282620004bb565b5060010162000483565b5b80821115620003f45760008155600101620004a5565b508054620004c990620007e6565b6000825580601f10620004dd5750620004fd565b601f016020900490600052602060002090810190620004fd9190620004a4565b50565b80516001600160a01b03811681146200051857600080fd5b919050565b600082601f8301126200052e578081fd5b81516001600160401b03808211156200054b576200054b6200084b565b604051601f8301601f19908116603f011681019082821181831017156200057657620005766200084b565b816040528381528660208588010111156200058f578485fd5b620005a2846020830160208901620007b3565b9695505050505050565b60008060008060008060008060006101208a8c031215620005cb578485fd5b620005d68a62000500565b60208b01519099506001600160401b0380821115620005f3578687fd5b620006018d838e016200051d565b995060408c015191508082111562000617578687fd5b620006258d838e016200051d565b985060608c01519150808211156200063b578687fd5b620006498d838e016200051d565b975060808c0151965060a08c015191508082111562000666578586fd5b620006748d838e016200051d565b955060c08c01519150808211156200068a578485fd5b620006988d838e016200051d565b945060e08c0151915080821115620006ae578384fd5b620006bc8d838e016200051d565b93506101008c0151915080821115620006d3578283fd5b50620006e28c828d016200051d565b9150509295985092959850929598565b6000825162000706818460208701620007b3565b9190910192915050565b81546000908190600281046001808316806200072d57607f831692505b60208084108214156200074e57634e487b7160e01b87526022600452602487fd5b8180156200076557600181146200077757620007a5565b60ff19861689528489019650620007a5565b60008a815260209020885b868110156200079d5781548b82015290850190830162000782565b505084890196505b509498975050505050505050565b60005b83811015620007d0578181015183820152602001620007b6565b83811115620007e0576000848401525b50505050565b600281046001821680620007fb57607f821691505b602082108114156200081d57634e487b7160e01b600052602260045260246000fd5b50919050565b60006000198214156200084457634e487b7160e01b81526011600452602481fd5b5060010190565b634e487b7160e01b600052604160045260246000fd5b61119780620008716000396000f3fe608060405234801561001057600080fd5b50600436106100f55760003560e01c8063aa5761ac11610097578063d64c937911610066578063d64c93791461020a578063e959740a14610212578063ea382fa91461021a578063ee0ebe7a1461022f576100f5565b8063aa5761ac146101b4578063c65e9c79146101bc578063c6cdbe5e146101d3578063d4abf017146101e6576100f5565b8063562ea737116100d3578063562ea737146101895780637284e4161461019c578063a2287c86146101a4578063a9f67cbf146101ac576100f5565b806318484d74146100fa578063250eba32146101185780634f8632ba1461015e575b600080fd5b610102610242565b60405161010f9190610fb0565b60405180910390f35b61015c610126366004610c84565b6007805460ff60a01b1916600160a01b179055600880546001600160a01b039092166001600160a01b0319909216919091179055565b005b600754610171906001600160a01b031681565b6040516001600160a01b03909116815260200161010f565b61015c610197366004610d56565b6102d0565b61010261045a565b610102610467565b610102610474565b610102610481565b6101c560035481565b60405190815260200161010f565b6101026101e1366004610e4f565b61048e565b6007546101fa90600160a01b900460ff1681565b604051901515815260200161010f565b6101026104b9565b6101026104c6565b6102226104d3565b60405161010f9190610f62565b600854610171906001600160a01b031681565b6004805461024f906110c7565b80601f016020809104026020016040519081016040528092919081815260200182805461027b906110c7565b80156102c85780601f1061029d576101008083540402835291602001916102c8565b820191906000526020600020905b8154815290600101906020018083116102ab57829003601f168201915b505050505081565b6000805b600a5481101561037357600a81815481106102ff57634e487b7160e01b600052603260045260246000fd5b906000526020600020016040516020016103199190610ec7565b60405160208183030381529060405280519060200120846040516020016103409190610eab565b60405160208183030381529060405280519060200120141561036157600191505b8061036b81611102565b9150506102d4565b50806103d35760405162461bcd60e51b815260206004820152602560248201527f4c612063617465676f7269652073656c656374696f6e6e65206e276578697374604482015264652070617360d81b606482015260840160405180910390fd5b87516103e69060009060208b0190610b72565b5086516103fa9060019060208a0190610b72565b50855161040e906002906020890190610b72565b5060038590558151610427906004906020850190610b72565b50825161043b906009906020860190610b72565b50835161044f906005906020870190610b72565b505050505050505050565b6001805461024f906110c7565b6002805461024f906110c7565b6005805461024f906110c7565b6009805461024f906110c7565b600a818154811061049e57600080fd5b90600052602060002001600091509050805461024f906110c7565b6000805461024f906110c7565b6006805461024f906110c7565b6104db610bf6565b6104e3610bf6565b306001600160a01b031663d64c93796040518163ffffffff1660e01b815260040160006040518083038186803b15801561051c57600080fd5b505afa158015610530573d6000803e3d6000fd5b505050506040513d6000823e601f3d908101601f191682016040526105589190810190610ce3565b815260408051633942720b60e11b815290513091637284e416916004808301926000929190829003018186803b15801561059157600080fd5b505afa1580156105a5573d6000803e3d6000fd5b505050506040513d6000823e601f3d908101601f191682016040526105cd9190810190610ce3565b6020820152604080516351143e4360e11b81529051309163a2287c86916004808301926000929190829003018186803b15801561060957600080fd5b505afa15801561061d573d6000803e3d6000fd5b505050506040513d6000823e601f3d908101601f191682016040526106459190810190610ce3565b81600260200201819052506106c9306001600160a01b031663c65e9c796040518163ffffffff1660e01b815260040160206040518083038186803b15801561068c57600080fd5b505afa1580156106a0573d6000803e3d6000fd5b505050506040513d601f19601f820116820180604052508101906106c49190610e67565b610a2a565b606082015260408051630612135d60e21b8152905130916318484d74916004808301926000929190829003018186803b15801561070557600080fd5b505afa158015610719573d6000803e3d6000fd5b505050506040513d6000823e601f3d908101601f191682016040526107419190810190610ce3565b60808201526040805163a9f67cbf60e01b81529051309163a9f67cbf916004828101926000929190829003018186803b15801561077d57600080fd5b505afa158015610791573d6000803e3d6000fd5b505050506040513d6000823e601f3d908101601f191682016040526107b99190810190610ce3565b60a0820152604080516374acba0560e11b81529051309163e959740a916004808301926000929190829003018186803b1580156107f557600080fd5b505afa158015610809573d6000803e3d6000fd5b505050506040513d6000823e601f3d908101601f191682016040526108319190810190610ce3565b60c08201526040805163d4abf01760e01b81529051309163d4abf017916004808301926020929190829003018186803b15801561086d57600080fd5b505afa158015610881573d6000803e3d6000fd5b505050506040513d601f19601f820116820180604052508101906108a59190610cc3565b156108d05760408051808201909152600581526476656e647560d81b602082015260e08201526108f6565b6040805180820190915260098152687061732076656e647560b81b602082015260e08201525b306001600160a01b031663ee0ebe7a6040518163ffffffff1660e01b815260040160206040518083038186803b15801561092f57600080fd5b505afa158015610943573d6000803e3d6000fd5b505050506040513d601f19601f820116820180604052508101906109679190610ca7565b60405160200161098f919060609190911b6bffffffffffffffffffffffff1916815260140190565b60408051601f198184030181529190528160086020020181905250306001600160a01b031663aa5761ac6040518163ffffffff1660e01b815260040160006040518083038186803b1580156109e357600080fd5b505afa1580156109f7573d6000803e3d6000fd5b505050506040513d6000823e601f3d908101601f19168201604052610a1f9190810190610ce3565b610120820152919050565b606081610a4f57506040805180820190915260018152600360fc1b6020820152610b6d565b8160005b8115610a795780610a6381611102565b9150610a729050600a83611041565b9150610a53565b60008167ffffffffffffffff811115610aa257634e487b7160e01b600052604160045260246000fd5b6040519080825280601f01601f191660200182016040528015610acc576020820181803683370190505b509050815b8515610b6757610ae2600182611080565b90506000610af1600a88611041565b610afc90600a611061565b610b069088611080565b610b1190603061101c565b905060008160f81b905080848481518110610b3c57634e487b7160e01b600052603260045260246000fd5b60200101906001600160f81b031916908160001a905350610b5e600a89611041565b97505050610ad1565b50925050505b919050565b828054610b7e906110c7565b90600052602060002090601f016020900481019282610ba05760008555610be6565b82601f10610bb957805160ff1916838001178555610be6565b82800160010185558215610be6579182015b82811115610be6578251825591602001919060010190610bcb565b50610bf2929150610c1e565b5090565b604051806101600160405280600b905b6060815260200190600190039081610c065790505090565b5b80821115610bf25760008155600101610c1f565b600082601f830112610c43578081fd5b8135610c56610c5182610ff4565b610fc3565b818152846020838601011115610c6a578283fd5b816020850160208301379081016020019190915292915050565b600060208284031215610c95578081fd5b8135610ca081611149565b9392505050565b600060208284031215610cb8578081fd5b8151610ca081611149565b600060208284031215610cd4578081fd5b81518015158114610ca0578182fd5b600060208284031215610cf4578081fd5b815167ffffffffffffffff811115610d0a578182fd5b8201601f81018413610d1a578182fd5b8051610d28610c5182610ff4565b818152856020838501011115610d3c578384fd5b610d4d826020830160208601611097565b95945050505050565b600080600080600080600060e0888a031215610d70578283fd5b873567ffffffffffffffff80821115610d87578485fd5b610d938b838c01610c33565b985060208a0135915080821115610da8578485fd5b610db48b838c01610c33565b975060408a0135915080821115610dc9578485fd5b610dd58b838c01610c33565b965060608a0135955060808a0135915080821115610df1578485fd5b610dfd8b838c01610c33565b945060a08a0135915080821115610e12578384fd5b610e1e8b838c01610c33565b935060c08a0135915080821115610e33578283fd5b50610e408a828b01610c33565b91505092959891949750929550565b600060208284031215610e60578081fd5b5035919050565b600060208284031215610e78578081fd5b5051919050565b60008151808452610e97816020860160208601611097565b601f01601f19169290920160200192915050565b60008251610ebd818460208701611097565b9190910192915050565b8154600090819060028104600180831680610ee357607f831692505b6020808410821415610f0357634e487b7160e01b87526022600452602487fd5b818015610f175760018114610f2857610f54565b60ff19861689528489019650610f54565b60008a815260209020885b86811015610f4c5781548b820152908501908301610f33565b505084890196505b509498975050505050505050565b6020808252600090610180830183820185845b600b811015610fa457601f19878503018352610f92848351610e7f565b93509184019190840190600101610f75565b50919695505050505050565b600060208252610ca06020830184610e7f565b604051601f8201601f1916810167ffffffffffffffff81118282101715610fec57610fec611133565b604052919050565b600067ffffffffffffffff82111561100e5761100e611133565b50601f01601f191660200190565b600060ff821660ff84168060ff038211156110395761103961111d565b019392505050565b60008261105c57634e487b7160e01b81526012600452602481fd5b500490565b600081600019048311821515161561107b5761107b61111d565b500290565b6000828210156110925761109261111d565b500390565b60005b838110156110b257818101518382015260200161109a565b838111156110c1576000848401525b50505050565b6002810460018216806110db57607f821691505b602082108114156110fc57634e487b7160e01b600052602260045260246000fd5b50919050565b60006000198214156111165761111661111d565b5060010190565b634e487b7160e01b600052601160045260246000fd5b634e487b7160e01b600052604160045260246000fd5b6001600160a01b038116811461115e57600080fd5b5056fea264697066735822122025325364114ee8bec1d724b03c1d81df28083806d554668443bf4e0225e9263c64736f6c63430008020033a26469706673582212202987b9554800aabc047eff6ed32cb8942b2e67a3c4c79a26a48703c72d48b60464736f6c63430008020033",
			"opcodes": "PUSH1 0x80 PUSH1 0x40 MSTORE CALLVALUE DUP1 ISZERO PUSH2 0x10 JUMPI PUSH1 0x0 DUP1 REVERT JUMPDEST POP PUSH2 0x474E DUP1 PUSH2 0x20 PUSH1 0x0 CODECOPY PUSH1 0x0 RETURN INVALID PUSH1 0x80 PUSH1 0x40 MSTORE PUSH1 0x4 CALLDATASIZE LT PUSH3 0xD4 JUMPI PUSH1 0x0 CALLDATALOAD PUSH1 0xE0 SHR DUP1 PUSH4 0xC04D5EEF GT PUSH3 0x8B JUMPI DUP1 PUSH4 0xE080713B GT PUSH3 0x61 JUMPI DUP1 PUSH4 0xE080713B EQ PUSH3 0x2C9 JUMPI DUP1 PUSH4 0xE09317C9 EQ PUSH3 0x2FD JUMPI DUP1 PUSH4 0xE1ADD52B EQ PUSH3 0x322 JUMPI DUP1 PUSH4 0xFFFAD820 EQ PUSH3 0x347 JUMPI PUSH3 0xD4 JUMP JUMPDEST DUP1 PUSH4 0xC04D5EEF EQ PUSH3 0x251 JUMPI DUP1 PUSH4 0xC38DA4A5 EQ PUSH3 0x276 JUMPI DUP1 PUSH4 0xCDB29B6A EQ PUSH3 0x28D JUMPI PUSH3 0xD4 JUMP JUMPDEST DUP1 PUSH4 0x6B4A2E9 EQ PUSH3 0xD9 JUMPI DUP1 PUSH4 0x1673F4D4 EQ PUSH3 0x13B JUMPI DUP1 PUSH4 0x3084574A EQ PUSH3 0x162 JUMPI DUP1 PUSH4 0x73F594D1 EQ PUSH3 0x19C JUMPI DUP1 PUSH4 0x77967216 EQ PUSH3 0x1E1 JUMPI DUP1 PUSH4 0x7BA70598 EQ PUSH3 0x22C JUMPI JUMPDEST PUSH1 0x0 DUP1 REVERT JUMPDEST CALLVALUE DUP1 ISZERO PUSH3 0xE6 JUMPI PUSH1 0x0 DUP1 REVERT JUMPDEST POP PUSH3 0x11E PUSH3 0xF8 CALLDATASIZE PUSH1 0x4 PUSH3 0x162B JUMP JUMPDEST PUSH1 0x2 PUSH1 0x20 SWAP1 DUP2 MSTORE PUSH1 0x0 SWAP3 DUP4 MSTORE PUSH1 0x40 DUP1 DUP5 KECCAK256 SWAP1 SWAP2 MSTORE SWAP1 DUP3 MSTORE SWAP1 KECCAK256 SLOAD PUSH1 0x1 PUSH1 0x1 PUSH1 0xA0 SHL SUB AND DUP2 JUMP JUMPDEST PUSH1 0x40 MLOAD PUSH1 0x1 PUSH1 0x1 PUSH1 0xA0 SHL SUB SWAP1 SWAP2 AND DUP2 MSTORE PUSH1 0x20 ADD JUMPDEST PUSH1 0x40 MLOAD DUP1 SWAP2 SUB SWAP1 RETURN JUMPDEST CALLVALUE DUP1 ISZERO PUSH3 0x148 JUMPI PUSH1 0x0 DUP1 REVERT JUMPDEST POP PUSH3 0x160 PUSH3 0x15A CALLDATASIZE PUSH1 0x4 PUSH3 0x185A JUMP JUMPDEST PUSH3 0x36C JUMP JUMPDEST STOP JUMPDEST CALLVALUE DUP1 ISZERO PUSH3 0x16F JUMPI PUSH1 0x0 DUP1 REVERT JUMPDEST POP PUSH3 0x11E PUSH3 0x181 CALLDATASIZE PUSH1 0x4 PUSH3 0x1510 JUMP JUMPDEST PUSH1 0x0 PUSH1 0x20 DUP2 SWAP1 MSTORE SWAP1 DUP2 MSTORE PUSH1 0x40 SWAP1 KECCAK256 SLOAD PUSH1 0x1 PUSH1 0x1 PUSH1 0xA0 SHL SUB AND DUP2 JUMP JUMPDEST CALLVALUE DUP1 ISZERO PUSH3 0x1A9 JUMPI PUSH1 0x0 DUP1 REVERT JUMPDEST POP PUSH3 0x11E PUSH3 0x1BB CALLDATASIZE PUSH1 0x4 PUSH3 0x162B JUMP JUMPDEST PUSH1 0x1 PUSH1 0x20 SWAP1 DUP2 MSTORE PUSH1 0x0 SWAP3 DUP4 MSTORE PUSH1 0x40 DUP1 DUP5 KECCAK256 SWAP1 SWAP2 MSTORE SWAP1 DUP3 MSTORE SWAP1 KECCAK256 SLOAD PUSH1 0x1 PUSH1 0x1 PUSH1 0xA0 SHL SUB AND DUP2 JUMP JUMPDEST CALLVALUE DUP1 ISZERO PUSH3 0x1EE JUMPI PUSH1 0x0 DUP1 REVERT JUMPDEST POP PUSH3 0x21D PUSH3 0x200 CALLDATASIZE PUSH1 0x4 PUSH3 0x1555 JUMP JUMPDEST PUSH1 0x7 PUSH1 0x20 SWAP1 DUP2 MSTORE PUSH1 0x0 SWAP3 DUP4 MSTORE PUSH1 0x40 DUP1 DUP5 KECCAK256 SWAP1 SWAP2 MSTORE SWAP1 DUP3 MSTORE SWAP1 KECCAK256 SLOAD DUP2 JUMP JUMPDEST PUSH1 0x40 MLOAD SWAP1 DUP2 MSTORE PUSH1 0x20 ADD PUSH3 0x132 JUMP JUMPDEST CALLVALUE DUP1 ISZERO PUSH3 0x239 JUMPI PUSH1 0x0 DUP1 REVERT JUMPDEST POP PUSH3 0x160 PUSH3 0x24B CALLDATASIZE PUSH1 0x4 PUSH3 0x1659 JUMP JUMPDEST PUSH3 0x43C JUMP JUMPDEST CALLVALUE DUP1 ISZERO PUSH3 0x25E JUMPI PUSH1 0x0 DUP1 REVERT JUMPDEST POP PUSH3 0x160 PUSH3 0x270 CALLDATASIZE PUSH1 0x4 PUSH3 0x1659 JUMP JUMPDEST PUSH3 0x4BC JUMP JUMPDEST PUSH3 0x160 PUSH3 0x287 CALLDATASIZE PUSH1 0x4 PUSH3 0x162B JUMP JUMPDEST PUSH3 0x548 JUMP JUMPDEST CALLVALUE DUP1 ISZERO PUSH3 0x29A JUMPI PUSH1 0x0 DUP1 REVERT JUMPDEST POP PUSH3 0x21D PUSH3 0x2AC CALLDATASIZE PUSH1 0x4 PUSH3 0x1555 JUMP JUMPDEST PUSH1 0x6 PUSH1 0x20 SWAP1 DUP2 MSTORE PUSH1 0x0 SWAP3 DUP4 MSTORE PUSH1 0x40 DUP1 DUP5 KECCAK256 SWAP1 SWAP2 MSTORE SWAP1 DUP3 MSTORE SWAP1 KECCAK256 SLOAD DUP2 JUMP JUMPDEST CALLVALUE DUP1 ISZERO PUSH3 0x2D6 JUMPI PUSH1 0x0 DUP1 REVERT JUMPDEST POP PUSH3 0x2EE PUSH3 0x2E8 CALLDATASIZE PUSH1 0x4 PUSH3 0x1592 JUMP JUMPDEST PUSH3 0x817 JUMP JUMPDEST PUSH1 0x40 MLOAD PUSH3 0x132 SWAP2 SWAP1 PUSH3 0x1A8B JUMP JUMPDEST CALLVALUE DUP1 ISZERO PUSH3 0x30A JUMPI PUSH1 0x0 DUP1 REVERT JUMPDEST POP PUSH3 0x160 PUSH3 0x31C CALLDATASIZE PUSH1 0x4 PUSH3 0x15D7 JUMP JUMPDEST PUSH3 0x8CA JUMP JUMPDEST CALLVALUE DUP1 ISZERO PUSH3 0x32F JUMPI PUSH1 0x0 DUP1 REVERT JUMPDEST POP PUSH3 0x2EE PUSH3 0x341 CALLDATASIZE PUSH1 0x4 PUSH3 0x1592 JUMP JUMPDEST PUSH3 0x1023 JUMP JUMPDEST CALLVALUE DUP1 ISZERO PUSH3 0x354 JUMPI PUSH1 0x0 DUP1 REVERT JUMPDEST POP PUSH3 0x160 PUSH3 0x366 CALLDATASIZE PUSH1 0x4 PUSH3 0x170E JUMP JUMPDEST PUSH3 0x104F JUMP JUMPDEST CALLER PUSH1 0x0 SWAP1 DUP2 MSTORE PUSH1 0x3 PUSH1 0x20 MSTORE PUSH1 0x40 SWAP1 KECCAK256 SLOAD PUSH1 0xFF AND PUSH3 0x3A7 JUMPI PUSH1 0x40 MLOAD PUSH3 0x461BCD PUSH1 0xE5 SHL DUP2 MSTORE PUSH1 0x4 ADD PUSH3 0x39E SWAP1 PUSH3 0x1B95 JUMP JUMPDEST PUSH1 0x40 MLOAD DUP1 SWAP2 SUB SWAP1 REVERT JUMPDEST CALLER PUSH1 0x0 SWAP1 DUP2 MSTORE PUSH1 0x1 PUSH1 0x20 SWAP1 DUP2 MSTORE PUSH1 0x40 DUP1 DUP4 KECCAK256 DUP12 DUP5 MSTORE SWAP1 SWAP2 MSTORE SWAP1 DUP2 SWAP1 KECCAK256 SLOAD SWAP1 MLOAD PUSH4 0x562EA737 PUSH1 0xE0 SHL DUP2 MSTORE PUSH1 0x1 PUSH1 0x1 PUSH1 0xA0 SHL SUB SWAP1 SWAP2 AND SWAP1 PUSH4 0x562EA737 SWAP1 PUSH3 0x3FE SWAP1 DUP11 SWAP1 DUP11 SWAP1 DUP11 SWAP1 DUP11 SWAP1 DUP11 SWAP1 DUP11 SWAP1 DUP11 SWAP1 PUSH1 0x4 ADD PUSH3 0x1B00 JUMP JUMPDEST PUSH1 0x0 PUSH1 0x40 MLOAD DUP1 DUP4 SUB DUP2 PUSH1 0x0 DUP8 DUP1 EXTCODESIZE ISZERO DUP1 ISZERO PUSH3 0x419 JUMPI PUSH1 0x0 DUP1 REVERT JUMPDEST POP GAS CALL ISZERO DUP1 ISZERO PUSH3 0x42E JUMPI RETURNDATASIZE PUSH1 0x0 DUP1 RETURNDATACOPY RETURNDATASIZE PUSH1 0x0 REVERT JUMPDEST POP POP POP POP POP POP POP POP POP POP POP POP JUMP JUMPDEST CALLER PUSH1 0x0 SWAP1 DUP2 MSTORE PUSH1 0x20 DUP2 SWAP1 MSTORE PUSH1 0x40 SWAP1 DUP2 SWAP1 KECCAK256 SLOAD SWAP1 MLOAD PUSH4 0xF74E0B3 PUSH1 0xE3 SHL DUP2 MSTORE PUSH1 0x1 PUSH1 0x1 PUSH1 0xA0 SHL SUB SWAP1 SWAP2 AND SWAP1 PUSH4 0x7BA70598 SWAP1 PUSH3 0x482 SWAP1 DUP8 SWAP1 DUP8 SWAP1 DUP8 SWAP1 DUP8 SWAP1 PUSH1 0x4 ADD PUSH3 0x1AA0 JUMP JUMPDEST PUSH1 0x0 PUSH1 0x40 MLOAD DUP1 DUP4 SUB DUP2 PUSH1 0x0 DUP8 DUP1 EXTCODESIZE ISZERO DUP1 ISZERO PUSH3 0x49D JUMPI PUSH1 0x0 DUP1 REVERT JUMPDEST POP GAS CALL ISZERO DUP1 ISZERO PUSH3 0x4B2 JUMPI RETURNDATASIZE PUSH1 0x0 DUP1 RETURNDATACOPY RETURNDATASIZE PUSH1 0x0 REVERT JUMPDEST POP POP POP POP POP POP POP POP JUMP JUMPDEST PUSH1 0x0 CALLER DUP6 DUP6 DUP6 DUP6 PUSH1 0x40 MLOAD PUSH3 0x4D1 SWAP1 PUSH3 0x13BF JUMP JUMPDEST PUSH3 0x4E1 SWAP6 SWAP5 SWAP4 SWAP3 SWAP2 SWAP1 PUSH3 0x1957 JUMP JUMPDEST PUSH1 0x40 MLOAD DUP1 SWAP2 SUB SWAP1 PUSH1 0x0 CREATE DUP1 ISZERO DUP1 ISZERO PUSH3 0x4FE JUMPI RETURNDATASIZE PUSH1 0x0 DUP1 RETURNDATACOPY RETURNDATASIZE PUSH1 0x0 REVERT JUMPDEST POP CALLER PUSH1 0x0 SWAP1 DUP2 MSTORE PUSH1 0x3 PUSH1 0x20 SWAP1 DUP2 MSTORE PUSH1 0x40 DUP1 DUP4 KECCAK256 DUP1 SLOAD PUSH1 0xFF NOT AND PUSH1 0x1 OR SWAP1 SSTORE SWAP1 DUP3 SWAP1 MSTORE SWAP1 KECCAK256 DUP1 SLOAD PUSH1 0x1 PUSH1 0x1 PUSH1 0xA0 SHL SUB SWAP1 SWAP3 AND PUSH1 0x1 PUSH1 0x1 PUSH1 0xA0 SHL SUB NOT SWAP1 SWAP3 AND SWAP2 SWAP1 SWAP2 OR SWAP1 SSTORE POP POP POP POP POP JUMP JUMPDEST CALLER PUSH1 0x0 SWAP1 DUP2 MSTORE PUSH1 0x3 PUSH1 0x20 MSTORE PUSH1 0x40 SWAP1 KECCAK256 SLOAD PUSH1 0xFF AND PUSH3 0x57A JUMPI PUSH1 0x40 MLOAD PUSH3 0x461BCD PUSH1 0xE5 SHL DUP2 MSTORE PUSH1 0x4 ADD PUSH3 0x39E SWAP1 PUSH3 0x1B95 JUMP JUMPDEST PUSH1 0x1 PUSH1 0x1 PUSH1 0xA0 SHL SUB DUP1 DUP4 AND PUSH1 0x0 SWAP1 DUP2 MSTORE PUSH1 0x1 PUSH1 0x20 SWAP1 DUP2 MSTORE PUSH1 0x40 DUP1 DUP4 KECCAK256 DUP6 DUP5 MSTORE DUP3 MSTORE SWAP2 DUP3 SWAP1 KECCAK256 SLOAD DUP3 MLOAD PUSH4 0xC65E9C79 PUSH1 0xE0 SHL DUP2 MSTORE SWAP3 MLOAD SWAP4 AND SWAP3 PUSH4 0xC65E9C79 SWAP3 PUSH1 0x4 DUP1 DUP3 ADD SWAP4 SWAP3 SWAP2 DUP3 SWAP1 SUB ADD DUP2 DUP7 DUP1 EXTCODESIZE ISZERO DUP1 ISZERO PUSH3 0x5D4 JUMPI PUSH1 0x0 DUP1 REVERT JUMPDEST POP GAS STATICCALL ISZERO DUP1 ISZERO PUSH3 0x5E9 JUMPI RETURNDATASIZE PUSH1 0x0 DUP1 RETURNDATACOPY RETURNDATASIZE PUSH1 0x0 REVERT JUMPDEST POP POP POP POP PUSH1 0x40 MLOAD RETURNDATASIZE PUSH1 0x1F NOT PUSH1 0x1F DUP3 ADD AND DUP3 ADD DUP1 PUSH1 0x40 MSTORE POP DUP2 ADD SWAP1 PUSH3 0x60F SWAP2 SWAP1 PUSH3 0x1841 JUMP JUMPDEST CALLVALUE LT ISZERO PUSH3 0x654 JUMPI PUSH1 0x40 MLOAD PUSH3 0x461BCD PUSH1 0xE5 SHL DUP2 MSTORE PUSH1 0x20 PUSH1 0x4 DUP3 ADD MSTORE PUSH1 0x11 PUSH1 0x24 DUP3 ADD MSTORE PUSH17 0x135BDB9D185B9D081A5B98DBDC9C9958DD PUSH1 0x7A SHL PUSH1 0x44 DUP3 ADD MSTORE PUSH1 0x64 ADD PUSH3 0x39E JUMP JUMPDEST PUSH1 0x1 PUSH1 0x1 PUSH1 0xA0 SHL SUB DUP1 DUP4 AND PUSH1 0x0 SWAP1 DUP2 MSTORE PUSH1 0x1 PUSH1 0x20 SWAP1 DUP2 MSTORE PUSH1 0x40 DUP1 DUP4 KECCAK256 DUP6 DUP5 MSTORE DUP3 MSTORE DUP1 DUP4 KECCAK256 SLOAD CALLER DUP5 MSTORE PUSH1 0x2 DUP4 MSTORE DUP2 DUP5 KECCAK256 DUP5 DUP5 MSTORE DUP3 DUP6 KECCAK256 SLOAD DUP4 MLOAD PUSH4 0x44085A65 PUSH1 0xE0 SHL DUP2 MSTORE SWAP4 MLOAD SWAP3 DUP8 AND SWAP7 SWAP2 SWAP6 SWAP5 SWAP2 AND SWAP3 PUSH4 0x44085A65 SWAP3 PUSH1 0x4 DUP1 DUP4 ADD SWAP4 SWAP3 DUP3 SWAP1 SUB ADD DUP2 DUP8 DUP8 DUP1 EXTCODESIZE ISZERO DUP1 ISZERO PUSH3 0x6C5 JUMPI PUSH1 0x0 DUP1 REVERT JUMPDEST POP GAS CALL ISZERO DUP1 ISZERO PUSH3 0x6DA JUMPI RETURNDATASIZE PUSH1 0x0 DUP1 RETURNDATACOPY RETURNDATASIZE PUSH1 0x0 REVERT JUMPDEST POP POP POP POP PUSH1 0x40 MLOAD RETURNDATASIZE PUSH1 0x1F NOT PUSH1 0x1F DUP3 ADD AND DUP3 ADD DUP1 PUSH1 0x40 MSTORE POP DUP2 ADD SWAP1 PUSH3 0x700 SWAP2 SWAP1 PUSH3 0x1841 JUMP JUMPDEST DUP2 MSTORE PUSH1 0x20 DUP2 ADD SWAP2 SWAP1 SWAP2 MSTORE PUSH1 0x40 SWAP1 DUP2 ADD PUSH1 0x0 SWAP1 DUP2 KECCAK256 DUP1 SLOAD PUSH1 0x1 PUSH1 0x1 PUSH1 0xA0 SHL SUB SWAP5 DUP6 AND PUSH1 0x1 PUSH1 0x1 PUSH1 0xA0 SHL SUB NOT SWAP1 SWAP2 AND OR SWAP1 SSTORE SWAP1 MLOAD SWAP2 DUP5 AND SWAP2 CALLVALUE DUP1 ISZERO PUSH2 0x8FC MUL SWAP3 SWAP1 SWAP2 SWAP1 DUP2 DUP2 DUP2 DUP6 DUP9 DUP9 CALL SWAP4 POP POP POP POP ISZERO DUP1 ISZERO PUSH3 0x75F JUMPI RETURNDATASIZE PUSH1 0x0 DUP1 RETURNDATACOPY RETURNDATASIZE PUSH1 0x0 REVERT JUMPDEST POP PUSH1 0x1 PUSH1 0x1 PUSH1 0xA0 SHL SUB DUP3 DUP2 AND PUSH1 0x0 SWAP1 DUP2 MSTORE PUSH1 0x1 PUSH1 0x20 SWAP1 DUP2 MSTORE PUSH1 0x40 DUP1 DUP4 KECCAK256 DUP6 DUP5 MSTORE SWAP1 SWAP2 MSTORE SWAP1 DUP2 SWAP1 KECCAK256 SLOAD SWAP1 MLOAD PUSH4 0x12875D19 PUSH1 0xE1 SHL DUP2 MSTORE CALLER PUSH1 0x4 DUP3 ADD MSTORE SWAP2 AND SWAP1 PUSH4 0x250EBA32 SWAP1 PUSH1 0x24 ADD PUSH1 0x0 PUSH1 0x40 MLOAD DUP1 DUP4 SUB DUP2 PUSH1 0x0 DUP8 DUP1 EXTCODESIZE ISZERO DUP1 ISZERO PUSH3 0x7C0 JUMPI PUSH1 0x0 DUP1 REVERT JUMPDEST POP GAS CALL ISZERO DUP1 ISZERO PUSH3 0x7D5 JUMPI RETURNDATASIZE PUSH1 0x0 DUP1 RETURNDATACOPY RETURNDATASIZE PUSH1 0x0 REVERT JUMPDEST POP POP PUSH1 0x40 DUP1 MLOAD CALLER DUP2 MSTORE PUSH1 0x20 DUP2 ADD DUP6 SWAP1 MSTORE PUSH32 0x460C7CB03FBB4BC8DAEB2450324799E6F732962382B87C612344B688A05596E6 SWAP4 POP ADD SWAP1 POP PUSH1 0x40 MLOAD DUP1 SWAP2 SUB SWAP1 LOG1 POP POP JUMP JUMPDEST PUSH1 0x4 PUSH1 0x20 SWAP1 DUP2 MSTORE PUSH1 0x0 SWAP4 DUP5 MSTORE PUSH1 0x40 DUP1 DUP6 KECCAK256 DUP3 MSTORE SWAP3 DUP5 MSTORE DUP3 DUP5 KECCAK256 SWAP1 MSTORE DUP3 MSTORE SWAP1 KECCAK256 DUP1 SLOAD PUSH3 0x843 SWAP1 PUSH3 0x1BF1 JUMP JUMPDEST DUP1 PUSH1 0x1F ADD PUSH1 0x20 DUP1 SWAP2 DIV MUL PUSH1 0x20 ADD PUSH1 0x40 MLOAD SWAP1 DUP2 ADD PUSH1 0x40 MSTORE DUP1 SWAP3 SWAP2 SWAP1 DUP2 DUP2 MSTORE PUSH1 0x20 ADD DUP3 DUP1 SLOAD PUSH3 0x871 SWAP1 PUSH3 0x1BF1 JUMP JUMPDEST DUP1 ISZERO PUSH3 0x8C2 JUMPI DUP1 PUSH1 0x1F LT PUSH3 0x896 JUMPI PUSH2 0x100 DUP1 DUP4 SLOAD DIV MUL DUP4 MSTORE SWAP2 PUSH1 0x20 ADD SWAP2 PUSH3 0x8C2 JUMP JUMPDEST DUP3 ADD SWAP2 SWAP1 PUSH1 0x0 MSTORE PUSH1 0x20 PUSH1 0x0 KECCAK256 SWAP1 JUMPDEST DUP2 SLOAD DUP2 MSTORE SWAP1 PUSH1 0x1 ADD SWAP1 PUSH1 0x20 ADD DUP1 DUP4 GT PUSH3 0x8A4 JUMPI DUP3 SWAP1 SUB PUSH1 0x1F AND DUP3 ADD SWAP2 JUMPDEST POP POP POP POP POP DUP2 JUMP JUMPDEST CALLER PUSH1 0x0 SWAP1 DUP2 MSTORE PUSH1 0x3 PUSH1 0x20 MSTORE PUSH1 0x40 SWAP1 KECCAK256 SLOAD PUSH1 0xFF AND PUSH3 0x8FC JUMPI PUSH1 0x40 MLOAD PUSH3 0x461BCD PUSH1 0xE5 SHL DUP2 MSTORE PUSH1 0x4 ADD PUSH3 0x39E SWAP1 PUSH3 0x1B95 JUMP JUMPDEST CALLER PUSH1 0x1 PUSH1 0x1 PUSH1 0xA0 SHL SUB DUP4 AND EQ ISZERO PUSH3 0x972 JUMPI PUSH1 0x40 MLOAD PUSH3 0x461BCD PUSH1 0xE5 SHL DUP2 MSTORE PUSH1 0x20 PUSH1 0x4 DUP3 ADD MSTORE PUSH1 0x32 PUSH1 0x24 DUP3 ADD MSTORE PUSH32 0x566F7573206E6520706F7576657A2070617320656E766F796572206465206D65 PUSH1 0x44 DUP3 ADD MSTORE PUSH18 0x737361676573206120766F7573206D656D65 PUSH1 0x70 SHL PUSH1 0x64 DUP3 ADD MSTORE PUSH1 0x84 ADD PUSH3 0x39E JUMP JUMPDEST CALLER PUSH1 0x0 SWAP1 DUP2 MSTORE PUSH1 0x3 PUSH1 0x20 MSTORE PUSH1 0x40 SWAP1 KECCAK256 SLOAD PUSH1 0xFF AND PUSH3 0x9D3 JUMPI PUSH1 0x40 MLOAD PUSH3 0x461BCD PUSH1 0xE5 SHL DUP2 MSTORE PUSH1 0x20 PUSH1 0x4 DUP3 ADD MSTORE PUSH1 0x1A PUSH1 0x24 DUP3 ADD MSTORE PUSH32 0x5574696C69736174657572206E6F6E20656E7265676973747265000000000000 PUSH1 0x44 DUP3 ADD MSTORE PUSH1 0x64 ADD PUSH3 0x39E JUMP JUMPDEST CALLER PUSH1 0x0 SWAP1 DUP2 MSTORE PUSH1 0x20 DUP2 DUP2 MSTORE PUSH1 0x40 DUP1 DUP4 KECCAK256 SLOAD DUP2 MLOAD PUSH4 0x1190F1E7 PUSH1 0xE3 SHL DUP2 MSTORE SWAP2 MLOAD PUSH1 0x1 PUSH1 0x1 PUSH1 0xA0 SHL SUB SWAP1 SWAP2 AND SWAP4 PUSH1 0x6 SWAP4 SWAP1 SWAP3 DUP6 SWAP3 PUSH4 0x8C878F38 SWAP3 PUSH1 0x4 DUP1 DUP5 ADD SWAP4 SWAP2 SWAP3 SWAP2 DUP3 SWAP1 SUB ADD DUP2 DUP7 DUP1 EXTCODESIZE ISZERO DUP1 ISZERO PUSH3 0xA29 JUMPI PUSH1 0x0 DUP1 REVERT JUMPDEST POP GAS STATICCALL ISZERO DUP1 ISZERO PUSH3 0xA3E JUMPI RETURNDATASIZE PUSH1 0x0 DUP1 RETURNDATACOPY RETURNDATASIZE PUSH1 0x0 REVERT JUMPDEST POP POP POP POP PUSH1 0x40 MLOAD RETURNDATASIZE PUSH1 0x1F NOT PUSH1 0x1F DUP3 ADD AND DUP3 ADD DUP1 PUSH1 0x40 MSTORE POP DUP2 ADD SWAP1 PUSH3 0xA64 SWAP2 SWAP1 PUSH3 0x1536 JUMP JUMPDEST PUSH1 0x1 PUSH1 0x1 PUSH1 0xA0 SHL SUB SWAP1 DUP2 AND DUP3 MSTORE PUSH1 0x20 DUP1 DUP4 ADD SWAP4 SWAP1 SWAP4 MSTORE PUSH1 0x40 SWAP2 DUP3 ADD PUSH1 0x0 SWAP1 DUP2 KECCAK256 SWAP2 DUP8 AND DUP2 MSTORE SWAP3 MSTORE SWAP1 KECCAK256 SLOAD PUSH3 0xA9B SWAP1 PUSH1 0x1 PUSH3 0x1BCC JUMP JUMPDEST PUSH1 0x6 PUSH1 0x0 DUP4 PUSH1 0x1 PUSH1 0x1 PUSH1 0xA0 SHL SUB AND PUSH4 0x8C878F38 PUSH1 0x40 MLOAD DUP2 PUSH4 0xFFFFFFFF AND PUSH1 0xE0 SHL DUP2 MSTORE PUSH1 0x4 ADD PUSH1 0x20 PUSH1 0x40 MLOAD DUP1 DUP4 SUB DUP2 DUP7 DUP1 EXTCODESIZE ISZERO DUP1 ISZERO PUSH3 0xAD9 JUMPI PUSH1 0x0 DUP1 REVERT JUMPDEST POP GAS STATICCALL ISZERO DUP1 ISZERO PUSH3 0xAEE JUMPI RETURNDATASIZE PUSH1 0x0 DUP1 RETURNDATACOPY RETURNDATASIZE PUSH1 0x0 REVERT JUMPDEST POP POP POP POP PUSH1 0x40 MLOAD RETURNDATASIZE PUSH1 0x1F NOT PUSH1 0x1F DUP3 ADD AND DUP3 ADD DUP1 PUSH1 0x40 MSTORE POP DUP2 ADD SWAP1 PUSH3 0xB14 SWAP2 SWAP1 PUSH3 0x1536 JUMP JUMPDEST PUSH1 0x1 PUSH1 0x1 PUSH1 0xA0 SHL SUB AND PUSH1 0x1 PUSH1 0x1 PUSH1 0xA0 SHL SUB AND DUP2 MSTORE PUSH1 0x20 ADD SWAP1 DUP2 MSTORE PUSH1 0x20 ADD PUSH1 0x0 KECCAK256 PUSH1 0x0 DUP6 PUSH1 0x1 PUSH1 0x1 PUSH1 0xA0 SHL SUB AND PUSH1 0x1 PUSH1 0x1 PUSH1 0xA0 SHL SUB AND DUP2 MSTORE PUSH1 0x20 ADD SWAP1 DUP2 MSTORE PUSH1 0x20 ADD PUSH1 0x0 KECCAK256 DUP2 SWAP1 SSTORE POP DUP2 PUSH1 0x4 PUSH1 0x0 DUP4 PUSH1 0x1 PUSH1 0x1 PUSH1 0xA0 SHL SUB AND PUSH4 0x8C878F38 PUSH1 0x40 MLOAD DUP2 PUSH4 0xFFFFFFFF AND PUSH1 0xE0 SHL DUP2 MSTORE PUSH1 0x4 ADD PUSH1 0x20 PUSH1 0x40 MLOAD DUP1 DUP4 SUB DUP2 DUP7 DUP1 EXTCODESIZE ISZERO DUP1 ISZERO PUSH3 0xB9A JUMPI PUSH1 0x0 DUP1 REVERT JUMPDEST POP GAS STATICCALL ISZERO DUP1 ISZERO PUSH3 0xBAF JUMPI RETURNDATASIZE PUSH1 0x0 DUP1 RETURNDATACOPY RETURNDATASIZE PUSH1 0x0 REVERT JUMPDEST POP POP POP POP PUSH1 0x40 MLOAD RETURNDATASIZE PUSH1 0x1F NOT PUSH1 0x1F DUP3 ADD AND DUP3 ADD DUP1 PUSH1 0x40 MSTORE POP DUP2 ADD SWAP1 PUSH3 0xBD5 SWAP2 SWAP1 PUSH3 0x1536 JUMP JUMPDEST PUSH1 0x1 PUSH1 0x1 PUSH1 0xA0 SHL SUB AND PUSH1 0x1 PUSH1 0x1 PUSH1 0xA0 SHL SUB AND DUP2 MSTORE PUSH1 0x20 ADD SWAP1 DUP2 MSTORE PUSH1 0x20 ADD PUSH1 0x0 KECCAK256 PUSH1 0x0 DUP6 PUSH1 0x1 PUSH1 0x1 PUSH1 0xA0 SHL SUB AND PUSH1 0x1 PUSH1 0x1 PUSH1 0xA0 SHL SUB AND DUP2 MSTORE PUSH1 0x20 ADD SWAP1 DUP2 MSTORE PUSH1 0x20 ADD PUSH1 0x0 KECCAK256 PUSH1 0x0 PUSH1 0x6 PUSH1 0x0 DUP6 PUSH1 0x1 PUSH1 0x1 PUSH1 0xA0 SHL SUB AND PUSH4 0x8C878F38 PUSH1 0x40 MLOAD DUP2 PUSH4 0xFFFFFFFF AND PUSH1 0xE0 SHL DUP2 MSTORE PUSH1 0x4 ADD PUSH1 0x20 PUSH1 0x40 MLOAD DUP1 DUP4 SUB DUP2 DUP7 DUP1 EXTCODESIZE ISZERO DUP1 ISZERO PUSH3 0xC58 JUMPI PUSH1 0x0 DUP1 REVERT JUMPDEST POP GAS STATICCALL ISZERO DUP1 ISZERO PUSH3 0xC6D JUMPI RETURNDATASIZE PUSH1 0x0 DUP1 RETURNDATACOPY RETURNDATASIZE PUSH1 0x0 REVERT JUMPDEST POP POP POP POP PUSH1 0x40 MLOAD RETURNDATASIZE PUSH1 0x1F NOT PUSH1 0x1F DUP3 ADD AND DUP3 ADD DUP1 PUSH1 0x40 MSTORE POP DUP2 ADD SWAP1 PUSH3 0xC93 SWAP2 SWAP1 PUSH3 0x1536 JUMP JUMPDEST PUSH1 0x1 PUSH1 0x1 PUSH1 0xA0 SHL SUB AND PUSH1 0x1 PUSH1 0x1 PUSH1 0xA0 SHL SUB AND DUP2 MSTORE PUSH1 0x20 ADD SWAP1 DUP2 MSTORE PUSH1 0x20 ADD PUSH1 0x0 KECCAK256 PUSH1 0x0 DUP8 PUSH1 0x1 PUSH1 0x1 PUSH1 0xA0 SHL SUB AND PUSH1 0x1 PUSH1 0x1 PUSH1 0xA0 SHL SUB AND DUP2 MSTORE PUSH1 0x20 ADD SWAP1 DUP2 MSTORE PUSH1 0x20 ADD PUSH1 0x0 KECCAK256 SLOAD DUP2 MSTORE PUSH1 0x20 ADD SWAP1 DUP2 MSTORE PUSH1 0x20 ADD PUSH1 0x0 KECCAK256 SWAP1 DUP1 MLOAD SWAP1 PUSH1 0x20 ADD SWAP1 PUSH3 0xCFA SWAP3 SWAP2 SWAP1 PUSH3 0x13CD JUMP JUMPDEST POP PUSH1 0x7 PUSH1 0x0 DUP5 PUSH1 0x1 PUSH1 0x1 PUSH1 0xA0 SHL SUB AND PUSH1 0x1 PUSH1 0x1 PUSH1 0xA0 SHL SUB AND DUP2 MSTORE PUSH1 0x20 ADD SWAP1 DUP2 MSTORE PUSH1 0x20 ADD PUSH1 0x0 KECCAK256 PUSH1 0x0 DUP3 PUSH1 0x1 PUSH1 0x1 PUSH1 0xA0 SHL SUB AND PUSH4 0x8C878F38 PUSH1 0x40 MLOAD DUP2 PUSH4 0xFFFFFFFF AND PUSH1 0xE0 SHL DUP2 MSTORE PUSH1 0x4 ADD PUSH1 0x20 PUSH1 0x40 MLOAD DUP1 DUP4 SUB DUP2 DUP7 DUP1 EXTCODESIZE ISZERO DUP1 ISZERO PUSH3 0xD5C JUMPI PUSH1 0x0 DUP1 REVERT JUMPDEST POP GAS STATICCALL ISZERO DUP1 ISZERO PUSH3 0xD71 JUMPI RETURNDATASIZE PUSH1 0x0 DUP1 RETURNDATACOPY RETURNDATASIZE PUSH1 0x0 REVERT JUMPDEST POP POP POP POP PUSH1 0x40 MLOAD RETURNDATASIZE PUSH1 0x1F NOT PUSH1 0x1F DUP3 ADD AND DUP3 ADD DUP1 PUSH1 0x40 MSTORE POP DUP2 ADD SWAP1 PUSH3 0xD97 SWAP2 SWAP1 PUSH3 0x1536 JUMP JUMPDEST PUSH1 0x1 PUSH1 0x1 PUSH1 0xA0 SHL SUB AND DUP2 MSTORE PUSH1 0x20 DUP2 ADD SWAP2 SWAP1 SWAP2 MSTORE PUSH1 0x40 ADD PUSH1 0x0 KECCAK256 SLOAD PUSH3 0xDBE SWAP1 PUSH1 0x1 PUSH3 0x1BCC JUMP JUMPDEST PUSH1 0x7 PUSH1 0x0 DUP6 PUSH1 0x1 PUSH1 0x1 PUSH1 0xA0 SHL SUB AND PUSH1 0x1 PUSH1 0x1 PUSH1 0xA0 SHL SUB AND DUP2 MSTORE PUSH1 0x20 ADD SWAP1 DUP2 MSTORE PUSH1 0x20 ADD PUSH1 0x0 KECCAK256 PUSH1 0x0 DUP4 PUSH1 0x1 PUSH1 0x1 PUSH1 0xA0 SHL SUB AND PUSH4 0x8C878F38 PUSH1 0x40 MLOAD DUP2 PUSH4 0xFFFFFFFF AND PUSH1 0xE0 SHL DUP2 MSTORE PUSH1 0x4 ADD PUSH1 0x20 PUSH1 0x40 MLOAD DUP1 DUP4 SUB DUP2 DUP7 DUP1 EXTCODESIZE ISZERO DUP1 ISZERO PUSH3 0xE1F JUMPI PUSH1 0x0 DUP1 REVERT JUMPDEST POP GAS STATICCALL ISZERO DUP1 ISZERO PUSH3 0xE34 JUMPI RETURNDATASIZE PUSH1 0x0 DUP1 RETURNDATACOPY RETURNDATASIZE PUSH1 0x0 REVERT JUMPDEST POP POP POP POP PUSH1 0x40 MLOAD RETURNDATASIZE PUSH1 0x1F NOT PUSH1 0x1F DUP3 ADD AND DUP3 ADD DUP1 PUSH1 0x40 MSTORE POP DUP2 ADD SWAP1 PUSH3 0xE5A SWAP2 SWAP1 PUSH3 0x1536 JUMP JUMPDEST PUSH1 0x1 PUSH1 0x1 PUSH1 0xA0 SHL SUB AND PUSH1 0x1 PUSH1 0x1 PUSH1 0xA0 SHL SUB AND DUP2 MSTORE PUSH1 0x20 ADD SWAP1 DUP2 MSTORE PUSH1 0x20 ADD PUSH1 0x0 KECCAK256 DUP2 SWAP1 SSTORE POP DUP2 PUSH1 0x5 PUSH1 0x0 DUP6 PUSH1 0x1 PUSH1 0x1 PUSH1 0xA0 SHL SUB AND PUSH1 0x1 PUSH1 0x1 PUSH1 0xA0 SHL SUB AND DUP2 MSTORE PUSH1 0x20 ADD SWAP1 DUP2 MSTORE PUSH1 0x20 ADD PUSH1 0x0 KECCAK256 PUSH1 0x0 DUP4 PUSH1 0x1 PUSH1 0x1 PUSH1 0xA0 SHL SUB AND PUSH4 0x8C878F38 PUSH1 0x40 MLOAD DUP2 PUSH4 0xFFFFFFFF AND PUSH1 0xE0 SHL DUP2 MSTORE PUSH1 0x4 ADD PUSH1 0x20 PUSH1 0x40 MLOAD DUP1 DUP4 SUB DUP2 DUP7 DUP1 EXTCODESIZE ISZERO DUP1 ISZERO PUSH3 0xEE0 JUMPI PUSH1 0x0 DUP1 REVERT JUMPDEST POP GAS STATICCALL ISZERO DUP1 ISZERO PUSH3 0xEF5 JUMPI RETURNDATASIZE PUSH1 0x0 DUP1 RETURNDATACOPY RETURNDATASIZE PUSH1 0x0 REVERT JUMPDEST POP POP POP POP PUSH1 0x40 MLOAD RETURNDATASIZE PUSH1 0x1F NOT PUSH1 0x1F DUP3 ADD AND DUP3 ADD DUP1 PUSH1 0x40 MSTORE POP DUP2 ADD SWAP1 PUSH3 0xF1B SWAP2 SWAP1 PUSH3 0x1536 JUMP JUMPDEST PUSH1 0x1 PUSH1 0x1 PUSH1 0xA0 SHL SUB AND PUSH1 0x1 PUSH1 0x1 PUSH1 0xA0 SHL SUB AND DUP2 MSTORE PUSH1 0x20 ADD SWAP1 DUP2 MSTORE PUSH1 0x20 ADD PUSH1 0x0 KECCAK256 PUSH1 0x0 PUSH1 0x7 PUSH1 0x0 DUP8 PUSH1 0x1 PUSH1 0x1 PUSH1 0xA0 SHL SUB AND PUSH1 0x1 PUSH1 0x1 PUSH1 0xA0 SHL SUB AND DUP2 MSTORE PUSH1 0x20 ADD SWAP1 DUP2 MSTORE PUSH1 0x20 ADD PUSH1 0x0 KECCAK256 PUSH1 0x0 DUP6 PUSH1 0x1 PUSH1 0x1 PUSH1 0xA0 SHL SUB AND PUSH4 0x8C878F38 PUSH1 0x40 MLOAD DUP2 PUSH4 0xFFFFFFFF AND PUSH1 0xE0 SHL DUP2 MSTORE PUSH1 0x4 ADD PUSH1 0x20 PUSH1 0x40 MLOAD DUP1 DUP4 SUB DUP2 DUP7 DUP1 EXTCODESIZE ISZERO DUP1 ISZERO PUSH3 0xF9E JUMPI PUSH1 0x0 DUP1 REVERT JUMPDEST POP GAS STATICCALL ISZERO DUP1 ISZERO PUSH3 0xFB3 JUMPI RETURNDATASIZE PUSH1 0x0 DUP1 RETURNDATACOPY RETURNDATASIZE PUSH1 0x0 REVERT JUMPDEST POP POP POP POP PUSH1 0x40 MLOAD RETURNDATASIZE PUSH1 0x1F NOT PUSH1 0x1F DUP3 ADD AND DUP3 ADD DUP1 PUSH1 0x40 MSTORE POP DUP2 ADD SWAP1 PUSH3 0xFD9 SWAP2 SWAP1 PUSH3 0x1536 JUMP JUMPDEST PUSH1 0x1 PUSH1 0x1 PUSH1 0xA0 SHL SUB AND PUSH1 0x1 PUSH1 0x1 PUSH1 0xA0 SHL SUB AND DUP2 MSTORE PUSH1 0x20 ADD SWAP1 DUP2 MSTORE PUSH1 0x20 ADD PUSH1 0x0 KECCAK256 SLOAD DUP2 MSTORE PUSH1 0x20 ADD SWAP1 DUP2 MSTORE PUSH1 0x20 ADD PUSH1 0x0 KECCAK256 SWAP1 DUP1 MLOAD SWAP1 PUSH1 0x20 ADD SWAP1 PUSH3 0x101D SWAP3 SWAP2 SWAP1 PUSH3 0x13CD JUMP JUMPDEST POP POP POP POP JUMP JUMPDEST PUSH1 0x5 PUSH1 0x20 SWAP1 DUP2 MSTORE PUSH1 0x0 SWAP4 DUP5 MSTORE PUSH1 0x40 DUP1 DUP6 KECCAK256 DUP3 MSTORE SWAP3 DUP5 MSTORE DUP3 DUP5 KECCAK256 SWAP1 MSTORE DUP3 MSTORE SWAP1 KECCAK256 DUP1 SLOAD PUSH3 0x843 SWAP1 PUSH3 0x1BF1 JUMP JUMPDEST CALLER PUSH1 0x0 SWAP1 DUP2 MSTORE PUSH1 0x3 PUSH1 0x20 MSTORE PUSH1 0x40 SWAP1 KECCAK256 SLOAD PUSH1 0xFF AND PUSH3 0x1081 JUMPI PUSH1 0x40 MLOAD PUSH3 0x461BCD PUSH1 0xE5 SHL DUP2 MSTORE PUSH1 0x4 ADD PUSH3 0x39E SWAP1 PUSH3 0x1B95 JUMP JUMPDEST PUSH1 0x0 DUP6 GT PUSH3 0x10D3 JUMPI PUSH1 0x40 MLOAD PUSH3 0x461BCD PUSH1 0xE5 SHL DUP2 MSTORE PUSH1 0x20 PUSH1 0x4 DUP3 ADD MSTORE PUSH1 0x1F PUSH1 0x24 DUP3 ADD MSTORE PUSH32 0x4C65207072697820646F69742065747265207375706572696575722061203000 PUSH1 0x44 DUP3 ADD MSTORE PUSH1 0x64 ADD PUSH3 0x39E JUMP JUMPDEST CALLER PUSH1 0x0 SWAP1 DUP2 MSTORE PUSH1 0x20 DUP2 SWAP1 MSTORE PUSH1 0x40 DUP1 DUP3 KECCAK256 SLOAD SWAP1 MLOAD PUSH1 0x1 PUSH1 0x1 PUSH1 0xA0 SHL SUB SWAP1 SWAP2 AND SWAP1 DUP11 SWAP1 DUP11 SWAP1 DUP11 SWAP1 DUP11 SWAP1 DUP11 SWAP1 DUP11 SWAP1 DUP11 SWAP1 DUP11 SWAP1 PUSH3 0x110D SWAP1 PUSH3 0x145C JUMP JUMPDEST PUSH3 0x1121 SWAP10 SWAP9 SWAP8 SWAP7 SWAP6 SWAP5 SWAP4 SWAP3 SWAP2 SWAP1 PUSH3 0x19C9 JUMP JUMPDEST PUSH1 0x40 MLOAD DUP1 SWAP2 SUB SWAP1 PUSH1 0x0 CREATE DUP1 ISZERO DUP1 ISZERO PUSH3 0x113E JUMPI RETURNDATASIZE PUSH1 0x0 DUP1 RETURNDATACOPY RETURNDATASIZE PUSH1 0x0 REVERT JUMPDEST POP CALLER PUSH1 0x0 SWAP1 DUP2 MSTORE PUSH1 0x1 PUSH1 0x20 SWAP1 DUP2 MSTORE PUSH1 0x40 DUP1 DUP4 KECCAK256 DUP4 DUP4 MSTORE DUP2 DUP5 KECCAK256 SLOAD DUP3 MLOAD PUSH4 0x643725FD PUSH1 0xE1 SHL DUP2 MSTORE SWAP3 MLOAD SWAP6 SWAP7 POP DUP7 SWAP6 SWAP2 SWAP5 SWAP4 PUSH1 0x1 PUSH1 0x1 PUSH1 0xA0 SHL SUB SWAP1 SWAP2 AND SWAP3 PUSH4 0xC86E4BFA SWAP3 PUSH1 0x4 DUP1 DUP4 ADD SWAP4 SWAP3 DUP3 SWAP1 SUB ADD DUP2 DUP7 DUP1 EXTCODESIZE ISZERO DUP1 ISZERO PUSH3 0x119C JUMPI PUSH1 0x0 DUP1 REVERT JUMPDEST POP GAS STATICCALL ISZERO DUP1 ISZERO PUSH3 0x11B1 JUMPI RETURNDATASIZE PUSH1 0x0 DUP1 RETURNDATACOPY RETURNDATASIZE PUSH1 0x0 REVERT JUMPDEST POP POP POP POP PUSH1 0x40 MLOAD RETURNDATASIZE PUSH1 0x1F NOT PUSH1 0x1F DUP3 ADD AND DUP3 ADD DUP1 PUSH1 0x40 MSTORE POP DUP2 ADD SWAP1 PUSH3 0x11D7 SWAP2 SWAP1 PUSH3 0x1841 JUMP JUMPDEST DUP2 MSTORE PUSH1 0x20 DUP1 DUP3 ADD SWAP3 SWAP1 SWAP3 MSTORE PUSH1 0x40 SWAP1 DUP2 ADD PUSH1 0x0 SWAP1 DUP2 KECCAK256 DUP1 SLOAD PUSH1 0x1 PUSH1 0x1 PUSH1 0xA0 SHL SUB NOT AND PUSH1 0x1 PUSH1 0x1 PUSH1 0xA0 SHL SUB SWAP6 DUP7 AND OR SWAP1 SSTORE CALLER DUP2 MSTORE DUP1 DUP4 MSTORE DUP2 SWAP1 KECCAK256 SLOAD DUP2 MLOAD PUSH4 0x643725FD PUSH1 0xE1 SHL DUP2 MSTORE SWAP2 MLOAD SWAP4 AND SWAP3 PUSH4 0xA985B0D6 SWAP3 DUP5 SWAP3 PUSH4 0xC86E4BFA SWAP3 PUSH1 0x4 DUP1 DUP4 ADD SWAP4 SWAP3 DUP3 SWAP1 SUB ADD DUP2 DUP7 DUP1 EXTCODESIZE ISZERO DUP1 ISZERO PUSH3 0x124B JUMPI PUSH1 0x0 DUP1 REVERT JUMPDEST POP GAS STATICCALL ISZERO DUP1 ISZERO PUSH3 0x1260 JUMPI RETURNDATASIZE PUSH1 0x0 DUP1 RETURNDATACOPY RETURNDATASIZE PUSH1 0x0 REVERT JUMPDEST POP POP POP POP PUSH1 0x40 MLOAD RETURNDATASIZE PUSH1 0x1F NOT PUSH1 0x1F DUP3 ADD AND DUP3 ADD DUP1 PUSH1 0x40 MSTORE POP DUP2 ADD SWAP1 PUSH3 0x1286 SWAP2 SWAP1 PUSH3 0x1841 JUMP JUMPDEST PUSH3 0x1293 SWAP1 PUSH1 0x1 PUSH3 0x1BCC JUMP JUMPDEST PUSH1 0x40 MLOAD DUP3 PUSH4 0xFFFFFFFF AND PUSH1 0xE0 SHL DUP2 MSTORE PUSH1 0x4 ADD PUSH3 0x12B2 SWAP2 DUP2 MSTORE PUSH1 0x20 ADD SWAP1 JUMP JUMPDEST PUSH1 0x0 PUSH1 0x40 MLOAD DUP1 DUP4 SUB DUP2 PUSH1 0x0 DUP8 DUP1 EXTCODESIZE ISZERO DUP1 ISZERO PUSH3 0x12CD JUMPI PUSH1 0x0 DUP1 REVERT JUMPDEST POP GAS CALL ISZERO DUP1 ISZERO PUSH3 0x12E2 JUMPI RETURNDATASIZE PUSH1 0x0 DUP1 RETURNDATACOPY RETURNDATASIZE PUSH1 0x0 REVERT JUMPDEST POP POP CALLER PUSH1 0x0 DUP2 DUP2 MSTORE PUSH1 0x20 DUP2 DUP2 MSTORE PUSH1 0x40 SWAP2 DUP3 SWAP1 KECCAK256 SLOAD DUP3 MLOAD PUSH4 0x643725FD PUSH1 0xE1 SHL DUP2 MSTORE SWAP3 MLOAD PUSH32 0x54CF872CD5AC23B9FEE4CAB22B7C3D72EF9B945168E38E1F85649DC2F8A73997 SWAP7 POP SWAP4 SWAP5 POP PUSH1 0x1 PUSH1 0x1 PUSH1 0xA0 SHL SUB AND SWAP3 PUSH4 0xC86E4BFA SWAP3 PUSH1 0x4 DUP1 DUP3 ADD SWAP4 SWAP3 SWAP2 DUP3 SWAP1 SUB ADD DUP2 DUP7 DUP1 EXTCODESIZE ISZERO DUP1 ISZERO PUSH3 0x1357 JUMPI PUSH1 0x0 DUP1 REVERT JUMPDEST POP GAS STATICCALL ISZERO DUP1 ISZERO PUSH3 0x136C JUMPI RETURNDATASIZE PUSH1 0x0 DUP1 RETURNDATACOPY RETURNDATASIZE PUSH1 0x0 REVERT JUMPDEST POP POP POP POP PUSH1 0x40 MLOAD RETURNDATASIZE PUSH1 0x1F NOT PUSH1 0x1F DUP3 ADD AND DUP3 ADD DUP1 PUSH1 0x40 MSTORE POP DUP2 ADD SWAP1 PUSH3 0x1392 SWAP2 SWAP1 PUSH3 0x1841 JUMP JUMPDEST PUSH1 0x40 DUP1 MLOAD PUSH1 0x1 PUSH1 0x1 PUSH1 0xA0 SHL SUB SWAP1 SWAP4 AND DUP4 MSTORE PUSH1 0x20 DUP4 ADD SWAP2 SWAP1 SWAP2 MSTORE ADD PUSH1 0x40 MLOAD DUP1 SWAP2 SUB SWAP1 LOG1 POP POP POP POP POP POP POP POP POP JUMP JUMPDEST PUSH2 0x10B3 DUP1 PUSH3 0x1C5E DUP4 CODECOPY ADD SWAP1 JUMP JUMPDEST DUP3 DUP1 SLOAD PUSH3 0x13DB SWAP1 PUSH3 0x1BF1 JUMP JUMPDEST SWAP1 PUSH1 0x0 MSTORE PUSH1 0x20 PUSH1 0x0 KECCAK256 SWAP1 PUSH1 0x1F ADD PUSH1 0x20 SWAP1 DIV DUP2 ADD SWAP3 DUP3 PUSH3 0x13FF JUMPI PUSH1 0x0 DUP6 SSTORE PUSH3 0x144A JUMP JUMPDEST DUP3 PUSH1 0x1F LT PUSH3 0x141A JUMPI DUP1 MLOAD PUSH1 0xFF NOT AND DUP4 DUP1 ADD OR DUP6 SSTORE PUSH3 0x144A JUMP JUMPDEST DUP3 DUP1 ADD PUSH1 0x1 ADD DUP6 SSTORE DUP3 ISZERO PUSH3 0x144A JUMPI SWAP2 DUP3 ADD JUMPDEST DUP3 DUP2 GT ISZERO PUSH3 0x144A JUMPI DUP3 MLOAD DUP3 SSTORE SWAP2 PUSH1 0x20 ADD SWAP2 SWAP1 PUSH1 0x1 ADD SWAP1 PUSH3 0x142D JUMP JUMPDEST POP PUSH3 0x1458 SWAP3 SWAP2 POP PUSH3 0x146A JUMP JUMPDEST POP SWAP1 JUMP JUMPDEST PUSH2 0x1A08 DUP1 PUSH3 0x2D11 DUP4 CODECOPY ADD SWAP1 JUMP JUMPDEST JUMPDEST DUP1 DUP3 GT ISZERO PUSH3 0x1458 JUMPI PUSH1 0x0 DUP2 SSTORE PUSH1 0x1 ADD PUSH3 0x146B JUMP JUMPDEST PUSH1 0x0 DUP3 PUSH1 0x1F DUP4 ADD SLT PUSH3 0x1492 JUMPI DUP1 DUP2 REVERT JUMPDEST DUP2 CALLDATALOAD PUSH8 0xFFFFFFFFFFFFFFFF DUP1 DUP3 GT ISZERO PUSH3 0x14B0 JUMPI PUSH3 0x14B0 PUSH3 0x1C2E JUMP JUMPDEST PUSH1 0x40 MLOAD PUSH1 0x1F DUP4 ADD PUSH1 0x1F NOT SWAP1 DUP2 AND PUSH1 0x3F ADD AND DUP2 ADD SWAP1 DUP3 DUP3 GT DUP2 DUP4 LT OR ISZERO PUSH3 0x14DB JUMPI PUSH3 0x14DB PUSH3 0x1C2E JUMP JUMPDEST DUP2 PUSH1 0x40 MSTORE DUP4 DUP2 MSTORE DUP7 PUSH1 0x20 DUP6 DUP9 ADD ADD GT ISZERO PUSH3 0x14F4 JUMPI DUP5 DUP6 REVERT JUMPDEST DUP4 PUSH1 0x20 DUP8 ADD PUSH1 0x20 DUP4 ADD CALLDATACOPY SWAP3 DUP4 ADD PUSH1 0x20 ADD SWAP4 SWAP1 SWAP4 MSTORE POP SWAP4 SWAP3 POP POP POP JUMP JUMPDEST PUSH1 0x0 PUSH1 0x20 DUP3 DUP5 SUB SLT ISZERO PUSH3 0x1522 JUMPI DUP1 DUP2 REVERT JUMPDEST DUP2 CALLDATALOAD PUSH3 0x152F DUP2 PUSH3 0x1C44 JUMP JUMPDEST SWAP4 SWAP3 POP POP POP JUMP JUMPDEST PUSH1 0x0 PUSH1 0x20 DUP3 DUP5 SUB SLT ISZERO PUSH3 0x1548 JUMPI DUP1 DUP2 REVERT JUMPDEST DUP2 MLOAD PUSH3 0x152F DUP2 PUSH3 0x1C44 JUMP JUMPDEST PUSH1 0x0 DUP1 PUSH1 0x40 DUP4 DUP6 SUB SLT ISZERO PUSH3 0x1568 JUMPI DUP1 DUP2 REVERT JUMPDEST DUP3 CALLDATALOAD PUSH3 0x1575 DUP2 PUSH3 0x1C44 JUMP JUMPDEST SWAP2 POP PUSH1 0x20 DUP4 ADD CALLDATALOAD PUSH3 0x1587 DUP2 PUSH3 0x1C44 JUMP JUMPDEST DUP1 SWAP2 POP POP SWAP3 POP SWAP3 SWAP1 POP JUMP JUMPDEST PUSH1 0x0 DUP1 PUSH1 0x0 PUSH1 0x60 DUP5 DUP7 SUB SLT ISZERO PUSH3 0x15A7 JUMPI DUP1 DUP2 REVERT JUMPDEST DUP4 CALLDATALOAD PUSH3 0x15B4 DUP2 PUSH3 0x1C44 JUMP JUMPDEST SWAP3 POP PUSH1 0x20 DUP5 ADD CALLDATALOAD PUSH3 0x15C6 DUP2 PUSH3 0x1C44 JUMP JUMPDEST SWAP3 SWAP6 SWAP3 SWAP5 POP POP POP PUSH1 0x40 SWAP2 SWAP1 SWAP2 ADD CALLDATALOAD SWAP1 JUMP JUMPDEST PUSH1 0x0 DUP1 PUSH1 0x40 DUP4 DUP6 SUB SLT ISZERO PUSH3 0x15EA JUMPI DUP2 DUP3 REVERT JUMPDEST DUP3 CALLDATALOAD PUSH3 0x15F7 DUP2 PUSH3 0x1C44 JUMP JUMPDEST SWAP2 POP PUSH1 0x20 DUP4 ADD CALLDATALOAD PUSH8 0xFFFFFFFFFFFFFFFF DUP2 GT ISZERO PUSH3 0x1613 JUMPI DUP2 DUP3 REVERT JUMPDEST PUSH3 0x1621 DUP6 DUP3 DUP7 ADD PUSH3 0x1481 JUMP JUMPDEST SWAP2 POP POP SWAP3 POP SWAP3 SWAP1 POP JUMP JUMPDEST PUSH1 0x0 DUP1 PUSH1 0x40 DUP4 DUP6 SUB SLT ISZERO PUSH3 0x163E JUMPI DUP2 DUP3 REVERT JUMPDEST DUP3 CALLDATALOAD PUSH3 0x164B DUP2 PUSH3 0x1C44 JUMP JUMPDEST SWAP5 PUSH1 0x20 SWAP4 SWAP1 SWAP4 ADD CALLDATALOAD SWAP4 POP POP POP JUMP JUMPDEST PUSH1 0x0 DUP1 PUSH1 0x0 DUP1 PUSH1 0x80 DUP6 DUP8 SUB SLT ISZERO PUSH3 0x166F JUMPI DUP1 DUP2 REVERT JUMPDEST DUP5 CALLDATALOAD PUSH8 0xFFFFFFFFFFFFFFFF DUP1 DUP3 GT ISZERO PUSH3 0x1687 JUMPI DUP3 DUP4 REVERT JUMPDEST PUSH3 0x1695 DUP9 DUP4 DUP10 ADD PUSH3 0x1481 JUMP JUMPDEST SWAP6 POP PUSH1 0x20 DUP8 ADD CALLDATALOAD SWAP2 POP DUP1 DUP3 GT ISZERO PUSH3 0x16AB JUMPI DUP3 DUP4 REVERT JUMPDEST PUSH3 0x16B9 DUP9 DUP4 DUP10 ADD PUSH3 0x1481 JUMP JUMPDEST SWAP5 POP PUSH1 0x40 DUP8 ADD CALLDATALOAD SWAP2 POP DUP1 DUP3 GT ISZERO PUSH3 0x16CF JUMPI DUP3 DUP4 REVERT JUMPDEST PUSH3 0x16DD DUP9 DUP4 DUP10 ADD PUSH3 0x1481 JUMP JUMPDEST SWAP4 POP PUSH1 0x60 DUP8 ADD CALLDATALOAD SWAP2 POP DUP1 DUP3 GT ISZERO PUSH3 0x16F3 JUMPI DUP3 DUP4 REVERT JUMPDEST POP PUSH3 0x1702 DUP8 DUP3 DUP9 ADD PUSH3 0x1481 JUMP JUMPDEST SWAP2 POP POP SWAP3 SWAP6 SWAP2 SWAP5 POP SWAP3 POP JUMP JUMPDEST PUSH1 0x0 DUP1 PUSH1 0x0 DUP1 PUSH1 0x0 DUP1 PUSH1 0x0 DUP1 PUSH2 0x100 DUP10 DUP12 SUB SLT ISZERO PUSH3 0x172B JUMPI DUP4 DUP5 REVERT JUMPDEST DUP9 CALLDATALOAD PUSH8 0xFFFFFFFFFFFFFFFF DUP1 DUP3 GT ISZERO PUSH3 0x1743 JUMPI DUP6 DUP7 REVERT JUMPDEST PUSH3 0x1751 DUP13 DUP4 DUP14 ADD PUSH3 0x1481 JUMP JUMPDEST SWAP10 POP PUSH1 0x20 DUP12 ADD CALLDATALOAD SWAP2 POP DUP1 DUP3 GT ISZERO PUSH3 0x1767 JUMPI DUP6 DUP7 REVERT JUMPDEST PUSH3 0x1775 DUP13 DUP4 DUP14 ADD PUSH3 0x1481 JUMP JUMPDEST SWAP9 POP PUSH1 0x40 DUP12 ADD CALLDATALOAD SWAP2 POP DUP1 DUP3 GT ISZERO PUSH3 0x178B JUMPI DUP6 DUP7 REVERT JUMPDEST PUSH3 0x1799 DUP13 DUP4 DUP14 ADD PUSH3 0x1481 JUMP JUMPDEST SWAP8 POP PUSH1 0x60 DUP12 ADD CALLDATALOAD SWAP7 POP PUSH1 0x80 DUP12 ADD CALLDATALOAD SWAP2 POP DUP1 DUP3 GT ISZERO PUSH3 0x17B6 JUMPI DUP6 DUP7 REVERT JUMPDEST PUSH3 0x17C4 DUP13 DUP4 DUP14 ADD PUSH3 0x1481 JUMP JUMPDEST SWAP6 POP PUSH1 0xA0 DUP12 ADD CALLDATALOAD SWAP2 POP DUP1 DUP3 GT ISZERO PUSH3 0x17DA JUMPI DUP5 DUP6 REVERT JUMPDEST PUSH3 0x17E8 DUP13 DUP4 DUP14 ADD PUSH3 0x1481 JUMP JUMPDEST SWAP5 POP PUSH1 0xC0 DUP12 ADD CALLDATALOAD SWAP2 POP DUP1 DUP3 GT ISZERO PUSH3 0x17FE JUMPI DUP4 DUP5 REVERT JUMPDEST PUSH3 0x180C DUP13 DUP4 DUP14 ADD PUSH3 0x1481 JUMP JUMPDEST SWAP4 POP PUSH1 0xE0 DUP12 ADD CALLDATALOAD SWAP2 POP DUP1 DUP3 GT ISZERO PUSH3 0x1822 JUMPI DUP3 DUP4 REVERT JUMPDEST POP PUSH3 0x1831 DUP12 DUP3 DUP13 ADD PUSH3 0x1481 JUMP JUMPDEST SWAP2 POP POP SWAP3 SWAP6 SWAP9 POP SWAP3 SWAP6 SWAP9 SWAP1 SWAP4 SWAP7 POP JUMP JUMPDEST PUSH1 0x0 PUSH1 0x20 DUP3 DUP5 SUB SLT ISZERO PUSH3 0x1853 JUMPI DUP1 DUP2 REVERT JUMPDEST POP MLOAD SWAP2 SWAP1 POP JUMP JUMPDEST PUSH1 0x0 DUP1 PUSH1 0x0 DUP1 PUSH1 0x0 DUP1 PUSH1 0x0 DUP1 PUSH2 0x100 DUP10 DUP12 SUB SLT ISZERO PUSH3 0x1877 JUMPI DUP4 DUP5 REVERT JUMPDEST DUP9 CALLDATALOAD SWAP8 POP PUSH1 0x20 DUP10 ADD CALLDATALOAD PUSH8 0xFFFFFFFFFFFFFFFF DUP1 DUP3 GT ISZERO PUSH3 0x1896 JUMPI DUP6 DUP7 REVERT JUMPDEST PUSH3 0x18A4 DUP13 DUP4 DUP14 ADD PUSH3 0x1481 JUMP JUMPDEST SWAP9 POP PUSH1 0x40 DUP12 ADD CALLDATALOAD SWAP2 POP DUP1 DUP3 GT ISZERO PUSH3 0x18BA JUMPI DUP6 DUP7 REVERT JUMPDEST PUSH3 0x18C8 DUP13 DUP4 DUP14 ADD PUSH3 0x1481 JUMP JUMPDEST SWAP8 POP PUSH1 0x60 DUP12 ADD CALLDATALOAD SWAP2 POP DUP1 DUP3 GT ISZERO PUSH3 0x18DE JUMPI DUP6 DUP7 REVERT JUMPDEST PUSH3 0x18EC DUP13 DUP4 DUP14 ADD PUSH3 0x1481 JUMP JUMPDEST SWAP7 POP PUSH1 0x80 DUP12 ADD CALLDATALOAD SWAP6 POP PUSH1 0xA0 DUP12 ADD CALLDATALOAD SWAP2 POP DUP1 DUP3 GT ISZERO PUSH3 0x17DA JUMPI DUP5 DUP6 REVERT JUMPDEST PUSH1 0x0 DUP2 MLOAD DUP1 DUP5 MSTORE DUP2 JUMPDEST DUP2 DUP2 LT ISZERO PUSH3 0x1930 JUMPI PUSH1 0x20 DUP2 DUP6 ADD DUP2 ADD MLOAD DUP7 DUP4 ADD DUP3 ADD MSTORE ADD PUSH3 0x1912 JUMP JUMPDEST DUP2 DUP2 GT ISZERO PUSH3 0x1942 JUMPI DUP3 PUSH1 0x20 DUP4 DUP8 ADD ADD MSTORE JUMPDEST POP PUSH1 0x1F ADD PUSH1 0x1F NOT AND SWAP3 SWAP1 SWAP3 ADD PUSH1 0x20 ADD SWAP3 SWAP2 POP POP JUMP JUMPDEST PUSH1 0x1 PUSH1 0x1 PUSH1 0xA0 SHL SUB DUP7 AND DUP2 MSTORE PUSH1 0xA0 PUSH1 0x20 DUP3 ADD DUP2 SWAP1 MSTORE PUSH1 0x0 SWAP1 PUSH3 0x197D SWAP1 DUP4 ADD DUP8 PUSH3 0x1909 JUMP JUMPDEST DUP3 DUP2 SUB PUSH1 0x40 DUP5 ADD MSTORE PUSH3 0x1991 DUP2 DUP8 PUSH3 0x1909 JUMP JUMPDEST SWAP1 POP DUP3 DUP2 SUB PUSH1 0x60 DUP5 ADD MSTORE PUSH3 0x19A7 DUP2 DUP7 PUSH3 0x1909 JUMP JUMPDEST SWAP1 POP DUP3 DUP2 SUB PUSH1 0x80 DUP5 ADD MSTORE PUSH3 0x19BD DUP2 DUP6 PUSH3 0x1909 JUMP JUMPDEST SWAP9 SWAP8 POP POP POP POP POP POP POP POP JUMP JUMPDEST PUSH1 0x1 PUSH1 0x1 PUSH1 0xA0 SHL SUB DUP11 AND DUP2 MSTORE PUSH2 0x120 PUSH1 0x20 DUP3 ADD DUP2 SWAP1 MSTORE PUSH1 0x0 SWAP1 PUSH3 0x19F0 DUP4 DUP3 ADD DUP13 PUSH3 0x1909 JUMP JUMPDEST SWAP1 POP DUP3 DUP2 SUB PUSH1 0x40 DUP5 ADD MSTORE PUSH3 0x1A06 DUP2 DUP12 PUSH3 0x1909 JUMP JUMPDEST SWAP1 POP DUP3 DUP2 SUB PUSH1 0x60 DUP5 ADD MSTORE PUSH3 0x1A1C DUP2 DUP11 PUSH3 0x1909 JUMP JUMPDEST SWAP1 POP DUP8 PUSH1 0x80 DUP5 ADD MSTORE DUP3 DUP2 SUB PUSH1 0xA0 DUP5 ADD MSTORE PUSH3 0x1A38 DUP2 DUP9 PUSH3 0x1909 JUMP JUMPDEST SWAP1 POP DUP3 DUP2 SUB PUSH1 0xC0 DUP5 ADD MSTORE PUSH3 0x1A4E DUP2 DUP8 PUSH3 0x1909 JUMP JUMPDEST SWAP1 POP DUP3 DUP2 SUB PUSH1 0xE0 DUP5 ADD MSTORE PUSH3 0x1A64 DUP2 DUP7 PUSH3 0x1909 JUMP JUMPDEST SWAP1 POP DUP3 DUP2 SUB PUSH2 0x100 DUP5 ADD MSTORE PUSH3 0x1A7B DUP2 DUP6 PUSH3 0x1909 JUMP JUMPDEST SWAP13 SWAP12 POP POP POP POP POP POP POP POP POP POP POP POP JUMP JUMPDEST PUSH1 0x0 PUSH1 0x20 DUP3 MSTORE PUSH3 0x152F PUSH1 0x20 DUP4 ADD DUP5 PUSH3 0x1909 JUMP JUMPDEST PUSH1 0x0 PUSH1 0x80 DUP3 MSTORE PUSH3 0x1AB5 PUSH1 0x80 DUP4 ADD DUP8 PUSH3 0x1909 JUMP JUMPDEST DUP3 DUP2 SUB PUSH1 0x20 DUP5 ADD MSTORE PUSH3 0x1AC9 DUP2 DUP8 PUSH3 0x1909 JUMP JUMPDEST SWAP1 POP DUP3 DUP2 SUB PUSH1 0x40 DUP5 ADD MSTORE PUSH3 0x1ADF DUP2 DUP7 PUSH3 0x1909 JUMP JUMPDEST SWAP1 POP DUP3 DUP2 SUB PUSH1 0x60 DUP5 ADD MSTORE PUSH3 0x1AF5 DUP2 DUP6 PUSH3 0x1909 JUMP JUMPDEST SWAP8 SWAP7 POP POP POP POP POP POP POP JUMP JUMPDEST PUSH1 0x0 PUSH1 0xE0 DUP3 MSTORE PUSH3 0x1B15 PUSH1 0xE0 DUP4 ADD DUP11 PUSH3 0x1909 JUMP JUMPDEST DUP3 DUP2 SUB PUSH1 0x20 DUP5 ADD MSTORE PUSH3 0x1B29 DUP2 DUP11 PUSH3 0x1909 JUMP JUMPDEST SWAP1 POP DUP3 DUP2 SUB PUSH1 0x40 DUP5 ADD MSTORE PUSH3 0x1B3F DUP2 DUP10 PUSH3 0x1909 JUMP JUMPDEST SWAP1 POP DUP7 PUSH1 0x60 DUP5 ADD MSTORE DUP3 DUP2 SUB PUSH1 0x80 DUP5 ADD MSTORE PUSH3 0x1B5B DUP2 DUP8 PUSH3 0x1909 JUMP JUMPDEST SWAP1 POP DUP3 DUP2 SUB PUSH1 0xA0 DUP5 ADD MSTORE PUSH3 0x1B71 DUP2 DUP7 PUSH3 0x1909 JUMP JUMPDEST SWAP1 POP DUP3 DUP2 SUB PUSH1 0xC0 DUP5 ADD MSTORE PUSH3 0x1B87 DUP2 DUP6 PUSH3 0x1909 JUMP JUMPDEST SWAP11 SWAP10 POP POP POP POP POP POP POP POP POP POP JUMP JUMPDEST PUSH1 0x20 DUP1 DUP3 MSTORE PUSH1 0x1A SWAP1 DUP3 ADD MSTORE PUSH32 0x566F7573206E27657465732070617320656E7265676973747265000000000000 PUSH1 0x40 DUP3 ADD MSTORE PUSH1 0x60 ADD SWAP1 JUMP JUMPDEST PUSH1 0x0 DUP3 NOT DUP3 GT ISZERO PUSH3 0x1BEC JUMPI PUSH4 0x4E487B71 PUSH1 0xE0 SHL DUP2 MSTORE PUSH1 0x11 PUSH1 0x4 MSTORE PUSH1 0x24 DUP2 REVERT JUMPDEST POP ADD SWAP1 JUMP JUMPDEST PUSH1 0x2 DUP2 DIV PUSH1 0x1 DUP3 AND DUP1 PUSH3 0x1C06 JUMPI PUSH1 0x7F DUP3 AND SWAP2 POP JUMPDEST PUSH1 0x20 DUP3 LT DUP2 EQ ISZERO PUSH3 0x1C28 JUMPI PUSH4 0x4E487B71 PUSH1 0xE0 SHL PUSH1 0x0 MSTORE PUSH1 0x22 PUSH1 0x4 MSTORE PUSH1 0x24 PUSH1 0x0 REVERT JUMPDEST POP SWAP2 SWAP1 POP JUMP JUMPDEST PUSH4 0x4E487B71 PUSH1 0xE0 SHL PUSH1 0x0 MSTORE PUSH1 0x41 PUSH1 0x4 MSTORE PUSH1 0x24 PUSH1 0x0 REVERT JUMPDEST PUSH1 0x1 PUSH1 0x1 PUSH1 0xA0 SHL SUB DUP2 AND DUP2 EQ PUSH3 0x1C5A JUMPI PUSH1 0x0 DUP1 REVERT JUMPDEST POP JUMP INVALID PUSH1 0x80 PUSH1 0x40 MSTORE CALLVALUE DUP1 ISZERO PUSH3 0x11 JUMPI PUSH1 0x0 DUP1 REVERT JUMPDEST POP PUSH1 0x40 MLOAD PUSH3 0x10B3 CODESIZE SUB DUP1 PUSH3 0x10B3 DUP4 CODECOPY DUP2 ADD PUSH1 0x40 DUP2 SWAP1 MSTORE PUSH3 0x34 SWAP2 PUSH3 0x223 JUMP JUMPDEST PUSH1 0x0 DUP1 SLOAD PUSH1 0x1 PUSH1 0x1 PUSH1 0xA0 SHL SUB NOT AND PUSH1 0x1 PUSH1 0x1 PUSH1 0xA0 SHL SUB DUP8 AND OR SWAP1 SSTORE DUP4 MLOAD PUSH3 0x64 SWAP1 PUSH1 0x3 SWAP1 PUSH1 0x20 DUP8 ADD SWAP1 PUSH3 0xCA JUMP JUMPDEST POP DUP3 MLOAD PUSH3 0x7A SWAP1 PUSH1 0x2 SWAP1 PUSH1 0x20 DUP7 ADD SWAP1 PUSH3 0xCA JUMP JUMPDEST POP DUP2 MLOAD PUSH3 0x90 SWAP1 PUSH1 0x4 SWAP1 PUSH1 0x20 DUP6 ADD SWAP1 PUSH3 0xCA JUMP JUMPDEST POP DUP1 MLOAD PUSH3 0xA6 SWAP1 PUSH1 0x1 SWAP1 PUSH1 0x20 DUP5 ADD SWAP1 PUSH3 0xCA JUMP JUMPDEST POP POP PUSH1 0x7 DUP1 SLOAD PUSH1 0xFF NOT AND PUSH1 0x1 OR SWAP1 SSTORE POP POP PUSH1 0x0 PUSH1 0x5 DUP2 SWAP1 SSTORE PUSH1 0x6 SSTORE POP PUSH3 0x34A SWAP1 POP JUMP JUMPDEST DUP3 DUP1 SLOAD PUSH3 0xD8 SWAP1 PUSH3 0x2F7 JUMP JUMPDEST SWAP1 PUSH1 0x0 MSTORE PUSH1 0x20 PUSH1 0x0 KECCAK256 SWAP1 PUSH1 0x1F ADD PUSH1 0x20 SWAP1 DIV DUP2 ADD SWAP3 DUP3 PUSH3 0xFC JUMPI PUSH1 0x0 DUP6 SSTORE PUSH3 0x147 JUMP JUMPDEST DUP3 PUSH1 0x1F LT PUSH3 0x117 JUMPI DUP1 MLOAD PUSH1 0xFF NOT AND DUP4 DUP1 ADD OR DUP6 SSTORE PUSH3 0x147 JUMP JUMPDEST DUP3 DUP1 ADD PUSH1 0x1 ADD DUP6 SSTORE DUP3 ISZERO PUSH3 0x147 JUMPI SWAP2 DUP3 ADD JUMPDEST DUP3 DUP2 GT ISZERO PUSH3 0x147 JUMPI DUP3 MLOAD DUP3 SSTORE SWAP2 PUSH1 0x20 ADD SWAP2 SWAP1 PUSH1 0x1 ADD SWAP1 PUSH3 0x12A JUMP JUMPDEST POP PUSH3 0x155 SWAP3 SWAP2 POP PUSH3 0x159 JUMP JUMPDEST POP SWAP1 JUMP JUMPDEST JUMPDEST DUP1 DUP3 GT ISZERO PUSH3 0x155 JUMPI PUSH1 0x0 DUP2 SSTORE PUSH1 0x1 ADD PUSH3 0x15A JUMP JUMPDEST PUSH1 0x0 DUP3 PUSH1 0x1F DUP4 ADD SLT PUSH3 0x181 JUMPI DUP1 DUP2 REVERT JUMPDEST DUP2 MLOAD PUSH1 0x1 PUSH1 0x1 PUSH1 0x40 SHL SUB DUP1 DUP3 GT ISZERO PUSH3 0x19E JUMPI PUSH3 0x19E PUSH3 0x334 JUMP JUMPDEST PUSH1 0x40 MLOAD PUSH1 0x1F DUP4 ADD PUSH1 0x1F NOT SWAP1 DUP2 AND PUSH1 0x3F ADD AND DUP2 ADD SWAP1 DUP3 DUP3 GT DUP2 DUP4 LT OR ISZERO PUSH3 0x1C9 JUMPI PUSH3 0x1C9 PUSH3 0x334 JUMP JUMPDEST DUP2 PUSH1 0x40 MSTORE DUP4 DUP2 MSTORE PUSH1 0x20 SWAP3 POP DUP7 DUP4 DUP6 DUP9 ADD ADD GT ISZERO PUSH3 0x1E5 JUMPI DUP5 DUP6 REVERT JUMPDEST DUP5 SWAP2 POP JUMPDEST DUP4 DUP3 LT ISZERO PUSH3 0x208 JUMPI DUP6 DUP3 ADD DUP4 ADD MLOAD DUP2 DUP4 ADD DUP5 ADD MSTORE SWAP1 DUP3 ADD SWAP1 PUSH3 0x1E9 JUMP JUMPDEST DUP4 DUP3 GT ISZERO PUSH3 0x219 JUMPI DUP5 DUP4 DUP6 DUP4 ADD ADD MSTORE JUMPDEST SWAP7 SWAP6 POP POP POP POP POP POP JUMP JUMPDEST PUSH1 0x0 DUP1 PUSH1 0x0 DUP1 PUSH1 0x0 PUSH1 0xA0 DUP7 DUP9 SUB SLT ISZERO PUSH3 0x23B JUMPI DUP1 DUP2 REVERT JUMPDEST DUP6 MLOAD PUSH1 0x1 PUSH1 0x1 PUSH1 0xA0 SHL SUB DUP2 AND DUP2 EQ PUSH3 0x252 JUMPI DUP2 DUP3 REVERT JUMPDEST PUSH1 0x20 DUP8 ADD MLOAD SWAP1 SWAP6 POP PUSH1 0x1 PUSH1 0x1 PUSH1 0x40 SHL SUB DUP1 DUP3 GT ISZERO PUSH3 0x26F JUMPI DUP3 DUP4 REVERT JUMPDEST PUSH3 0x27D DUP10 DUP4 DUP11 ADD PUSH3 0x170 JUMP JUMPDEST SWAP6 POP PUSH1 0x40 DUP9 ADD MLOAD SWAP2 POP DUP1 DUP3 GT ISZERO PUSH3 0x293 JUMPI DUP3 DUP4 REVERT JUMPDEST PUSH3 0x2A1 DUP10 DUP4 DUP11 ADD PUSH3 0x170 JUMP JUMPDEST SWAP5 POP PUSH1 0x60 DUP9 ADD MLOAD SWAP2 POP DUP1 DUP3 GT ISZERO PUSH3 0x2B7 JUMPI DUP3 DUP4 REVERT JUMPDEST PUSH3 0x2C5 DUP10 DUP4 DUP11 ADD PUSH3 0x170 JUMP JUMPDEST SWAP4 POP PUSH1 0x80 DUP9 ADD MLOAD SWAP2 POP DUP1 DUP3 GT ISZERO PUSH3 0x2DB JUMPI DUP3 DUP4 REVERT JUMPDEST POP PUSH3 0x2EA DUP9 DUP3 DUP10 ADD PUSH3 0x170 JUMP JUMPDEST SWAP2 POP POP SWAP3 SWAP6 POP SWAP3 SWAP6 SWAP1 SWAP4 POP JUMP JUMPDEST PUSH1 0x2 DUP2 DIV PUSH1 0x1 DUP3 AND DUP1 PUSH3 0x30C JUMPI PUSH1 0x7F DUP3 AND SWAP2 POP JUMPDEST PUSH1 0x20 DUP3 LT DUP2 EQ ISZERO PUSH3 0x32E JUMPI PUSH4 0x4E487B71 PUSH1 0xE0 SHL PUSH1 0x0 MSTORE PUSH1 0x22 PUSH1 0x4 MSTORE PUSH1 0x24 PUSH1 0x0 REVERT JUMPDEST POP SWAP2 SWAP1 POP JUMP JUMPDEST PUSH4 0x4E487B71 PUSH1 0xE0 SHL PUSH1 0x0 MSTORE PUSH1 0x41 PUSH1 0x4 MSTORE PUSH1 0x24 PUSH1 0x0 REVERT JUMPDEST PUSH2 0xD59 DUP1 PUSH3 0x35A PUSH1 0x0 CODECOPY PUSH1 0x0 RETURN INVALID PUSH1 0x80 PUSH1 0x40 MSTORE CALLVALUE DUP1 ISZERO PUSH2 0x10 JUMPI PUSH1 0x0 DUP1 REVERT JUMPDEST POP PUSH1 0x4 CALLDATASIZE LT PUSH2 0xB4 JUMPI PUSH1 0x0 CALLDATALOAD PUSH1 0xE0 SHR DUP1 PUSH4 0x9A68308F GT PUSH2 0x71 JUMPI DUP1 PUSH4 0x9A68308F EQ PUSH2 0x152 JUMPI DUP1 PUSH4 0xA985B0D6 EQ PUSH2 0x15A JUMPI DUP1 PUSH4 0xC057F95F EQ PUSH2 0x16D JUMPI DUP1 PUSH4 0xC86E4BFA EQ PUSH2 0x175 JUMPI DUP1 PUSH4 0xE542C3E4 EQ PUSH2 0x17E JUMPI DUP1 PUSH4 0xEA382FA9 EQ PUSH2 0x187 JUMPI PUSH2 0xB4 JUMP JUMPDEST DUP1 PUSH4 0x18484D74 EQ PUSH2 0xB9 JUMPI DUP1 PUSH4 0x2DE40CE3 EQ PUSH2 0xD7 JUMPI DUP1 PUSH4 0x44085A65 EQ PUSH2 0xF4 JUMPI DUP1 PUSH4 0x61FAC54D EQ PUSH2 0x10A JUMPI DUP1 PUSH4 0x7BA70598 EQ PUSH2 0x112 JUMPI DUP1 PUSH4 0x8C878F38 EQ PUSH2 0x127 JUMPI JUMPDEST PUSH1 0x0 DUP1 REVERT JUMPDEST PUSH2 0xC1 PUSH2 0x19C JUMP JUMPDEST PUSH1 0x40 MLOAD PUSH2 0xCE SWAP2 SWAP1 PUSH2 0xB72 JUMP JUMPDEST PUSH1 0x40 MLOAD DUP1 SWAP2 SUB SWAP1 RETURN JUMPDEST PUSH1 0x7 SLOAD PUSH2 0xE4 SWAP1 PUSH1 0xFF AND DUP2 JUMP JUMPDEST PUSH1 0x40 MLOAD SWAP1 ISZERO ISZERO DUP2 MSTORE PUSH1 0x20 ADD PUSH2 0xCE JUMP JUMPDEST PUSH2 0xFC PUSH2 0x22A JUMP JUMPDEST PUSH1 0x40 MLOAD SWAP1 DUP2 MSTORE PUSH1 0x20 ADD PUSH2 0xCE JUMP JUMPDEST PUSH2 0xC1 PUSH2 0x24C JUMP JUMPDEST PUSH2 0x125 PUSH2 0x120 CALLDATASIZE PUSH1 0x4 PUSH2 0xA20 JUMP JUMPDEST PUSH2 0x259 JUMP JUMPDEST STOP JUMPDEST PUSH1 0x0 SLOAD PUSH2 0x13A SWAP1 PUSH1 0x1 PUSH1 0x1 PUSH1 0xA0 SHL SUB AND DUP2 JUMP JUMPDEST PUSH1 0x40 MLOAD PUSH1 0x1 PUSH1 0x1 PUSH1 0xA0 SHL SUB SWAP1 SWAP2 AND DUP2 MSTORE PUSH1 0x20 ADD PUSH2 0xCE JUMP JUMPDEST PUSH2 0xC1 PUSH2 0x2AF JUMP JUMPDEST PUSH2 0x125 PUSH2 0x168 CALLDATASIZE PUSH1 0x4 PUSH2 0xAC8 JUMP JUMPDEST PUSH1 0x5 SSTORE JUMP JUMPDEST PUSH2 0xC1 PUSH2 0x2BC JUMP JUMPDEST PUSH2 0xFC PUSH1 0x5 SLOAD DUP2 JUMP JUMPDEST PUSH2 0xFC PUSH1 0x6 SLOAD DUP2 JUMP JUMPDEST PUSH2 0x18F PUSH2 0x2C9 JUMP JUMPDEST PUSH1 0x40 MLOAD PUSH2 0xCE SWAP2 SWAP1 PUSH2 0xB24 JUMP JUMPDEST PUSH1 0x3 DUP1 SLOAD PUSH2 0x1A9 SWAP1 PUSH2 0xCA1 JUMP JUMPDEST DUP1 PUSH1 0x1F ADD PUSH1 0x20 DUP1 SWAP2 DIV MUL PUSH1 0x20 ADD PUSH1 0x40 MLOAD SWAP1 DUP2 ADD PUSH1 0x40 MSTORE DUP1 SWAP3 SWAP2 SWAP1 DUP2 DUP2 MSTORE PUSH1 0x20 ADD DUP3 DUP1 SLOAD PUSH2 0x1D5 SWAP1 PUSH2 0xCA1 JUMP JUMPDEST DUP1 ISZERO PUSH2 0x222 JUMPI DUP1 PUSH1 0x1F LT PUSH2 0x1F7 JUMPI PUSH2 0x100 DUP1 DUP4 SLOAD DIV MUL DUP4 MSTORE SWAP2 PUSH1 0x20 ADD SWAP2 PUSH2 0x222 JUMP JUMPDEST DUP3 ADD SWAP2 SWAP1 PUSH1 0x0 MSTORE PUSH1 0x20 PUSH1 0x0 KECCAK256 SWAP1 JUMPDEST DUP2 SLOAD DUP2 MSTORE SWAP1 PUSH1 0x1 ADD SWAP1 PUSH1 0x20 ADD DUP1 DUP4 GT PUSH2 0x205 JUMPI DUP3 SWAP1 SUB PUSH1 0x1F AND DUP3 ADD SWAP2 JUMPDEST POP POP POP POP POP DUP2 JUMP JUMPDEST PUSH1 0x0 PUSH1 0x1 PUSH1 0x6 PUSH1 0x0 DUP3 DUP3 SLOAD PUSH2 0x23F SWAP2 SWAP1 PUSH2 0xBDE JUMP JUMPDEST SWAP1 SWAP2 SSTORE POP POP PUSH1 0x6 SLOAD SWAP1 POP SWAP1 JUMP JUMPDEST PUSH1 0x1 DUP1 SLOAD PUSH2 0x1A9 SWAP1 PUSH2 0xCA1 JUMP JUMPDEST DUP4 MLOAD PUSH2 0x26C SWAP1 PUSH1 0x3 SWAP1 PUSH1 0x20 DUP8 ADD SWAP1 PUSH2 0x84D JUMP JUMPDEST POP DUP3 MLOAD PUSH2 0x280 SWAP1 PUSH1 0x2 SWAP1 PUSH1 0x20 DUP7 ADD SWAP1 PUSH2 0x84D JUMP JUMPDEST POP DUP2 MLOAD PUSH2 0x294 SWAP1 PUSH1 0x4 SWAP1 PUSH1 0x20 DUP6 ADD SWAP1 PUSH2 0x84D JUMP JUMPDEST POP DUP1 MLOAD PUSH2 0x2A8 SWAP1 PUSH1 0x1 SWAP1 PUSH1 0x20 DUP5 ADD SWAP1 PUSH2 0x84D JUMP JUMPDEST POP POP POP POP POP JUMP JUMPDEST PUSH1 0x2 DUP1 SLOAD PUSH2 0x1A9 SWAP1 PUSH2 0xCA1 JUMP JUMPDEST PUSH1 0x4 DUP1 SLOAD PUSH2 0x1A9 SWAP1 PUSH2 0xCA1 JUMP JUMPDEST PUSH2 0x2D1 PUSH2 0x8D1 JUMP JUMPDEST PUSH2 0x2D9 PUSH2 0x8D1 JUMP JUMPDEST ADDRESS PUSH1 0x1 PUSH1 0x1 PUSH1 0xA0 SHL SUB AND PUSH4 0x8C878F38 PUSH1 0x40 MLOAD DUP2 PUSH4 0xFFFFFFFF AND PUSH1 0xE0 SHL DUP2 MSTORE PUSH1 0x4 ADD PUSH1 0x20 PUSH1 0x40 MLOAD DUP1 DUP4 SUB DUP2 DUP7 DUP1 EXTCODESIZE ISZERO DUP1 ISZERO PUSH2 0x312 JUMPI PUSH1 0x0 DUP1 REVERT JUMPDEST POP GAS STATICCALL ISZERO DUP1 ISZERO PUSH2 0x326 JUMPI RETURNDATASIZE PUSH1 0x0 DUP1 RETURNDATACOPY RETURNDATASIZE PUSH1 0x0 REVERT JUMPDEST POP POP POP POP PUSH1 0x40 MLOAD RETURNDATASIZE PUSH1 0x1F NOT PUSH1 0x1F DUP3 ADD AND DUP3 ADD DUP1 PUSH1 0x40 MSTORE POP DUP2 ADD SWAP1 PUSH2 0x34A SWAP2 SWAP1 PUSH2 0x95F JUMP JUMPDEST PUSH1 0x40 MLOAD PUSH1 0x20 ADD PUSH2 0x372 SWAP2 SWAP1 PUSH1 0x60 SWAP2 SWAP1 SWAP2 SHL PUSH12 0xFFFFFFFFFFFFFFFFFFFFFFFF NOT AND DUP2 MSTORE PUSH1 0x14 ADD SWAP1 JUMP JUMPDEST PUSH1 0x40 DUP1 MLOAD DUP1 DUP4 SUB PUSH1 0x1F NOT ADD DUP2 MSTORE SWAP2 DUP2 MSTORE SWAP1 DUP3 MSTORE DUP1 MLOAD PUSH4 0x61FAC54D PUSH1 0xE0 SHL DUP2 MSTORE SWAP1 MLOAD ADDRESS SWAP2 PUSH4 0x61FAC54D SWAP2 PUSH1 0x4 DUP1 DUP4 ADD SWAP3 PUSH1 0x0 SWAP3 SWAP2 SWAP1 DUP3 SWAP1 SUB ADD DUP2 DUP7 DUP1 EXTCODESIZE ISZERO DUP1 ISZERO PUSH2 0x3BA JUMPI PUSH1 0x0 DUP1 REVERT JUMPDEST POP GAS STATICCALL ISZERO DUP1 ISZERO PUSH2 0x3CE JUMPI RETURNDATASIZE PUSH1 0x0 DUP1 RETURNDATACOPY RETURNDATASIZE PUSH1 0x0 REVERT JUMPDEST POP POP POP POP PUSH1 0x40 MLOAD RETURNDATASIZE PUSH1 0x0 DUP3 RETURNDATACOPY PUSH1 0x1F RETURNDATASIZE SWAP1 DUP2 ADD PUSH1 0x1F NOT AND DUP3 ADD PUSH1 0x40 MSTORE PUSH2 0x3F6 SWAP2 SWAP1 DUP2 ADD SWAP1 PUSH2 0x9AD JUMP JUMPDEST PUSH1 0x20 DUP3 ADD MSTORE PUSH1 0x40 DUP1 MLOAD PUSH4 0x9A68308F PUSH1 0xE0 SHL DUP2 MSTORE SWAP1 MLOAD ADDRESS SWAP2 PUSH4 0x9A68308F SWAP2 PUSH1 0x4 DUP1 DUP4 ADD SWAP3 PUSH1 0x0 SWAP3 SWAP2 SWAP1 DUP3 SWAP1 SUB ADD DUP2 DUP7 DUP1 EXTCODESIZE ISZERO DUP1 ISZERO PUSH2 0x432 JUMPI PUSH1 0x0 DUP1 REVERT JUMPDEST POP GAS STATICCALL ISZERO DUP1 ISZERO PUSH2 0x446 JUMPI RETURNDATASIZE PUSH1 0x0 DUP1 RETURNDATACOPY RETURNDATASIZE PUSH1 0x0 REVERT JUMPDEST POP POP POP POP PUSH1 0x40 MLOAD RETURNDATASIZE PUSH1 0x0 DUP3 RETURNDATACOPY PUSH1 0x1F RETURNDATASIZE SWAP1 DUP2 ADD PUSH1 0x1F NOT AND DUP3 ADD PUSH1 0x40 MSTORE PUSH2 0x46E SWAP2 SWAP1 DUP2 ADD SWAP1 PUSH2 0x9AD JUMP JUMPDEST DUP2 PUSH1 0x2 PUSH1 0x20 MUL ADD DUP2 SWAP1 MSTORE POP ADDRESS PUSH1 0x1 PUSH1 0x1 PUSH1 0xA0 SHL SUB AND PUSH4 0x18484D74 PUSH1 0x40 MLOAD DUP2 PUSH4 0xFFFFFFFF AND PUSH1 0xE0 SHL DUP2 MSTORE PUSH1 0x4 ADD PUSH1 0x0 PUSH1 0x40 MLOAD DUP1 DUP4 SUB DUP2 DUP7 DUP1 EXTCODESIZE ISZERO DUP1 ISZERO PUSH2 0x4B2 JUMPI PUSH1 0x0 DUP1 REVERT JUMPDEST POP GAS STATICCALL ISZERO DUP1 ISZERO PUSH2 0x4C6 JUMPI RETURNDATASIZE PUSH1 0x0 DUP1 RETURNDATACOPY RETURNDATASIZE PUSH1 0x0 REVERT JUMPDEST POP POP POP POP PUSH1 0x40 MLOAD RETURNDATASIZE PUSH1 0x0 DUP3 RETURNDATACOPY PUSH1 0x1F RETURNDATASIZE SWAP1 DUP2 ADD PUSH1 0x1F NOT AND DUP3 ADD PUSH1 0x40 MSTORE PUSH2 0x4EE SWAP2 SWAP1 DUP2 ADD SWAP1 PUSH2 0x9AD JUMP JUMPDEST PUSH1 0x60 DUP3 ADD MSTORE PUSH1 0x40 DUP1 MLOAD PUSH4 0xC057F95F PUSH1 0xE0 SHL DUP2 MSTORE SWAP1 MLOAD ADDRESS SWAP2 PUSH4 0xC057F95F SWAP2 PUSH1 0x4 DUP1 DUP4 ADD SWAP3 PUSH1 0x0 SWAP3 SWAP2 SWAP1 DUP3 SWAP1 SUB ADD DUP2 DUP7 DUP1 EXTCODESIZE ISZERO DUP1 ISZERO PUSH2 0x52A JUMPI PUSH1 0x0 DUP1 REVERT JUMPDEST POP GAS STATICCALL ISZERO DUP1 ISZERO PUSH2 0x53E JUMPI RETURNDATASIZE PUSH1 0x0 DUP1 RETURNDATACOPY RETURNDATASIZE PUSH1 0x0 REVERT JUMPDEST POP POP POP POP PUSH1 0x40 MLOAD RETURNDATASIZE PUSH1 0x0 DUP3 RETURNDATACOPY PUSH1 0x1F RETURNDATASIZE SWAP1 DUP2 ADD PUSH1 0x1F NOT AND DUP3 ADD PUSH1 0x40 MSTORE PUSH2 0x566 SWAP2 SWAP1 DUP2 ADD SWAP1 PUSH2 0x9AD JUMP JUMPDEST DUP2 PUSH1 0x4 PUSH1 0x20 MUL ADD DUP2 SWAP1 MSTORE POP PUSH2 0x5EA ADDRESS PUSH1 0x1 PUSH1 0x1 PUSH1 0xA0 SHL SUB AND PUSH4 0xC86E4BFA PUSH1 0x40 MLOAD DUP2 PUSH4 0xFFFFFFFF AND PUSH1 0xE0 SHL DUP2 MSTORE PUSH1 0x4 ADD PUSH1 0x20 PUSH1 0x40 MLOAD DUP1 DUP4 SUB DUP2 DUP7 DUP1 EXTCODESIZE ISZERO DUP1 ISZERO PUSH2 0x5AD JUMPI PUSH1 0x0 DUP1 REVERT JUMPDEST POP GAS STATICCALL ISZERO DUP1 ISZERO PUSH2 0x5C1 JUMPI RETURNDATASIZE PUSH1 0x0 DUP1 RETURNDATACOPY RETURNDATASIZE PUSH1 0x0 REVERT JUMPDEST POP POP POP POP PUSH1 0x40 MLOAD RETURNDATASIZE PUSH1 0x1F NOT PUSH1 0x1F DUP3 ADD AND DUP3 ADD DUP1 PUSH1 0x40 MSTORE POP DUP2 ADD SWAP1 PUSH2 0x5E5 SWAP2 SWAP1 PUSH2 0xAE0 JUMP JUMPDEST PUSH2 0x705 JUMP JUMPDEST DUP2 PUSH1 0x5 PUSH1 0x20 MUL ADD DUP2 SWAP1 MSTORE POP PUSH2 0x631 ADDRESS PUSH1 0x1 PUSH1 0x1 PUSH1 0xA0 SHL SUB AND PUSH4 0xE542C3E4 PUSH1 0x40 MLOAD DUP2 PUSH4 0xFFFFFFFF AND PUSH1 0xE0 SHL DUP2 MSTORE PUSH1 0x4 ADD PUSH1 0x20 PUSH1 0x40 MLOAD DUP1 DUP4 SUB DUP2 DUP7 DUP1 EXTCODESIZE ISZERO DUP1 ISZERO PUSH2 0x5AD JUMPI PUSH1 0x0 DUP1 REVERT JUMPDEST PUSH1 0xC0 DUP3 ADD MSTORE PUSH1 0x40 DUP1 MLOAD PUSH4 0x2DE40CE3 PUSH1 0xE0 SHL DUP2 MSTORE SWAP1 MLOAD ADDRESS SWAP2 PUSH4 0x2DE40CE3 SWAP2 PUSH1 0x4 DUP1 DUP4 ADD SWAP3 PUSH1 0x20 SWAP3 SWAP2 SWAP1 DUP3 SWAP1 SUB ADD DUP2 DUP7 DUP1 EXTCODESIZE ISZERO DUP1 ISZERO PUSH2 0x66D JUMPI PUSH1 0x0 DUP1 REVERT JUMPDEST POP GAS STATICCALL ISZERO DUP1 ISZERO PUSH2 0x681 JUMPI RETURNDATASIZE PUSH1 0x0 DUP1 RETURNDATACOPY RETURNDATASIZE PUSH1 0x0 REVERT JUMPDEST POP POP POP POP PUSH1 0x40 MLOAD RETURNDATASIZE PUSH1 0x1F NOT PUSH1 0x1F DUP3 ADD AND DUP3 ADD DUP1 PUSH1 0x40 MSTORE POP DUP2 ADD SWAP1 PUSH2 0x6A5 SWAP2 SWAP1 PUSH2 0x98D JUMP JUMPDEST ISZERO PUSH2 0x6D5 JUMPI PUSH1 0x40 DUP1 MLOAD DUP1 DUP3 ADD SWAP1 SWAP2 MSTORE PUSH1 0xA DUP2 MSTORE PUSH10 0x456E7265676973747265 PUSH1 0xB0 SHL PUSH1 0x20 DUP3 ADD MSTORE PUSH1 0xE0 DUP3 ADD MSTORE PUSH2 0x700 JUMP JUMPDEST PUSH1 0x40 DUP1 MLOAD DUP1 DUP3 ADD SWAP1 SWAP2 MSTORE PUSH1 0xE DUP2 MSTORE PUSH14 0x4E6F6E20656E7265676973747265 PUSH1 0x90 SHL PUSH1 0x20 DUP3 ADD MSTORE PUSH1 0xE0 DUP3 ADD MSTORE JUMPDEST SWAP1 POP SWAP1 JUMP JUMPDEST PUSH1 0x60 DUP2 PUSH2 0x72A JUMPI POP PUSH1 0x40 DUP1 MLOAD DUP1 DUP3 ADD SWAP1 SWAP2 MSTORE PUSH1 0x1 DUP2 MSTORE PUSH1 0x3 PUSH1 0xFC SHL PUSH1 0x20 DUP3 ADD MSTORE PUSH2 0x848 JUMP JUMPDEST DUP2 PUSH1 0x0 JUMPDEST DUP2 ISZERO PUSH2 0x754 JUMPI DUP1 PUSH2 0x73E DUP2 PUSH2 0xCDC JUMP JUMPDEST SWAP2 POP PUSH2 0x74D SWAP1 POP PUSH1 0xA DUP4 PUSH2 0xC1B JUMP JUMPDEST SWAP2 POP PUSH2 0x72E JUMP JUMPDEST PUSH1 0x0 DUP2 PUSH8 0xFFFFFFFFFFFFFFFF DUP2 GT ISZERO PUSH2 0x77D JUMPI PUSH4 0x4E487B71 PUSH1 0xE0 SHL PUSH1 0x0 MSTORE PUSH1 0x41 PUSH1 0x4 MSTORE PUSH1 0x24 PUSH1 0x0 REVERT JUMPDEST PUSH1 0x40 MLOAD SWAP1 DUP1 DUP3 MSTORE DUP1 PUSH1 0x1F ADD PUSH1 0x1F NOT AND PUSH1 0x20 ADD DUP3 ADD PUSH1 0x40 MSTORE DUP1 ISZERO PUSH2 0x7A7 JUMPI PUSH1 0x20 DUP3 ADD DUP2 DUP1 CALLDATASIZE DUP4 CALLDATACOPY ADD SWAP1 POP JUMPDEST POP SWAP1 POP DUP2 JUMPDEST DUP6 ISZERO PUSH2 0x842 JUMPI PUSH2 0x7BD PUSH1 0x1 DUP3 PUSH2 0xC5A JUMP JUMPDEST SWAP1 POP PUSH1 0x0 PUSH2 0x7CC PUSH1 0xA DUP9 PUSH2 0xC1B JUMP JUMPDEST PUSH2 0x7D7 SWAP1 PUSH1 0xA PUSH2 0xC3B JUMP JUMPDEST PUSH2 0x7E1 SWAP1 DUP9 PUSH2 0xC5A JUMP JUMPDEST PUSH2 0x7EC SWAP1 PUSH1 0x30 PUSH2 0xBF6 JUMP JUMPDEST SWAP1 POP PUSH1 0x0 DUP2 PUSH1 0xF8 SHL SWAP1 POP DUP1 DUP5 DUP5 DUP2 MLOAD DUP2 LT PUSH2 0x817 JUMPI PUSH4 0x4E487B71 PUSH1 0xE0 SHL PUSH1 0x0 MSTORE PUSH1 0x32 PUSH1 0x4 MSTORE PUSH1 0x24 PUSH1 0x0 REVERT JUMPDEST PUSH1 0x20 ADD ADD SWAP1 PUSH1 0x1 PUSH1 0x1 PUSH1 0xF8 SHL SUB NOT AND SWAP1 DUP2 PUSH1 0x0 BYTE SWAP1 MSTORE8 POP PUSH2 0x839 PUSH1 0xA DUP10 PUSH2 0xC1B JUMP JUMPDEST SWAP8 POP POP POP PUSH2 0x7AC JUMP JUMPDEST POP SWAP3 POP POP POP JUMPDEST SWAP2 SWAP1 POP JUMP JUMPDEST DUP3 DUP1 SLOAD PUSH2 0x859 SWAP1 PUSH2 0xCA1 JUMP JUMPDEST SWAP1 PUSH1 0x0 MSTORE PUSH1 0x20 PUSH1 0x0 KECCAK256 SWAP1 PUSH1 0x1F ADD PUSH1 0x20 SWAP1 DIV DUP2 ADD SWAP3 DUP3 PUSH2 0x87B JUMPI PUSH1 0x0 DUP6 SSTORE PUSH2 0x8C1 JUMP JUMPDEST DUP3 PUSH1 0x1F LT PUSH2 0x894 JUMPI DUP1 MLOAD PUSH1 0xFF NOT AND DUP4 DUP1 ADD OR DUP6 SSTORE PUSH2 0x8C1 JUMP JUMPDEST DUP3 DUP1 ADD PUSH1 0x1 ADD DUP6 SSTORE DUP3 ISZERO PUSH2 0x8C1 JUMPI SWAP2 DUP3 ADD JUMPDEST DUP3 DUP2 GT ISZERO PUSH2 0x8C1 JUMPI DUP3 MLOAD DUP3 SSTORE SWAP2 PUSH1 0x20 ADD SWAP2 SWAP1 PUSH1 0x1 ADD SWAP1 PUSH2 0x8A6 JUMP JUMPDEST POP PUSH2 0x8CD SWAP3 SWAP2 POP PUSH2 0x8F9 JUMP JUMPDEST POP SWAP1 JUMP JUMPDEST PUSH1 0x40 MLOAD DUP1 PUSH2 0x100 ADD PUSH1 0x40 MSTORE DUP1 PUSH1 0x8 SWAP1 JUMPDEST PUSH1 0x60 DUP2 MSTORE PUSH1 0x20 ADD SWAP1 PUSH1 0x1 SWAP1 SUB SWAP1 DUP2 PUSH2 0x8E1 JUMPI SWAP1 POP POP SWAP1 JUMP JUMPDEST JUMPDEST DUP1 DUP3 GT ISZERO PUSH2 0x8CD JUMPI PUSH1 0x0 DUP2 SSTORE PUSH1 0x1 ADD PUSH2 0x8FA JUMP JUMPDEST PUSH1 0x0 DUP3 PUSH1 0x1F DUP4 ADD SLT PUSH2 0x91E JUMPI DUP1 DUP2 REVERT JUMPDEST DUP2 CALLDATALOAD PUSH2 0x931 PUSH2 0x92C DUP3 PUSH2 0xBB6 JUMP JUMPDEST PUSH2 0xB85 JUMP JUMPDEST DUP2 DUP2 MSTORE DUP5 PUSH1 0x20 DUP4 DUP7 ADD ADD GT ISZERO PUSH2 0x945 JUMPI DUP3 DUP4 REVERT JUMPDEST DUP2 PUSH1 0x20 DUP6 ADD PUSH1 0x20 DUP4 ADD CALLDATACOPY SWAP1 DUP2 ADD PUSH1 0x20 ADD SWAP2 SWAP1 SWAP2 MSTORE SWAP3 SWAP2 POP POP JUMP JUMPDEST PUSH1 0x0 PUSH1 0x20 DUP3 DUP5 SUB SLT ISZERO PUSH2 0x970 JUMPI DUP1 DUP2 REVERT JUMPDEST DUP2 MLOAD PUSH1 0x1 PUSH1 0x1 PUSH1 0xA0 SHL SUB DUP2 AND DUP2 EQ PUSH2 0x986 JUMPI DUP2 DUP3 REVERT JUMPDEST SWAP4 SWAP3 POP POP POP JUMP JUMPDEST PUSH1 0x0 PUSH1 0x20 DUP3 DUP5 SUB SLT ISZERO PUSH2 0x99E JUMPI DUP1 DUP2 REVERT JUMPDEST DUP2 MLOAD DUP1 ISZERO ISZERO DUP2 EQ PUSH2 0x986 JUMPI DUP2 DUP3 REVERT JUMPDEST PUSH1 0x0 PUSH1 0x20 DUP3 DUP5 SUB SLT ISZERO PUSH2 0x9BE JUMPI DUP1 DUP2 REVERT JUMPDEST DUP2 MLOAD PUSH8 0xFFFFFFFFFFFFFFFF DUP2 GT ISZERO PUSH2 0x9D4 JUMPI DUP2 DUP3 REVERT JUMPDEST DUP3 ADD PUSH1 0x1F DUP2 ADD DUP5 SGT PUSH2 0x9E4 JUMPI DUP2 DUP3 REVERT JUMPDEST DUP1 MLOAD PUSH2 0x9F2 PUSH2 0x92C DUP3 PUSH2 0xBB6 JUMP JUMPDEST DUP2 DUP2 MSTORE DUP6 PUSH1 0x20 DUP4 DUP6 ADD ADD GT ISZERO PUSH2 0xA06 JUMPI DUP4 DUP5 REVERT JUMPDEST PUSH2 0xA17 DUP3 PUSH1 0x20 DUP4 ADD PUSH1 0x20 DUP7 ADD PUSH2 0xC71 JUMP JUMPDEST SWAP6 SWAP5 POP POP POP POP POP JUMP JUMPDEST PUSH1 0x0 DUP1 PUSH1 0x0 DUP1 PUSH1 0x80 DUP6 DUP8 SUB SLT ISZERO PUSH2 0xA35 JUMPI DUP3 DUP4 REVERT JUMPDEST DUP5 CALLDATALOAD PUSH8 0xFFFFFFFFFFFFFFFF DUP1 DUP3 GT ISZERO PUSH2 0xA4C JUMPI DUP5 DUP6 REVERT JUMPDEST PUSH2 0xA58 DUP9 DUP4 DUP10 ADD PUSH2 0x90E JUMP JUMPDEST SWAP6 POP PUSH1 0x20 DUP8 ADD CALLDATALOAD SWAP2 POP DUP1 DUP3 GT ISZERO PUSH2 0xA6D JUMPI DUP5 DUP6 REVERT JUMPDEST PUSH2 0xA79 DUP9 DUP4 DUP10 ADD PUSH2 0x90E JUMP JUMPDEST SWAP5 POP PUSH1 0x40 DUP8 ADD CALLDATALOAD SWAP2 POP DUP1 DUP3 GT ISZERO PUSH2 0xA8E JUMPI DUP4 DUP5 REVERT JUMPDEST PUSH2 0xA9A DUP9 DUP4 DUP10 ADD PUSH2 0x90E JUMP JUMPDEST SWAP4 POP PUSH1 0x60 DUP8 ADD CALLDATALOAD SWAP2 POP DUP1 DUP3 GT ISZERO PUSH2 0xAAF JUMPI DUP3 DUP4 REVERT JUMPDEST POP PUSH2 0xABC DUP8 DUP3 DUP9 ADD PUSH2 0x90E JUMP JUMPDEST SWAP2 POP POP SWAP3 SWAP6 SWAP2 SWAP5 POP SWAP3 POP JUMP JUMPDEST PUSH1 0x0 PUSH1 0x20 DUP3 DUP5 SUB SLT ISZERO PUSH2 0xAD9 JUMPI DUP1 DUP2 REVERT JUMPDEST POP CALLDATALOAD SWAP2 SWAP1 POP JUMP JUMPDEST PUSH1 0x0 PUSH1 0x20 DUP3 DUP5 SUB SLT ISZERO PUSH2 0xAF1 JUMPI DUP1 DUP2 REVERT JUMPDEST POP MLOAD SWAP2 SWAP1 POP JUMP JUMPDEST PUSH1 0x0 DUP2 MLOAD DUP1 DUP5 MSTORE PUSH2 0xB10 DUP2 PUSH1 0x20 DUP7 ADD PUSH1 0x20 DUP7 ADD PUSH2 0xC71 JUMP JUMPDEST PUSH1 0x1F ADD PUSH1 0x1F NOT AND SWAP3 SWAP1 SWAP3 ADD PUSH1 0x20 ADD SWAP3 SWAP2 POP POP JUMP JUMPDEST PUSH1 0x20 DUP1 DUP3 MSTORE PUSH1 0x0 SWAP1 PUSH2 0x120 DUP4 ADD DUP4 DUP3 ADD DUP6 DUP5 JUMPDEST PUSH1 0x8 DUP2 LT ISZERO PUSH2 0xB66 JUMPI PUSH1 0x1F NOT DUP8 DUP6 SUB ADD DUP4 MSTORE PUSH2 0xB54 DUP5 DUP4 MLOAD PUSH2 0xAF8 JUMP JUMPDEST SWAP4 POP SWAP2 DUP5 ADD SWAP2 SWAP1 DUP5 ADD SWAP1 PUSH1 0x1 ADD PUSH2 0xB37 JUMP JUMPDEST POP SWAP2 SWAP7 SWAP6 POP POP POP POP POP POP JUMP JUMPDEST PUSH1 0x0 PUSH1 0x20 DUP3 MSTORE PUSH2 0x986 PUSH1 0x20 DUP4 ADD DUP5 PUSH2 0xAF8 JUMP JUMPDEST PUSH1 0x40 MLOAD PUSH1 0x1F DUP3 ADD PUSH1 0x1F NOT AND DUP2 ADD PUSH8 0xFFFFFFFFFFFFFFFF DUP2 GT DUP3 DUP3 LT OR ISZERO PUSH2 0xBAE JUMPI PUSH2 0xBAE PUSH2 0xD0D JUMP JUMPDEST PUSH1 0x40 MSTORE SWAP2 SWAP1 POP JUMP JUMPDEST PUSH1 0x0 PUSH8 0xFFFFFFFFFFFFFFFF DUP3 GT ISZERO PUSH2 0xBD0 JUMPI PUSH2 0xBD0 PUSH2 0xD0D JUMP JUMPDEST POP PUSH1 0x1F ADD PUSH1 0x1F NOT AND PUSH1 0x20 ADD SWAP1 JUMP JUMPDEST PUSH1 0x0 DUP3 NOT DUP3 GT ISZERO PUSH2 0xBF1 JUMPI PUSH2 0xBF1 PUSH2 0xCF7 JUMP JUMPDEST POP ADD SWAP1 JUMP JUMPDEST PUSH1 0x0 PUSH1 0xFF DUP3 AND PUSH1 0xFF DUP5 AND DUP1 PUSH1 0xFF SUB DUP3 GT ISZERO PUSH2 0xC13 JUMPI PUSH2 0xC13 PUSH2 0xCF7 JUMP JUMPDEST ADD SWAP4 SWAP3 POP POP POP JUMP JUMPDEST PUSH1 0x0 DUP3 PUSH2 0xC36 JUMPI PUSH4 0x4E487B71 PUSH1 0xE0 SHL DUP2 MSTORE PUSH1 0x12 PUSH1 0x4 MSTORE PUSH1 0x24 DUP2 REVERT JUMPDEST POP DIV SWAP1 JUMP JUMPDEST PUSH1 0x0 DUP2 PUSH1 0x0 NOT DIV DUP4 GT DUP3 ISZERO ISZERO AND ISZERO PUSH2 0xC55 JUMPI PUSH2 0xC55 PUSH2 0xCF7 JUMP JUMPDEST POP MUL SWAP1 JUMP JUMPDEST PUSH1 0x0 DUP3 DUP3 LT ISZERO PUSH2 0xC6C JUMPI PUSH2 0xC6C PUSH2 0xCF7 JUMP JUMPDEST POP SUB SWAP1 JUMP JUMPDEST PUSH1 0x0 JUMPDEST DUP4 DUP2 LT ISZERO PUSH2 0xC8C JUMPI DUP2 DUP2 ADD MLOAD DUP4 DUP3 ADD MSTORE PUSH1 0x20 ADD PUSH2 0xC74 JUMP JUMPDEST DUP4 DUP2 GT ISZERO PUSH2 0xC9B JUMPI PUSH1 0x0 DUP5 DUP5 ADD MSTORE JUMPDEST POP POP POP POP JUMP JUMPDEST PUSH1 0x2 DUP2 DIV PUSH1 0x1 DUP3 AND DUP1 PUSH2 0xCB5 JUMPI PUSH1 0x7F DUP3 AND SWAP2 POP JUMPDEST PUSH1 0x20 DUP3 LT DUP2 EQ ISZERO PUSH2 0xCD6 JUMPI PUSH4 0x4E487B71 PUSH1 0xE0 SHL PUSH1 0x0 MSTORE PUSH1 0x22 PUSH1 0x4 MSTORE PUSH1 0x24 PUSH1 0x0 REVERT JUMPDEST POP SWAP2 SWAP1 POP JUMP JUMPDEST PUSH1 0x0 PUSH1 0x0 NOT DUP3 EQ ISZERO PUSH2 0xCF0 JUMPI PUSH2 0xCF0 PUSH2 0xCF7 JUMP JUMPDEST POP PUSH1 0x1 ADD SWAP1 JUMP JUMPDEST PUSH4 0x4E487B71 PUSH1 0xE0 SHL PUSH1 0x0 MSTORE PUSH1 0x11 PUSH1 0x4 MSTORE PUSH1 0x24 PUSH1 0x0 REVERT JUMPDEST PUSH4 0x4E487B71 PUSH1 0xE0 SHL PUSH1 0x0 MSTORE PUSH1 0x41 PUSH1 0x4 MSTORE PUSH1 0x24 PUSH1 0x0 REVERT INVALID LOG2 PUSH5 0x6970667358 0x22 SLT KECCAK256 XOR 0xAC RETURNDATACOPY BYTE 0xEF DUP15 OR PUSH26 0x7ED211A1C827FF1E08C5DB0596D6CEC3EA2C168429DA59436473 PUSH16 0x6C634300080200336012610200818152 PUSH18 0x26B7B134B634B2B91034B73A32B934B2BAB9 PUSH1 0x71 SHL PUSH2 0x220 MSTORE PUSH1 0x80 SWAP1 DUP2 MSTORE PUSH2 0x240 SWAP2 DUP3 MSTORE PUSH18 0x26B7B134B634B2B91032BC3A32B934B2BAB9 PUSH1 0x71 SHL PUSH2 0x260 MSTORE PUSH1 0xA0 SWAP2 SWAP1 SWAP2 MSTORE PUSH1 0xB PUSH2 0x280 DUP2 DUP2 MSTORE PUSH11 0x4163636573736F69726573 PUSH1 0xA8 SHL PUSH2 0x2A0 MSTORE PUSH1 0xC0 MSTORE PUSH1 0x9 PUSH2 0x2C0 DUP2 DUP2 MSTORE PUSH9 0x5665686963756C6573 PUSH1 0xB8 SHL PUSH2 0x2E0 MSTORE PUSH1 0xE0 MSTORE PUSH1 0xA PUSH2 0x300 DUP2 DUP2 MSTORE PUSH10 0x4D756C74696D65646961 PUSH1 0xB0 SHL PUSH2 0x320 MSTORE PUSH2 0x100 MSTORE PUSH2 0x340 DUP3 DUP2 MSTORE PUSH9 0x566574656D656E7473 PUSH1 0xB8 SHL PUSH2 0x360 MSTORE PUSH2 0x120 MSTORE PUSH2 0x380 SWAP3 DUP4 MSTORE PUSH11 0x4A6575782D766964656F73 PUSH1 0xA8 SHL PUSH2 0x3A0 MSTORE PUSH2 0x140 SWAP3 SWAP1 SWAP3 MSTORE PUSH1 0x8 PUSH2 0x3C0 SWAP1 DUP2 MSTORE PUSH8 0x5365727669636573 PUSH1 0xC0 SHL PUSH2 0x3E0 MSTORE PUSH2 0x160 MSTORE PUSH2 0x400 SWAP1 DUP2 MSTORE PUSH9 0x90D2CED05AA8CAC6D PUSH1 0xBB SHL PUSH2 0x420 MSTORE PUSH2 0x180 MSTORE PUSH1 0xE PUSH2 0x440 SWAP1 DUP2 MSTORE PUSH14 0x22B632B1BA3937B6B2B730B3B2B9 PUSH1 0x91 SHL PUSH2 0x460 MSTORE PUSH2 0x1A0 MSTORE PUSH2 0x480 DUP2 DUP2 MSTORE PUSH10 0x2232B1B7B930BA34B7B7 PUSH1 0xB1 SHL PUSH2 0x4A0 MSTORE PUSH2 0x1C0 MSTORE PUSH2 0x500 PUSH1 0x40 MSTORE PUSH2 0x4C0 DUP2 DUP2 MSTORE PUSH10 0x24B6B6B7B134B634B2B9 PUSH1 0xB1 SHL PUSH2 0x4E0 MSTORE PUSH2 0x1E0 MSTORE PUSH3 0x183 SWAP2 PUSH1 0xC PUSH3 0x394 JUMP JUMPDEST POP CALLVALUE DUP1 ISZERO PUSH3 0x191 JUMPI PUSH1 0x0 DUP1 REVERT JUMPDEST POP PUSH1 0x40 MLOAD PUSH3 0x1A08 CODESIZE SUB DUP1 PUSH3 0x1A08 DUP4 CODECOPY DUP2 ADD PUSH1 0x40 DUP2 SWAP1 MSTORE PUSH3 0x1B4 SWAP2 PUSH3 0x5AC JUMP JUMPDEST PUSH1 0x0 DUP1 JUMPDEST PUSH1 0xA SLOAD DUP2 LT ISZERO PUSH3 0x261 JUMPI PUSH1 0xA DUP2 DUP2 SLOAD DUP2 LT PUSH3 0x1E5 JUMPI PUSH4 0x4E487B71 PUSH1 0xE0 SHL PUSH1 0x0 MSTORE PUSH1 0x32 PUSH1 0x4 MSTORE PUSH1 0x24 PUSH1 0x0 REVERT JUMPDEST SWAP1 PUSH1 0x0 MSTORE PUSH1 0x20 PUSH1 0x0 KECCAK256 ADD PUSH1 0x40 MLOAD PUSH1 0x20 ADD PUSH3 0x201 SWAP2 SWAP1 PUSH3 0x710 JUMP JUMPDEST PUSH1 0x40 MLOAD PUSH1 0x20 DUP2 DUP4 SUB SUB DUP2 MSTORE SWAP1 PUSH1 0x40 MSTORE DUP1 MLOAD SWAP1 PUSH1 0x20 ADD KECCAK256 DUP5 PUSH1 0x40 MLOAD PUSH1 0x20 ADD PUSH3 0x22A SWAP2 SWAP1 PUSH3 0x6F2 JUMP JUMPDEST PUSH1 0x40 MLOAD PUSH1 0x20 DUP2 DUP4 SUB SUB DUP2 MSTORE SWAP1 PUSH1 0x40 MSTORE DUP1 MLOAD SWAP1 PUSH1 0x20 ADD KECCAK256 EQ ISZERO PUSH3 0x24C JUMPI PUSH1 0x1 SWAP2 POP JUMPDEST DUP1 PUSH3 0x258 DUP2 PUSH3 0x823 JUMP JUMPDEST SWAP2 POP POP PUSH3 0x1B8 JUMP JUMPDEST POP DUP1 PUSH3 0x2C2 JUMPI PUSH1 0x40 MLOAD PUSH3 0x461BCD PUSH1 0xE5 SHL DUP2 MSTORE PUSH1 0x20 PUSH1 0x4 DUP3 ADD MSTORE PUSH1 0x25 PUSH1 0x24 DUP3 ADD MSTORE PUSH32 0x4C612063617465676F7269652073656C656374696F6E6E65206E276578697374 PUSH1 0x44 DUP3 ADD MSTORE PUSH5 0x6520706173 PUSH1 0xD8 SHL PUSH1 0x64 DUP3 ADD MSTORE PUSH1 0x84 ADD PUSH1 0x40 MLOAD DUP1 SWAP2 SUB SWAP1 REVERT JUMPDEST DUP9 MLOAD PUSH3 0x2D7 SWAP1 PUSH1 0x0 SWAP1 PUSH1 0x20 DUP13 ADD SWAP1 PUSH3 0x3F8 JUMP JUMPDEST POP DUP8 MLOAD PUSH3 0x2ED SWAP1 PUSH1 0x1 SWAP1 PUSH1 0x20 DUP12 ADD SWAP1 PUSH3 0x3F8 JUMP JUMPDEST POP DUP7 MLOAD PUSH3 0x303 SWAP1 PUSH1 0x2 SWAP1 PUSH1 0x20 DUP11 ADD SWAP1 PUSH3 0x3F8 JUMP JUMPDEST POP PUSH1 0x3 DUP7 SWAP1 SSTORE DUP4 MLOAD PUSH3 0x31E SWAP1 PUSH1 0x4 SWAP1 PUSH1 0x20 DUP8 ADD SWAP1 PUSH3 0x3F8 JUMP JUMPDEST POP DUP5 MLOAD PUSH3 0x334 SWAP1 PUSH1 0x5 SWAP1 PUSH1 0x20 DUP9 ADD SWAP1 PUSH3 0x3F8 JUMP JUMPDEST POP PUSH1 0x7 DUP1 SLOAD PUSH1 0x1 PUSH1 0x1 PUSH1 0xA0 SHL SUB NOT AND PUSH1 0x1 PUSH1 0x1 PUSH1 0xA0 SHL SUB DUP13 AND OR SWAP1 SSTORE DUP2 MLOAD PUSH3 0x365 SWAP1 PUSH1 0x6 SWAP1 PUSH1 0x20 DUP6 ADD SWAP1 PUSH3 0x3F8 JUMP JUMPDEST POP POP PUSH1 0x7 DUP1 SLOAD PUSH1 0xFF PUSH1 0xA0 SHL NOT AND SWAP1 SSTORE POP POP PUSH1 0x8 DUP1 SLOAD PUSH1 0x1 PUSH1 0x1 PUSH1 0xA0 SHL SUB NOT AND SWAP1 SSTORE POP PUSH3 0x861 SWAP6 POP POP POP POP POP POP JUMP JUMPDEST DUP3 DUP1 SLOAD DUP3 DUP3 SSTORE SWAP1 PUSH1 0x0 MSTORE PUSH1 0x20 PUSH1 0x0 KECCAK256 SWAP1 DUP2 ADD SWAP3 DUP3 ISZERO PUSH3 0x3E6 JUMPI SWAP2 PUSH1 0x20 MUL DUP3 ADD JUMPDEST DUP3 DUP2 GT ISZERO PUSH3 0x3E6 JUMPI DUP3 MLOAD DUP1 MLOAD PUSH3 0x3D5 SWAP2 DUP5 SWAP2 PUSH1 0x20 SWAP1 SWAP2 ADD SWAP1 PUSH3 0x3F8 JUMP JUMPDEST POP SWAP2 PUSH1 0x20 ADD SWAP2 SWAP1 PUSH1 0x1 ADD SWAP1 PUSH3 0x3B5 JUMP JUMPDEST POP PUSH3 0x3F4 SWAP3 SWAP2 POP PUSH3 0x483 JUMP JUMPDEST POP SWAP1 JUMP JUMPDEST DUP3 DUP1 SLOAD PUSH3 0x406 SWAP1 PUSH3 0x7E6 JUMP JUMPDEST SWAP1 PUSH1 0x0 MSTORE PUSH1 0x20 PUSH1 0x0 KECCAK256 SWAP1 PUSH1 0x1F ADD PUSH1 0x20 SWAP1 DIV DUP2 ADD SWAP3 DUP3 PUSH3 0x42A JUMPI PUSH1 0x0 DUP6 SSTORE PUSH3 0x475 JUMP JUMPDEST DUP3 PUSH1 0x1F LT PUSH3 0x445 JUMPI DUP1 MLOAD PUSH1 0xFF NOT AND DUP4 DUP1 ADD OR DUP6 SSTORE PUSH3 0x475 JUMP JUMPDEST DUP3 DUP1 ADD PUSH1 0x1 ADD DUP6 SSTORE DUP3 ISZERO PUSH3 0x475 JUMPI SWAP2 DUP3 ADD JUMPDEST DUP3 DUP2 GT ISZERO PUSH3 0x475 JUMPI DUP3 MLOAD DUP3 SSTORE SWAP2 PUSH1 0x20 ADD SWAP2 SWAP1 PUSH1 0x1 ADD SWAP1 PUSH3 0x458 JUMP JUMPDEST POP PUSH3 0x3F4 SWAP3 SWAP2 POP PUSH3 0x4A4 JUMP JUMPDEST DUP1 DUP3 GT ISZERO PUSH3 0x3F4 JUMPI PUSH1 0x0 PUSH3 0x49A DUP3 DUP3 PUSH3 0x4BB JUMP JUMPDEST POP PUSH1 0x1 ADD PUSH3 0x483 JUMP JUMPDEST JUMPDEST DUP1 DUP3 GT ISZERO PUSH3 0x3F4 JUMPI PUSH1 0x0 DUP2 SSTORE PUSH1 0x1 ADD PUSH3 0x4A5 JUMP JUMPDEST POP DUP1 SLOAD PUSH3 0x4C9 SWAP1 PUSH3 0x7E6 JUMP JUMPDEST PUSH1 0x0 DUP3 SSTORE DUP1 PUSH1 0x1F LT PUSH3 0x4DD JUMPI POP PUSH3 0x4FD JUMP JUMPDEST PUSH1 0x1F ADD PUSH1 0x20 SWAP1 DIV SWAP1 PUSH1 0x0 MSTORE PUSH1 0x20 PUSH1 0x0 KECCAK256 SWAP1 DUP2 ADD SWAP1 PUSH3 0x4FD SWAP2 SWAP1 PUSH3 0x4A4 JUMP JUMPDEST POP JUMP JUMPDEST DUP1 MLOAD PUSH1 0x1 PUSH1 0x1 PUSH1 0xA0 SHL SUB DUP2 AND DUP2 EQ PUSH3 0x518 JUMPI PUSH1 0x0 DUP1 REVERT JUMPDEST SWAP2 SWAP1 POP JUMP JUMPDEST PUSH1 0x0 DUP3 PUSH1 0x1F DUP4 ADD SLT PUSH3 0x52E JUMPI DUP1 DUP2 REVERT JUMPDEST DUP2 MLOAD PUSH1 0x1 PUSH1 0x1 PUSH1 0x40 SHL SUB DUP1 DUP3 GT ISZERO PUSH3 0x54B JUMPI PUSH3 0x54B PUSH3 0x84B JUMP JUMPDEST PUSH1 0x40 MLOAD PUSH1 0x1F DUP4 ADD PUSH1 0x1F NOT SWAP1 DUP2 AND PUSH1 0x3F ADD AND DUP2 ADD SWAP1 DUP3 DUP3 GT DUP2 DUP4 LT OR ISZERO PUSH3 0x576 JUMPI PUSH3 0x576 PUSH3 0x84B JUMP JUMPDEST DUP2 PUSH1 0x40 MSTORE DUP4 DUP2 MSTORE DUP7 PUSH1 0x20 DUP6 DUP9 ADD ADD GT ISZERO PUSH3 0x58F JUMPI DUP5 DUP6 REVERT JUMPDEST PUSH3 0x5A2 DUP5 PUSH1 0x20 DUP4 ADD PUSH1 0x20 DUP10 ADD PUSH3 0x7B3 JUMP JUMPDEST SWAP7 SWAP6 POP POP POP POP POP POP JUMP JUMPDEST PUSH1 0x0 DUP1 PUSH1 0x0 DUP1 PUSH1 0x0 DUP1 PUSH1 0x0 DUP1 PUSH1 0x0 PUSH2 0x120 DUP11 DUP13 SUB SLT ISZERO PUSH3 0x5CB JUMPI DUP5 DUP6 REVERT JUMPDEST PUSH3 0x5D6 DUP11 PUSH3 0x500 JUMP JUMPDEST PUSH1 0x20 DUP12 ADD MLOAD SWAP1 SWAP10 POP PUSH1 0x1 PUSH1 0x1 PUSH1 0x40 SHL SUB DUP1 DUP3 GT ISZERO PUSH3 0x5F3 JUMPI DUP7 DUP8 REVERT JUMPDEST PUSH3 0x601 DUP14 DUP4 DUP15 ADD PUSH3 0x51D JUMP JUMPDEST SWAP10 POP PUSH1 0x40 DUP13 ADD MLOAD SWAP2 POP DUP1 DUP3 GT ISZERO PUSH3 0x617 JUMPI DUP7 DUP8 REVERT JUMPDEST PUSH3 0x625 DUP14 DUP4 DUP15 ADD PUSH3 0x51D JUMP JUMPDEST SWAP9 POP PUSH1 0x60 DUP13 ADD MLOAD SWAP2 POP DUP1 DUP3 GT ISZERO PUSH3 0x63B JUMPI DUP7 DUP8 REVERT JUMPDEST PUSH3 0x649 DUP14 DUP4 DUP15 ADD PUSH3 0x51D JUMP JUMPDEST SWAP8 POP PUSH1 0x80 DUP13 ADD MLOAD SWAP7 POP PUSH1 0xA0 DUP13 ADD MLOAD SWAP2 POP DUP1 DUP3 GT ISZERO PUSH3 0x666 JUMPI DUP6 DUP7 REVERT JUMPDEST PUSH3 0x674 DUP14 DUP4 DUP15 ADD PUSH3 0x51D JUMP JUMPDEST SWAP6 POP PUSH1 0xC0 DUP13 ADD MLOAD SWAP2 POP DUP1 DUP3 GT ISZERO PUSH3 0x68A JUMPI DUP5 DUP6 REVERT JUMPDEST PUSH3 0x698 DUP14 DUP4 DUP15 ADD PUSH3 0x51D JUMP JUMPDEST SWAP5 POP PUSH1 0xE0 DUP13 ADD MLOAD SWAP2 POP DUP1 DUP3 GT ISZERO PUSH3 0x6AE JUMPI DUP4 DUP5 REVERT JUMPDEST PUSH3 0x6BC DUP14 DUP4 DUP15 ADD PUSH3 0x51D JUMP JUMPDEST SWAP4 POP PUSH2 0x100 DUP13 ADD MLOAD SWAP2 POP DUP1 DUP3 GT ISZERO PUSH3 0x6D3 JUMPI DUP3 DUP4 REVERT JUMPDEST POP PUSH3 0x6E2 DUP13 DUP3 DUP14 ADD PUSH3 0x51D JUMP JUMPDEST SWAP2 POP POP SWAP3 SWAP6 SWAP9 POP SWAP3 SWAP6 SWAP9 POP SWAP3 SWAP6 SWAP9 JUMP JUMPDEST PUSH1 0x0 DUP3 MLOAD PUSH3 0x706 DUP2 DUP5 PUSH1 0x20 DUP8 ADD PUSH3 0x7B3 JUMP JUMPDEST SWAP2 SWAP1 SWAP2 ADD SWAP3 SWAP2 POP POP JUMP JUMPDEST DUP2 SLOAD PUSH1 0x0 SWAP1 DUP2 SWAP1 PUSH1 0x2 DUP2 DIV PUSH1 0x1 DUP1 DUP4 AND DUP1 PUSH3 0x72D JUMPI PUSH1 0x7F DUP4 AND SWAP3 POP JUMPDEST PUSH1 0x20 DUP1 DUP5 LT DUP3 EQ ISZERO PUSH3 0x74E JUMPI PUSH4 0x4E487B71 PUSH1 0xE0 SHL DUP8 MSTORE PUSH1 0x22 PUSH1 0x4 MSTORE PUSH1 0x24 DUP8 REVERT JUMPDEST DUP2 DUP1 ISZERO PUSH3 0x765 JUMPI PUSH1 0x1 DUP2 EQ PUSH3 0x777 JUMPI PUSH3 0x7A5 JUMP JUMPDEST PUSH1 0xFF NOT DUP7 AND DUP10 MSTORE DUP5 DUP10 ADD SWAP7 POP PUSH3 0x7A5 JUMP JUMPDEST PUSH1 0x0 DUP11 DUP2 MSTORE PUSH1 0x20 SWAP1 KECCAK256 DUP9 JUMPDEST DUP7 DUP2 LT ISZERO PUSH3 0x79D JUMPI DUP2 SLOAD DUP12 DUP3 ADD MSTORE SWAP1 DUP6 ADD SWAP1 DUP4 ADD PUSH3 0x782 JUMP JUMPDEST POP POP DUP5 DUP10 ADD SWAP7 POP JUMPDEST POP SWAP5 SWAP9 SWAP8 POP POP POP POP POP POP POP POP JUMP JUMPDEST PUSH1 0x0 JUMPDEST DUP4 DUP2 LT ISZERO PUSH3 0x7D0 JUMPI DUP2 DUP2 ADD MLOAD DUP4 DUP3 ADD MSTORE PUSH1 0x20 ADD PUSH3 0x7B6 JUMP JUMPDEST DUP4 DUP2 GT ISZERO PUSH3 0x7E0 JUMPI PUSH1 0x0 DUP5 DUP5 ADD MSTORE JUMPDEST POP POP POP POP JUMP JUMPDEST PUSH1 0x2 DUP2 DIV PUSH1 0x1 DUP3 AND DUP1 PUSH3 0x7FB JUMPI PUSH1 0x7F DUP3 AND SWAP2 POP JUMPDEST PUSH1 0x20 DUP3 LT DUP2 EQ ISZERO PUSH3 0x81D JUMPI PUSH4 0x4E487B71 PUSH1 0xE0 SHL PUSH1 0x0 MSTORE PUSH1 0x22 PUSH1 0x4 MSTORE PUSH1 0x24 PUSH1 0x0 REVERT JUMPDEST POP SWAP2 SWAP1 POP JUMP JUMPDEST PUSH1 0x0 PUSH1 0x0 NOT DUP3 EQ ISZERO PUSH3 0x844 JUMPI PUSH4 0x4E487B71 PUSH1 0xE0 SHL DUP2 MSTORE PUSH1 0x11 PUSH1 0x4 MSTORE PUSH1 0x24 DUP2 REVERT JUMPDEST POP PUSH1 0x1 ADD SWAP1 JUMP JUMPDEST PUSH4 0x4E487B71 PUSH1 0xE0 SHL PUSH1 0x0 MSTORE PUSH1 0x41 PUSH1 0x4 MSTORE PUSH1 0x24 PUSH1 0x0 REVERT JUMPDEST PUSH2 0x1197 DUP1 PUSH3 0x871 PUSH1 0x0 CODECOPY PUSH1 0x0 RETURN INVALID PUSH1 0x80 PUSH1 0x40 MSTORE CALLVALUE DUP1 ISZERO PUSH2 0x10 JUMPI PUSH1 0x0 DUP1 REVERT JUMPDEST POP PUSH1 0x4 CALLDATASIZE LT PUSH2 0xF5 JUMPI PUSH1 0x0 CALLDATALOAD PUSH1 0xE0 SHR DUP1 PUSH4 0xAA5761AC GT PUSH2 0x97 JUMPI DUP1 PUSH4 0xD64C9379 GT PUSH2 0x66 JUMPI DUP1 PUSH4 0xD64C9379 EQ PUSH2 0x20A JUMPI DUP1 PUSH4 0xE959740A EQ PUSH2 0x212 JUMPI DUP1 PUSH4 0xEA382FA9 EQ PUSH2 0x21A JUMPI DUP1 PUSH4 0xEE0EBE7A EQ PUSH2 0x22F JUMPI PUSH2 0xF5 JUMP JUMPDEST DUP1 PUSH4 0xAA5761AC EQ PUSH2 0x1B4 JUMPI DUP1 PUSH4 0xC65E9C79 EQ PUSH2 0x1BC JUMPI DUP1 PUSH4 0xC6CDBE5E EQ PUSH2 0x1D3 JUMPI DUP1 PUSH4 0xD4ABF017 EQ PUSH2 0x1E6 JUMPI PUSH2 0xF5 JUMP JUMPDEST DUP1 PUSH4 0x562EA737 GT PUSH2 0xD3 JUMPI DUP1 PUSH4 0x562EA737 EQ PUSH2 0x189 JUMPI DUP1 PUSH4 0x7284E416 EQ PUSH2 0x19C JUMPI DUP1 PUSH4 0xA2287C86 EQ PUSH2 0x1A4 JUMPI DUP1 PUSH4 0xA9F67CBF EQ PUSH2 0x1AC JUMPI PUSH2 0xF5 JUMP JUMPDEST DUP1 PUSH4 0x18484D74 EQ PUSH2 0xFA JUMPI DUP1 PUSH4 0x250EBA32 EQ PUSH2 0x118 JUMPI DUP1 PUSH4 0x4F8632BA EQ PUSH2 0x15E JUMPI JUMPDEST PUSH1 0x0 DUP1 REVERT JUMPDEST PUSH2 0x102 PUSH2 0x242 JUMP JUMPDEST PUSH1 0x40 MLOAD PUSH2 0x10F SWAP2 SWAP1 PUSH2 0xFB0 JUMP JUMPDEST PUSH1 0x40 MLOAD DUP1 SWAP2 SUB SWAP1 RETURN JUMPDEST PUSH2 0x15C PUSH2 0x126 CALLDATASIZE PUSH1 0x4 PUSH2 0xC84 JUMP JUMPDEST PUSH1 0x7 DUP1 SLOAD PUSH1 0xFF PUSH1 0xA0 SHL NOT AND PUSH1 0x1 PUSH1 0xA0 SHL OR SWAP1 SSTORE PUSH1 0x8 DUP1 SLOAD PUSH1 0x1 PUSH1 0x1 PUSH1 0xA0 SHL SUB SWAP1 SWAP3 AND PUSH1 0x1 PUSH1 0x1 PUSH1 0xA0 SHL SUB NOT SWAP1 SWAP3 AND SWAP2 SWAP1 SWAP2 OR SWAP1 SSTORE JUMP JUMPDEST STOP JUMPDEST PUSH1 0x7 SLOAD PUSH2 0x171 SWAP1 PUSH1 0x1 PUSH1 0x1 PUSH1 0xA0 SHL SUB AND DUP2 JUMP JUMPDEST PUSH1 0x40 MLOAD PUSH1 0x1 PUSH1 0x1 PUSH1 0xA0 SHL SUB SWAP1 SWAP2 AND DUP2 MSTORE PUSH1 0x20 ADD PUSH2 0x10F JUMP JUMPDEST PUSH2 0x15C PUSH2 0x197 CALLDATASIZE PUSH1 0x4 PUSH2 0xD56 JUMP JUMPDEST PUSH2 0x2D0 JUMP JUMPDEST PUSH2 0x102 PUSH2 0x45A JUMP JUMPDEST PUSH2 0x102 PUSH2 0x467 JUMP JUMPDEST PUSH2 0x102 PUSH2 0x474 JUMP JUMPDEST PUSH2 0x102 PUSH2 0x481 JUMP JUMPDEST PUSH2 0x1C5 PUSH1 0x3 SLOAD DUP2 JUMP JUMPDEST PUSH1 0x40 MLOAD SWAP1 DUP2 MSTORE PUSH1 0x20 ADD PUSH2 0x10F JUMP JUMPDEST PUSH2 0x102 PUSH2 0x1E1 CALLDATASIZE PUSH1 0x4 PUSH2 0xE4F JUMP JUMPDEST PUSH2 0x48E JUMP JUMPDEST PUSH1 0x7 SLOAD PUSH2 0x1FA SWAP1 PUSH1 0x1 PUSH1 0xA0 SHL SWAP1 DIV PUSH1 0xFF AND DUP2 JUMP JUMPDEST PUSH1 0x40 MLOAD SWAP1 ISZERO ISZERO DUP2 MSTORE PUSH1 0x20 ADD PUSH2 0x10F JUMP JUMPDEST PUSH2 0x102 PUSH2 0x4B9 JUMP JUMPDEST PUSH2 0x102 PUSH2 0x4C6 JUMP JUMPDEST PUSH2 0x222 PUSH2 0x4D3 JUMP JUMPDEST PUSH1 0x40 MLOAD PUSH2 0x10F SWAP2 SWAP1 PUSH2 0xF62 JUMP JUMPDEST PUSH1 0x8 SLOAD PUSH2 0x171 SWAP1 PUSH1 0x1 PUSH1 0x1 PUSH1 0xA0 SHL SUB AND DUP2 JUMP JUMPDEST PUSH1 0x4 DUP1 SLOAD PUSH2 0x24F SWAP1 PUSH2 0x10C7 JUMP JUMPDEST DUP1 PUSH1 0x1F ADD PUSH1 0x20 DUP1 SWAP2 DIV MUL PUSH1 0x20 ADD PUSH1 0x40 MLOAD SWAP1 DUP2 ADD PUSH1 0x40 MSTORE DUP1 SWAP3 SWAP2 SWAP1 DUP2 DUP2 MSTORE PUSH1 0x20 ADD DUP3 DUP1 SLOAD PUSH2 0x27B SWAP1 PUSH2 0x10C7 JUMP JUMPDEST DUP1 ISZERO PUSH2 0x2C8 JUMPI DUP1 PUSH1 0x1F LT PUSH2 0x29D JUMPI PUSH2 0x100 DUP1 DUP4 SLOAD DIV MUL DUP4 MSTORE SWAP2 PUSH1 0x20 ADD SWAP2 PUSH2 0x2C8 JUMP JUMPDEST DUP3 ADD SWAP2 SWAP1 PUSH1 0x0 MSTORE PUSH1 0x20 PUSH1 0x0 KECCAK256 SWAP1 JUMPDEST DUP2 SLOAD DUP2 MSTORE SWAP1 PUSH1 0x1 ADD SWAP1 PUSH1 0x20 ADD DUP1 DUP4 GT PUSH2 0x2AB JUMPI DUP3 SWAP1 SUB PUSH1 0x1F AND DUP3 ADD SWAP2 JUMPDEST POP POP POP POP POP DUP2 JUMP JUMPDEST PUSH1 0x0 DUP1 JUMPDEST PUSH1 0xA SLOAD DUP2 LT ISZERO PUSH2 0x373 JUMPI PUSH1 0xA DUP2 DUP2 SLOAD DUP2 LT PUSH2 0x2FF JUMPI PUSH4 0x4E487B71 PUSH1 0xE0 SHL PUSH1 0x0 MSTORE PUSH1 0x32 PUSH1 0x4 MSTORE PUSH1 0x24 PUSH1 0x0 REVERT JUMPDEST SWAP1 PUSH1 0x0 MSTORE PUSH1 0x20 PUSH1 0x0 KECCAK256 ADD PUSH1 0x40 MLOAD PUSH1 0x20 ADD PUSH2 0x319 SWAP2 SWAP1 PUSH2 0xEC7 JUMP JUMPDEST PUSH1 0x40 MLOAD PUSH1 0x20 DUP2 DUP4 SUB SUB DUP2 MSTORE SWAP1 PUSH1 0x40 MSTORE DUP1 MLOAD SWAP1 PUSH1 0x20 ADD KECCAK256 DUP5 PUSH1 0x40 MLOAD PUSH1 0x20 ADD PUSH2 0x340 SWAP2 SWAP1 PUSH2 0xEAB JUMP JUMPDEST PUSH1 0x40 MLOAD PUSH1 0x20 DUP2 DUP4 SUB SUB DUP2 MSTORE SWAP1 PUSH1 0x40 MSTORE DUP1 MLOAD SWAP1 PUSH1 0x20 ADD KECCAK256 EQ ISZERO PUSH2 0x361 JUMPI PUSH1 0x1 SWAP2 POP JUMPDEST DUP1 PUSH2 0x36B DUP2 PUSH2 0x1102 JUMP JUMPDEST SWAP2 POP POP PUSH2 0x2D4 JUMP JUMPDEST POP DUP1 PUSH2 0x3D3 JUMPI PUSH1 0x40 MLOAD PUSH3 0x461BCD PUSH1 0xE5 SHL DUP2 MSTORE PUSH1 0x20 PUSH1 0x4 DUP3 ADD MSTORE PUSH1 0x25 PUSH1 0x24 DUP3 ADD MSTORE PUSH32 0x4C612063617465676F7269652073656C656374696F6E6E65206E276578697374 PUSH1 0x44 DUP3 ADD MSTORE PUSH5 0x6520706173 PUSH1 0xD8 SHL PUSH1 0x64 DUP3 ADD MSTORE PUSH1 0x84 ADD PUSH1 0x40 MLOAD DUP1 SWAP2 SUB SWAP1 REVERT JUMPDEST DUP8 MLOAD PUSH2 0x3E6 SWAP1 PUSH1 0x0 SWAP1 PUSH1 0x20 DUP12 ADD SWAP1 PUSH2 0xB72 JUMP JUMPDEST POP DUP7 MLOAD PUSH2 0x3FA SWAP1 PUSH1 0x1 SWAP1 PUSH1 0x20 DUP11 ADD SWAP1 PUSH2 0xB72 JUMP JUMPDEST POP DUP6 MLOAD PUSH2 0x40E SWAP1 PUSH1 0x2 SWAP1 PUSH1 0x20 DUP10 ADD SWAP1 PUSH2 0xB72 JUMP JUMPDEST POP PUSH1 0x3 DUP6 SWAP1 SSTORE DUP2 MLOAD PUSH2 0x427 SWAP1 PUSH1 0x4 SWAP1 PUSH1 0x20 DUP6 ADD SWAP1 PUSH2 0xB72 JUMP JUMPDEST POP DUP3 MLOAD PUSH2 0x43B SWAP1 PUSH1 0x9 SWAP1 PUSH1 0x20 DUP7 ADD SWAP1 PUSH2 0xB72 JUMP JUMPDEST POP DUP4 MLOAD PUSH2 0x44F SWAP1 PUSH1 0x5 SWAP1 PUSH1 0x20 DUP8 ADD SWAP1 PUSH2 0xB72 JUMP JUMPDEST POP POP POP POP POP POP POP POP POP JUMP JUMPDEST PUSH1 0x1 DUP1 SLOAD PUSH2 0x24F SWAP1 PUSH2 0x10C7 JUMP JUMPDEST PUSH1 0x2 DUP1 SLOAD PUSH2 0x24F SWAP1 PUSH2 0x10C7 JUMP JUMPDEST PUSH1 0x5 DUP1 SLOAD PUSH2 0x24F SWAP1 PUSH2 0x10C7 JUMP JUMPDEST PUSH1 0x9 DUP1 SLOAD PUSH2 0x24F SWAP1 PUSH2 0x10C7 JUMP JUMPDEST PUSH1 0xA DUP2 DUP2 SLOAD DUP2 LT PUSH2 0x49E JUMPI PUSH1 0x0 DUP1 REVERT JUMPDEST SWAP1 PUSH1 0x0 MSTORE PUSH1 0x20 PUSH1 0x0 KECCAK256 ADD PUSH1 0x0 SWAP2 POP SWAP1 POP DUP1 SLOAD PUSH2 0x24F SWAP1 PUSH2 0x10C7 JUMP JUMPDEST PUSH1 0x0 DUP1 SLOAD PUSH2 0x24F SWAP1 PUSH2 0x10C7 JUMP JUMPDEST PUSH1 0x6 DUP1 SLOAD PUSH2 0x24F SWAP1 PUSH2 0x10C7 JUMP JUMPDEST PUSH2 0x4DB PUSH2 0xBF6 JUMP JUMPDEST PUSH2 0x4E3 PUSH2 0xBF6 JUMP JUMPDEST ADDRESS PUSH1 0x1 PUSH1 0x1 PUSH1 0xA0 SHL SUB AND PUSH4 0xD64C9379 PUSH1 0x40 MLOAD DUP2 PUSH4 0xFFFFFFFF AND PUSH1 0xE0 SHL DUP2 MSTORE PUSH1 0x4 ADD PUSH1 0x0 PUSH1 0x40 MLOAD DUP1 DUP4 SUB DUP2 DUP7 DUP1 EXTCODESIZE ISZERO DUP1 ISZERO PUSH2 0x51C JUMPI PUSH1 0x0 DUP1 REVERT JUMPDEST POP GAS STATICCALL ISZERO DUP1 ISZERO PUSH2 0x530 JUMPI RETURNDATASIZE PUSH1 0x0 DUP1 RETURNDATACOPY RETURNDATASIZE PUSH1 0x0 REVERT JUMPDEST POP POP POP POP PUSH1 0x40 MLOAD RETURNDATASIZE PUSH1 0x0 DUP3 RETURNDATACOPY PUSH1 0x1F RETURNDATASIZE SWAP1 DUP2 ADD PUSH1 0x1F NOT AND DUP3 ADD PUSH1 0x40 MSTORE PUSH2 0x558 SWAP2 SWAP1 DUP2 ADD SWAP1 PUSH2 0xCE3 JUMP JUMPDEST DUP2 MSTORE PUSH1 0x40 DUP1 MLOAD PUSH4 0x3942720B PUSH1 0xE1 SHL DUP2 MSTORE SWAP1 MLOAD ADDRESS SWAP2 PUSH4 0x7284E416 SWAP2 PUSH1 0x4 DUP1 DUP4 ADD SWAP3 PUSH1 0x0 SWAP3 SWAP2 SWAP1 DUP3 SWAP1 SUB ADD DUP2 DUP7 DUP1 EXTCODESIZE ISZERO DUP1 ISZERO PUSH2 0x591 JUMPI PUSH1 0x0 DUP1 REVERT JUMPDEST POP GAS STATICCALL ISZERO DUP1 ISZERO PUSH2 0x5A5 JUMPI RETURNDATASIZE PUSH1 0x0 DUP1 RETURNDATACOPY RETURNDATASIZE PUSH1 0x0 REVERT JUMPDEST POP POP POP POP PUSH1 0x40 MLOAD RETURNDATASIZE PUSH1 0x0 DUP3 RETURNDATACOPY PUSH1 0x1F RETURNDATASIZE SWAP1 DUP2 ADD PUSH1 0x1F NOT AND DUP3 ADD PUSH1 0x40 MSTORE PUSH2 0x5CD SWAP2 SWAP1 DUP2 ADD SWAP1 PUSH2 0xCE3 JUMP JUMPDEST PUSH1 0x20 DUP3 ADD MSTORE PUSH1 0x40 DUP1 MLOAD PUSH4 0x51143E43 PUSH1 0xE1 SHL DUP2 MSTORE SWAP1 MLOAD ADDRESS SWAP2 PUSH4 0xA2287C86 SWAP2 PUSH1 0x4 DUP1 DUP4 ADD SWAP3 PUSH1 0x0 SWAP3 SWAP2 SWAP1 DUP3 SWAP1 SUB ADD DUP2 DUP7 DUP1 EXTCODESIZE ISZERO DUP1 ISZERO PUSH2 0x609 JUMPI PUSH1 0x0 DUP1 REVERT JUMPDEST POP GAS STATICCALL ISZERO DUP1 ISZERO PUSH2 0x61D JUMPI RETURNDATASIZE PUSH1 0x0 DUP1 RETURNDATACOPY RETURNDATASIZE PUSH1 0x0 REVERT JUMPDEST POP POP POP POP PUSH1 0x40 MLOAD RETURNDATASIZE PUSH1 0x0 DUP3 RETURNDATACOPY PUSH1 0x1F RETURNDATASIZE SWAP1 DUP2 ADD PUSH1 0x1F NOT AND DUP3 ADD PUSH1 0x40 MSTORE PUSH2 0x645 SWAP2 SWAP1 DUP2 ADD SWAP1 PUSH2 0xCE3 JUMP JUMPDEST DUP2 PUSH1 0x2 PUSH1 0x20 MUL ADD DUP2 SWAP1 MSTORE POP PUSH2 0x6C9 ADDRESS PUSH1 0x1 PUSH1 0x1 PUSH1 0xA0 SHL SUB AND PUSH4 0xC65E9C79 PUSH1 0x40 MLOAD DUP2 PUSH4 0xFFFFFFFF AND PUSH1 0xE0 SHL DUP2 MSTORE PUSH1 0x4 ADD PUSH1 0x20 PUSH1 0x40 MLOAD DUP1 DUP4 SUB DUP2 DUP7 DUP1 EXTCODESIZE ISZERO DUP1 ISZERO PUSH2 0x68C JUMPI PUSH1 0x0 DUP1 REVERT JUMPDEST POP GAS STATICCALL ISZERO DUP1 ISZERO PUSH2 0x6A0 JUMPI RETURNDATASIZE PUSH1 0x0 DUP1 RETURNDATACOPY RETURNDATASIZE PUSH1 0x0 REVERT JUMPDEST POP POP POP POP PUSH1 0x40 MLOAD RETURNDATASIZE PUSH1 0x1F NOT PUSH1 0x1F DUP3 ADD AND DUP3 ADD DUP1 PUSH1 0x40 MSTORE POP DUP2 ADD SWAP1 PUSH2 0x6C4 SWAP2 SWAP1 PUSH2 0xE67 JUMP JUMPDEST PUSH2 0xA2A JUMP JUMPDEST PUSH1 0x60 DUP3 ADD MSTORE PUSH1 0x40 DUP1 MLOAD PUSH4 0x612135D PUSH1 0xE2 SHL DUP2 MSTORE SWAP1 MLOAD ADDRESS SWAP2 PUSH4 0x18484D74 SWAP2 PUSH1 0x4 DUP1 DUP4 ADD SWAP3 PUSH1 0x0 SWAP3 SWAP2 SWAP1 DUP3 SWAP1 SUB ADD DUP2 DUP7 DUP1 EXTCODESIZE ISZERO DUP1 ISZERO PUSH2 0x705 JUMPI PUSH1 0x0 DUP1 REVERT JUMPDEST POP GAS STATICCALL ISZERO DUP1 ISZERO PUSH2 0x719 JUMPI RETURNDATASIZE PUSH1 0x0 DUP1 RETURNDATACOPY RETURNDATASIZE PUSH1 0x0 REVERT JUMPDEST POP POP POP POP PUSH1 0x40 MLOAD RETURNDATASIZE PUSH1 0x0 DUP3 RETURNDATACOPY PUSH1 0x1F RETURNDATASIZE SWAP1 DUP2 ADD PUSH1 0x1F NOT AND DUP3 ADD PUSH1 0x40 MSTORE PUSH2 0x741 SWAP2 SWAP1 DUP2 ADD SWAP1 PUSH2 0xCE3 JUMP JUMPDEST PUSH1 0x80 DUP3 ADD MSTORE PUSH1 0x40 DUP1 MLOAD PUSH4 0xA9F67CBF PUSH1 0xE0 SHL DUP2 MSTORE SWAP1 MLOAD ADDRESS SWAP2 PUSH4 0xA9F67CBF SWAP2 PUSH1 0x4 DUP3 DUP2 ADD SWAP3 PUSH1 0x0 SWAP3 SWAP2 SWAP1 DUP3 SWAP1 SUB ADD DUP2 DUP7 DUP1 EXTCODESIZE ISZERO DUP1 ISZERO PUSH2 0x77D JUMPI PUSH1 0x0 DUP1 REVERT JUMPDEST POP GAS STATICCALL ISZERO DUP1 ISZERO PUSH2 0x791 JUMPI RETURNDATASIZE PUSH1 0x0 DUP1 RETURNDATACOPY RETURNDATASIZE PUSH1 0x0 REVERT JUMPDEST POP POP POP POP PUSH1 0x40 MLOAD RETURNDATASIZE PUSH1 0x0 DUP3 RETURNDATACOPY PUSH1 0x1F RETURNDATASIZE SWAP1 DUP2 ADD PUSH1 0x1F NOT AND DUP3 ADD PUSH1 0x40 MSTORE PUSH2 0x7B9 SWAP2 SWAP1 DUP2 ADD SWAP1 PUSH2 0xCE3 JUMP JUMPDEST PUSH1 0xA0 DUP3 ADD MSTORE PUSH1 0x40 DUP1 MLOAD PUSH4 0x74ACBA05 PUSH1 0xE1 SHL DUP2 MSTORE SWAP1 MLOAD ADDRESS SWAP2 PUSH4 0xE959740A SWAP2 PUSH1 0x4 DUP1 DUP4 ADD SWAP3 PUSH1 0x0 SWAP3 SWAP2 SWAP1 DUP3 SWAP1 SUB ADD DUP2 DUP7 DUP1 EXTCODESIZE ISZERO DUP1 ISZERO PUSH2 0x7F5 JUMPI PUSH1 0x0 DUP1 REVERT JUMPDEST POP GAS STATICCALL ISZERO DUP1 ISZERO PUSH2 0x809 JUMPI RETURNDATASIZE PUSH1 0x0 DUP1 RETURNDATACOPY RETURNDATASIZE PUSH1 0x0 REVERT JUMPDEST POP POP POP POP PUSH1 0x40 MLOAD RETURNDATASIZE PUSH1 0x0 DUP3 RETURNDATACOPY PUSH1 0x1F RETURNDATASIZE SWAP1 DUP2 ADD PUSH1 0x1F NOT AND DUP3 ADD PUSH1 0x40 MSTORE PUSH2 0x831 SWAP2 SWAP1 DUP2 ADD SWAP1 PUSH2 0xCE3 JUMP JUMPDEST PUSH1 0xC0 DUP3 ADD MSTORE PUSH1 0x40 DUP1 MLOAD PUSH4 0xD4ABF017 PUSH1 0xE0 SHL DUP2 MSTORE SWAP1 MLOAD ADDRESS SWAP2 PUSH4 0xD4ABF017 SWAP2 PUSH1 0x4 DUP1 DUP4 ADD SWAP3 PUSH1 0x20 SWAP3 SWAP2 SWAP1 DUP3 SWAP1 SUB ADD DUP2 DUP7 DUP1 EXTCODESIZE ISZERO DUP1 ISZERO PUSH2 0x86D JUMPI PUSH1 0x0 DUP1 REVERT JUMPDEST POP GAS STATICCALL ISZERO DUP1 ISZERO PUSH2 0x881 JUMPI RETURNDATASIZE PUSH1 0x0 DUP1 RETURNDATACOPY RETURNDATASIZE PUSH1 0x0 REVERT JUMPDEST POP POP POP POP PUSH1 0x40 MLOAD RETURNDATASIZE PUSH1 0x1F NOT PUSH1 0x1F DUP3 ADD AND DUP3 ADD DUP1 PUSH1 0x40 MSTORE POP DUP2 ADD SWAP1 PUSH2 0x8A5 SWAP2 SWAP1 PUSH2 0xCC3 JUMP JUMPDEST ISZERO PUSH2 0x8D0 JUMPI PUSH1 0x40 DUP1 MLOAD DUP1 DUP3 ADD SWAP1 SWAP2 MSTORE PUSH1 0x5 DUP2 MSTORE PUSH5 0x76656E6475 PUSH1 0xD8 SHL PUSH1 0x20 DUP3 ADD MSTORE PUSH1 0xE0 DUP3 ADD MSTORE PUSH2 0x8F6 JUMP JUMPDEST PUSH1 0x40 DUP1 MLOAD DUP1 DUP3 ADD SWAP1 SWAP2 MSTORE PUSH1 0x9 DUP2 MSTORE PUSH9 0x7061732076656E6475 PUSH1 0xB8 SHL PUSH1 0x20 DUP3 ADD MSTORE PUSH1 0xE0 DUP3 ADD MSTORE JUMPDEST ADDRESS PUSH1 0x1 PUSH1 0x1 PUSH1 0xA0 SHL SUB AND PUSH4 0xEE0EBE7A PUSH1 0x40 MLOAD DUP2 PUSH4 0xFFFFFFFF AND PUSH1 0xE0 SHL DUP2 MSTORE PUSH1 0x4 ADD PUSH1 0x20 PUSH1 0x40 MLOAD DUP1 DUP4 SUB DUP2 DUP7 DUP1 EXTCODESIZE ISZERO DUP1 ISZERO PUSH2 0x92F JUMPI PUSH1 0x0 DUP1 REVERT JUMPDEST POP GAS STATICCALL ISZERO DUP1 ISZERO PUSH2 0x943 JUMPI RETURNDATASIZE PUSH1 0x0 DUP1 RETURNDATACOPY RETURNDATASIZE PUSH1 0x0 REVERT JUMPDEST POP POP POP POP PUSH1 0x40 MLOAD RETURNDATASIZE PUSH1 0x1F NOT PUSH1 0x1F DUP3 ADD AND DUP3 ADD DUP1 PUSH1 0x40 MSTORE POP DUP2 ADD SWAP1 PUSH2 0x967 SWAP2 SWAP1 PUSH2 0xCA7 JUMP JUMPDEST PUSH1 0x40 MLOAD PUSH1 0x20 ADD PUSH2 0x98F SWAP2 SWAP1 PUSH1 0x60 SWAP2 SWAP1 SWAP2 SHL PUSH12 0xFFFFFFFFFFFFFFFFFFFFFFFF NOT AND DUP2 MSTORE PUSH1 0x14 ADD SWAP1 JUMP JUMPDEST PUSH1 0x40 DUP1 MLOAD PUSH1 0x1F NOT DUP2 DUP5 SUB ADD DUP2 MSTORE SWAP2 SWAP1 MSTORE DUP2 PUSH1 0x8 PUSH1 0x20 MUL ADD DUP2 SWAP1 MSTORE POP ADDRESS PUSH1 0x1 PUSH1 0x1 PUSH1 0xA0 SHL SUB AND PUSH4 0xAA5761AC PUSH1 0x40 MLOAD DUP2 PUSH4 0xFFFFFFFF AND PUSH1 0xE0 SHL DUP2 MSTORE PUSH1 0x4 ADD PUSH1 0x0 PUSH1 0x40 MLOAD DUP1 DUP4 SUB DUP2 DUP7 DUP1 EXTCODESIZE ISZERO DUP1 ISZERO PUSH2 0x9E3 JUMPI PUSH1 0x0 DUP1 REVERT JUMPDEST POP GAS STATICCALL ISZERO DUP1 ISZERO PUSH2 0x9F7 JUMPI RETURNDATASIZE PUSH1 0x0 DUP1 RETURNDATACOPY RETURNDATASIZE PUSH1 0x0 REVERT JUMPDEST POP POP POP POP PUSH1 0x40 MLOAD RETURNDATASIZE PUSH1 0x0 DUP3 RETURNDATACOPY PUSH1 0x1F RETURNDATASIZE SWAP1 DUP2 ADD PUSH1 0x1F NOT AND DUP3 ADD PUSH1 0x40 MSTORE PUSH2 0xA1F SWAP2 SWAP1 DUP2 ADD SWAP1 PUSH2 0xCE3 JUMP JUMPDEST PUSH2 0x120 DUP3 ADD MSTORE SWAP2 SWAP1 POP JUMP JUMPDEST PUSH1 0x60 DUP2 PUSH2 0xA4F JUMPI POP PUSH1 0x40 DUP1 MLOAD DUP1 DUP3 ADD SWAP1 SWAP2 MSTORE PUSH1 0x1 DUP2 MSTORE PUSH1 0x3 PUSH1 0xFC SHL PUSH1 0x20 DUP3 ADD MSTORE PUSH2 0xB6D JUMP JUMPDEST DUP2 PUSH1 0x0 JUMPDEST DUP2 ISZERO PUSH2 0xA79 JUMPI DUP1 PUSH2 0xA63 DUP2 PUSH2 0x1102 JUMP JUMPDEST SWAP2 POP PUSH2 0xA72 SWAP1 POP PUSH1 0xA DUP4 PUSH2 0x1041 JUMP JUMPDEST SWAP2 POP PUSH2 0xA53 JUMP JUMPDEST PUSH1 0x0 DUP2 PUSH8 0xFFFFFFFFFFFFFFFF DUP2 GT ISZERO PUSH2 0xAA2 JUMPI PUSH4 0x4E487B71 PUSH1 0xE0 SHL PUSH1 0x0 MSTORE PUSH1 0x41 PUSH1 0x4 MSTORE PUSH1 0x24 PUSH1 0x0 REVERT JUMPDEST PUSH1 0x40 MLOAD SWAP1 DUP1 DUP3 MSTORE DUP1 PUSH1 0x1F ADD PUSH1 0x1F NOT AND PUSH1 0x20 ADD DUP3 ADD PUSH1 0x40 MSTORE DUP1 ISZERO PUSH2 0xACC JUMPI PUSH1 0x20 DUP3 ADD DUP2 DUP1 CALLDATASIZE DUP4 CALLDATACOPY ADD SWAP1 POP JUMPDEST POP SWAP1 POP DUP2 JUMPDEST DUP6 ISZERO PUSH2 0xB67 JUMPI PUSH2 0xAE2 PUSH1 0x1 DUP3 PUSH2 0x1080 JUMP JUMPDEST SWAP1 POP PUSH1 0x0 PUSH2 0xAF1 PUSH1 0xA DUP9 PUSH2 0x1041 JUMP JUMPDEST PUSH2 0xAFC SWAP1 PUSH1 0xA PUSH2 0x1061 JUMP JUMPDEST PUSH2 0xB06 SWAP1 DUP9 PUSH2 0x1080 JUMP JUMPDEST PUSH2 0xB11 SWAP1 PUSH1 0x30 PUSH2 0x101C JUMP JUMPDEST SWAP1 POP PUSH1 0x0 DUP2 PUSH1 0xF8 SHL SWAP1 POP DUP1 DUP5 DUP5 DUP2 MLOAD DUP2 LT PUSH2 0xB3C JUMPI PUSH4 0x4E487B71 PUSH1 0xE0 SHL PUSH1 0x0 MSTORE PUSH1 0x32 PUSH1 0x4 MSTORE PUSH1 0x24 PUSH1 0x0 REVERT JUMPDEST PUSH1 0x20 ADD ADD SWAP1 PUSH1 0x1 PUSH1 0x1 PUSH1 0xF8 SHL SUB NOT AND SWAP1 DUP2 PUSH1 0x0 BYTE SWAP1 MSTORE8 POP PUSH2 0xB5E PUSH1 0xA DUP10 PUSH2 0x1041 JUMP JUMPDEST SWAP8 POP POP POP PUSH2 0xAD1 JUMP JUMPDEST POP SWAP3 POP POP POP JUMPDEST SWAP2 SWAP1 POP JUMP JUMPDEST DUP3 DUP1 SLOAD PUSH2 0xB7E SWAP1 PUSH2 0x10C7 JUMP JUMPDEST SWAP1 PUSH1 0x0 MSTORE PUSH1 0x20 PUSH1 0x0 KECCAK256 SWAP1 PUSH1 0x1F ADD PUSH1 0x20 SWAP1 DIV DUP2 ADD SWAP3 DUP3 PUSH2 0xBA0 JUMPI PUSH1 0x0 DUP6 SSTORE PUSH2 0xBE6 JUMP JUMPDEST DUP3 PUSH1 0x1F LT PUSH2 0xBB9 JUMPI DUP1 MLOAD PUSH1 0xFF NOT AND DUP4 DUP1 ADD OR DUP6 SSTORE PUSH2 0xBE6 JUMP JUMPDEST DUP3 DUP1 ADD PUSH1 0x1 ADD DUP6 SSTORE DUP3 ISZERO PUSH2 0xBE6 JUMPI SWAP2 DUP3 ADD JUMPDEST DUP3 DUP2 GT ISZERO PUSH2 0xBE6 JUMPI DUP3 MLOAD DUP3 SSTORE SWAP2 PUSH1 0x20 ADD SWAP2 SWAP1 PUSH1 0x1 ADD SWAP1 PUSH2 0xBCB JUMP JUMPDEST POP PUSH2 0xBF2 SWAP3 SWAP2 POP PUSH2 0xC1E JUMP JUMPDEST POP SWAP1 JUMP JUMPDEST PUSH1 0x40 MLOAD DUP1 PUSH2 0x160 ADD PUSH1 0x40 MSTORE DUP1 PUSH1 0xB SWAP1 JUMPDEST PUSH1 0x60 DUP2 MSTORE PUSH1 0x20 ADD SWAP1 PUSH1 0x1 SWAP1 SUB SWAP1 DUP2 PUSH2 0xC06 JUMPI SWAP1 POP POP SWAP1 JUMP JUMPDEST JUMPDEST DUP1 DUP3 GT ISZERO PUSH2 0xBF2 JUMPI PUSH1 0x0 DUP2 SSTORE PUSH1 0x1 ADD PUSH2 0xC1F JUMP JUMPDEST PUSH1 0x0 DUP3 PUSH1 0x1F DUP4 ADD SLT PUSH2 0xC43 JUMPI DUP1 DUP2 REVERT JUMPDEST DUP2 CALLDATALOAD PUSH2 0xC56 PUSH2 0xC51 DUP3 PUSH2 0xFF4 JUMP JUMPDEST PUSH2 0xFC3 JUMP JUMPDEST DUP2 DUP2 MSTORE DUP5 PUSH1 0x20 DUP4 DUP7 ADD ADD GT ISZERO PUSH2 0xC6A JUMPI DUP3 DUP4 REVERT JUMPDEST DUP2 PUSH1 0x20 DUP6 ADD PUSH1 0x20 DUP4 ADD CALLDATACOPY SWAP1 DUP2 ADD PUSH1 0x20 ADD SWAP2 SWAP1 SWAP2 MSTORE SWAP3 SWAP2 POP POP JUMP JUMPDEST PUSH1 0x0 PUSH1 0x20 DUP3 DUP5 SUB SLT ISZERO PUSH2 0xC95 JUMPI DUP1 DUP2 REVERT JUMPDEST DUP2 CALLDATALOAD PUSH2 0xCA0 DUP2 PUSH2 0x1149 JUMP JUMPDEST SWAP4 SWAP3 POP POP POP JUMP JUMPDEST PUSH1 0x0 PUSH1 0x20 DUP3 DUP5 SUB SLT ISZERO PUSH2 0xCB8 JUMPI DUP1 DUP2 REVERT JUMPDEST DUP2 MLOAD PUSH2 0xCA0 DUP2 PUSH2 0x1149 JUMP JUMPDEST PUSH1 0x0 PUSH1 0x20 DUP3 DUP5 SUB SLT ISZERO PUSH2 0xCD4 JUMPI DUP1 DUP2 REVERT JUMPDEST DUP2 MLOAD DUP1 ISZERO ISZERO DUP2 EQ PUSH2 0xCA0 JUMPI DUP2 DUP3 REVERT JUMPDEST PUSH1 0x0 PUSH1 0x20 DUP3 DUP5 SUB SLT ISZERO PUSH2 0xCF4 JUMPI DUP1 DUP2 REVERT JUMPDEST DUP2 MLOAD PUSH8 0xFFFFFFFFFFFFFFFF DUP2 GT ISZERO PUSH2 0xD0A JUMPI DUP2 DUP3 REVERT JUMPDEST DUP3 ADD PUSH1 0x1F DUP2 ADD DUP5 SGT PUSH2 0xD1A JUMPI DUP2 DUP3 REVERT JUMPDEST DUP1 MLOAD PUSH2 0xD28 PUSH2 0xC51 DUP3 PUSH2 0xFF4 JUMP JUMPDEST DUP2 DUP2 MSTORE DUP6 PUSH1 0x20 DUP4 DUP6 ADD ADD GT ISZERO PUSH2 0xD3C JUMPI DUP4 DUP5 REVERT JUMPDEST PUSH2 0xD4D DUP3 PUSH1 0x20 DUP4 ADD PUSH1 0x20 DUP7 ADD PUSH2 0x1097 JUMP JUMPDEST SWAP6 SWAP5 POP POP POP POP POP JUMP JUMPDEST PUSH1 0x0 DUP1 PUSH1 0x0 DUP1 PUSH1 0x0 DUP1 PUSH1 0x0 PUSH1 0xE0 DUP9 DUP11 SUB SLT ISZERO PUSH2 0xD70 JUMPI DUP3 DUP4 REVERT JUMPDEST DUP8 CALLDATALOAD PUSH8 0xFFFFFFFFFFFFFFFF DUP1 DUP3 GT ISZERO PUSH2 0xD87 JUMPI DUP5 DUP6 REVERT JUMPDEST PUSH2 0xD93 DUP12 DUP4 DUP13 ADD PUSH2 0xC33 JUMP JUMPDEST SWAP9 POP PUSH1 0x20 DUP11 ADD CALLDATALOAD SWAP2 POP DUP1 DUP3 GT ISZERO PUSH2 0xDA8 JUMPI DUP5 DUP6 REVERT JUMPDEST PUSH2 0xDB4 DUP12 DUP4 DUP13 ADD PUSH2 0xC33 JUMP JUMPDEST SWAP8 POP PUSH1 0x40 DUP11 ADD CALLDATALOAD SWAP2 POP DUP1 DUP3 GT ISZERO PUSH2 0xDC9 JUMPI DUP5 DUP6 REVERT JUMPDEST PUSH2 0xDD5 DUP12 DUP4 DUP13 ADD PUSH2 0xC33 JUMP JUMPDEST SWAP7 POP PUSH1 0x60 DUP11 ADD CALLDATALOAD SWAP6 POP PUSH1 0x80 DUP11 ADD CALLDATALOAD SWAP2 POP DUP1 DUP3 GT ISZERO PUSH2 0xDF1 JUMPI DUP5 DUP6 REVERT JUMPDEST PUSH2 0xDFD DUP12 DUP4 DUP13 ADD PUSH2 0xC33 JUMP JUMPDEST SWAP5 POP PUSH1 0xA0 DUP11 ADD CALLDATALOAD SWAP2 POP DUP1 DUP3 GT ISZERO PUSH2 0xE12 JUMPI DUP4 DUP5 REVERT JUMPDEST PUSH2 0xE1E DUP12 DUP4 DUP13 ADD PUSH2 0xC33 JUMP JUMPDEST SWAP4 POP PUSH1 0xC0 DUP11 ADD CALLDATALOAD SWAP2 POP DUP1 DUP3 GT ISZERO PUSH2 0xE33 JUMPI DUP3 DUP4 REVERT JUMPDEST POP PUSH2 0xE40 DUP11 DUP3 DUP12 ADD PUSH2 0xC33 JUMP JUMPDEST SWAP2 POP POP SWAP3 SWAP6 SWAP9 SWAP2 SWAP5 SWAP8 POP SWAP3 SWAP6 POP JUMP JUMPDEST PUSH1 0x0 PUSH1 0x20 DUP3 DUP5 SUB SLT ISZERO PUSH2 0xE60 JUMPI DUP1 DUP2 REVERT JUMPDEST POP CALLDATALOAD SWAP2 SWAP1 POP JUMP JUMPDEST PUSH1 0x0 PUSH1 0x20 DUP3 DUP5 SUB SLT ISZERO PUSH2 0xE78 JUMPI DUP1 DUP2 REVERT JUMPDEST POP MLOAD SWAP2 SWAP1 POP JUMP JUMPDEST PUSH1 0x0 DUP2 MLOAD DUP1 DUP5 MSTORE PUSH2 0xE97 DUP2 PUSH1 0x20 DUP7 ADD PUSH1 0x20 DUP7 ADD PUSH2 0x1097 JUMP JUMPDEST PUSH1 0x1F ADD PUSH1 0x1F NOT AND SWAP3 SWAP1 SWAP3 ADD PUSH1 0x20 ADD SWAP3 SWAP2 POP POP JUMP JUMPDEST PUSH1 0x0 DUP3 MLOAD PUSH2 0xEBD DUP2 DUP5 PUSH1 0x20 DUP8 ADD PUSH2 0x1097 JUMP JUMPDEST SWAP2 SWAP1 SWAP2 ADD SWAP3 SWAP2 POP POP JUMP JUMPDEST DUP2 SLOAD PUSH1 0x0 SWAP1 DUP2 SWAP1 PUSH1 0x2 DUP2 DIV PUSH1 0x1 DUP1 DUP4 AND DUP1 PUSH2 0xEE3 JUMPI PUSH1 0x7F DUP4 AND SWAP3 POP JUMPDEST PUSH1 0x20 DUP1 DUP5 LT DUP3 EQ ISZERO PUSH2 0xF03 JUMPI PUSH4 0x4E487B71 PUSH1 0xE0 SHL DUP8 MSTORE PUSH1 0x22 PUSH1 0x4 MSTORE PUSH1 0x24 DUP8 REVERT JUMPDEST DUP2 DUP1 ISZERO PUSH2 0xF17 JUMPI PUSH1 0x1 DUP2 EQ PUSH2 0xF28 JUMPI PUSH2 0xF54 JUMP JUMPDEST PUSH1 0xFF NOT DUP7 AND DUP10 MSTORE DUP5 DUP10 ADD SWAP7 POP PUSH2 0xF54 JUMP JUMPDEST PUSH1 0x0 DUP11 DUP2 MSTORE PUSH1 0x20 SWAP1 KECCAK256 DUP9 JUMPDEST DUP7 DUP2 LT ISZERO PUSH2 0xF4C JUMPI DUP2 SLOAD DUP12 DUP3 ADD MSTORE SWAP1 DUP6 ADD SWAP1 DUP4 ADD PUSH2 0xF33 JUMP JUMPDEST POP POP DUP5 DUP10 ADD SWAP7 POP JUMPDEST POP SWAP5 SWAP9 SWAP8 POP POP POP POP POP POP POP POP JUMP JUMPDEST PUSH1 0x20 DUP1 DUP3 MSTORE PUSH1 0x0 SWAP1 PUSH2 0x180 DUP4 ADD DUP4 DUP3 ADD DUP6 DUP5 JUMPDEST PUSH1 0xB DUP2 LT ISZERO PUSH2 0xFA4 JUMPI PUSH1 0x1F NOT DUP8 DUP6 SUB ADD DUP4 MSTORE PUSH2 0xF92 DUP5 DUP4 MLOAD PUSH2 0xE7F JUMP JUMPDEST SWAP4 POP SWAP2 DUP5 ADD SWAP2 SWAP1 DUP5 ADD SWAP1 PUSH1 0x1 ADD PUSH2 0xF75 JUMP JUMPDEST POP SWAP2 SWAP7 SWAP6 POP POP POP POP POP POP JUMP JUMPDEST PUSH1 0x0 PUSH1 0x20 DUP3 MSTORE PUSH2 0xCA0 PUSH1 0x20 DUP4 ADD DUP5 PUSH2 0xE7F JUMP JUMPDEST PUSH1 0x40 MLOAD PUSH1 0x1F DUP3 ADD PUSH1 0x1F NOT AND DUP2 ADD PUSH8 0xFFFFFFFFFFFFFFFF DUP2 GT DUP3 DUP3 LT OR ISZERO PUSH2 0xFEC JUMPI PUSH2 0xFEC PUSH2 0x1133 JUMP JUMPDEST PUSH1 0x40 MSTORE SWAP2 SWAP1 POP JUMP JUMPDEST PUSH1 0x0 PUSH8 0xFFFFFFFFFFFFFFFF DUP3 GT ISZERO PUSH2 0x100E JUMPI PUSH2 0x100E PUSH2 0x1133 JUMP JUMPDEST POP PUSH1 0x1F ADD PUSH1 0x1F NOT AND PUSH1 0x20 ADD SWAP1 JUMP JUMPDEST PUSH1 0x0 PUSH1 0xFF DUP3 AND PUSH1 0xFF DUP5 AND DUP1 PUSH1 0xFF SUB DUP3 GT ISZERO PUSH2 0x1039 JUMPI PUSH2 0x1039 PUSH2 0x111D JUMP JUMPDEST ADD SWAP4 SWAP3 POP POP POP JUMP JUMPDEST PUSH1 0x0 DUP3 PUSH2 0x105C JUMPI PUSH4 0x4E487B71 PUSH1 0xE0 SHL DUP2 MSTORE PUSH1 0x12 PUSH1 0x4 MSTORE PUSH1 0x24 DUP2 REVERT JUMPDEST POP DIV SWAP1 JUMP JUMPDEST PUSH1 0x0 DUP2 PUSH1 0x0 NOT DIV DUP4 GT DUP3 ISZERO ISZERO AND ISZERO PUSH2 0x107B JUMPI PUSH2 0x107B PUSH2 0x111D JUMP JUMPDEST POP MUL SWAP1 JUMP JUMPDEST PUSH1 0x0 DUP3 DUP3 LT ISZERO PUSH2 0x1092 JUMPI PUSH2 0x1092 PUSH2 0x111D JUMP JUMPDEST POP SUB SWAP1 JUMP JUMPDEST PUSH1 0x0 JUMPDEST DUP4 DUP2 LT ISZERO PUSH2 0x10B2 JUMPI DUP2 DUP2 ADD MLOAD DUP4 DUP3 ADD MSTORE PUSH1 0x20 ADD PUSH2 0x109A JUMP JUMPDEST DUP4 DUP2 GT ISZERO PUSH2 0x10C1 JUMPI PUSH1 0x0 DUP5 DUP5 ADD MSTORE JUMPDEST POP POP POP POP JUMP JUMPDEST PUSH1 0x2 DUP2 DIV PUSH1 0x1 DUP3 AND DUP1 PUSH2 0x10DB JUMPI PUSH1 0x7F DUP3 AND SWAP2 POP JUMPDEST PUSH1 0x20 DUP3 LT DUP2 EQ ISZERO PUSH2 0x10FC JUMPI PUSH4 0x4E487B71 PUSH1 0xE0 SHL PUSH1 0x0 MSTORE PUSH1 0x22 PUSH1 0x4 MSTORE PUSH1 0x24 PUSH1 0x0 REVERT JUMPDEST POP SWAP2 SWAP1 POP JUMP JUMPDEST PUSH1 0x0 PUSH1 0x0 NOT DUP3 EQ ISZERO PUSH2 0x1116 JUMPI PUSH2 0x1116 PUSH2 0x111D JUMP JUMPDEST POP PUSH1 0x1 ADD SWAP1 JUMP JUMPDEST PUSH4 0x4E487B71 PUSH1 0xE0 SHL PUSH1 0x0 MSTORE PUSH1 0x11 PUSH1 0x4 MSTORE PUSH1 0x24 PUSH1 0x0 REVERT JUMPDEST PUSH4 0x4E487B71 PUSH1 0xE0 SHL PUSH1 0x0 MSTORE PUSH1 0x41 PUSH1 0x4 MSTORE PUSH1 0x24 PUSH1 0x0 REVERT JUMPDEST PUSH1 0x1 PUSH1 0x1 PUSH1 0xA0 SHL SUB DUP2 AND DUP2 EQ PUSH2 0x115E JUMPI PUSH1 0x0 DUP1 REVERT JUMPDEST POP JUMP INVALID LOG2 PUSH5 0x6970667358 0x22 SLT KECCAK256 0x25 ORIGIN MSTORE8 PUSH5 0x114EE8BEC1 0xD7 0x24 0xB0 EXTCODECOPY SAR DUP2 0xDF 0x28 ADDMOD CODESIZE MOD 0xD5 SLOAD PUSH7 0x8443BF4E0225E9 0x26 EXTCODECOPY PUSH5 0x736F6C6343 STOP ADDMOD MUL STOP CALLER LOG2 PUSH5 0x6970667358 0x22 SLT KECCAK256 0x29 DUP8 0xB9 SSTORE 0x48 STOP 0xAA 0xBC DIV PUSH31 0xFF6ED32CB8942B2E67A3C4C79A26A48703C72D48B60464736F6C6343000802 STOP CALLER "
		},
		"gasEstimates": {
			"creation": {
				"codeDepositCost": "3650800",
				"executionCost": "4113",
				"totalCost": "3654913"
			},
			"external": {
				"acheterAnnonce(address,uint256)": "infinite",
				"creerAnnonce(string,string,string,uint256,string,string,string,string)": "infinite",
				"envoyerMessage(address,string)": "infinite",
				"listeAnnonces(address,uint256)": "1401",
				"listeHistoriqueAchat(address,uint256)": "1335",
				"listeMessagesEnvoyes(address,address,uint256)": "infinite",
				"listeMessagesRecus(address,address,uint256)": "infinite",
				"listeUtilisateurs(address)": "1289",
				"modifierAnnonce(uint256,string,string,string,uint256,string,string,string)": "infinite",
				"modifierUtilisateur(string,string,string,string)": "infinite",
				"nbMessagesEnvoyes(address,address)": "infinite",
				"nbMessagesRecus(address,address)": "infinite",
				"nouvelUtilisateur(string,string,string,string)": "infinite"
			}
		},
		"methodIdentifiers": {
			"acheterAnnonce(address,uint256)": "c38da4a5",
			"creerAnnonce(string,string,string,uint256,string,string,string,string)": "fffad820",
			"envoyerMessage(address,string)": "e09317c9",
			"listeAnnonces(address,uint256)": "73f594d1",
			"listeHistoriqueAchat(address,uint256)": "06b4a2e9",
			"listeMessagesEnvoyes(address,address,uint256)": "e080713b",
			"listeMessagesRecus(address,address,uint256)": "e1add52b",
			"listeUtilisateurs(address)": "3084574a",
			"modifierAnnonce(uint256,string,string,string,uint256,string,string,string)": "1673f4d4",
			"modifierUtilisateur(string,string,string,string)": "7ba70598",
			"nbMessagesEnvoyes(address,address)": "cdb29b6a",
			"nbMessagesRecus(address,address)": "77967216",
			"nouvelUtilisateur(string,string,string,string)": "c04d5eef"
		}
	},
	"abi": [
		{
			"anonymous": false,
			"inputs": [
				{
					"indexed": false,
					"internalType": "address",
					"name": "acheteur",
					"type": "address"
				},
				{
					"indexed": false,
					"internalType": "uint256",
					"name": "idAnnonce",
					"type": "uint256"
				}
			],
			"name": "AnnonceAchetee",
			"type": "event"
		},
		{
			"anonymous": false,
			"inputs": [
				{
					"indexed": false,
					"internalType": "address",
					"name": "createur",
					"type": "address"
				},
				{
					"indexed": false,
					"internalType": "uint256",
					"name": "idAnnonce",
					"type": "uint256"
				}
			],
			"name": "AnnonceCree",
			"type": "event"
		},
		{
			"inputs": [
				{
					"internalType": "address",
					"name": "userAnnonce",
					"type": "address"
				},
				{
					"internalType": "uint256",
					"name": "indexAnnonce",
					"type": "uint256"
				}
			],
			"name": "acheterAnnonce",
			"outputs": [],
			"stateMutability": "payable",
			"type": "function"
		},
		{
			"inputs": [
				{
					"internalType": "string",
					"name": "_titre",
					"type": "string"
				},
				{
					"internalType": "string",
					"name": "_description",
					"type": "string"
				},
				{
					"internalType": "string",
					"name": "_etat",
					"type": "string"
				},
				{
					"internalType": "uint256",
					"name": "_prix",
					"type": "uint256"
				},
				{
					"internalType": "string",
					"name": "_modeAcheminement",
					"type": "string"
				},
				{
					"internalType": "string",
					"name": "_localisation",
					"type": "string"
				},
				{
					"internalType": "string",
					"name": "_categorie",
					"type": "string"
				},
				{
					"internalType": "string",
					"name": "_urlImage",
					"type": "string"
				}
			],
			"name": "creerAnnonce",
			"outputs": [],
			"stateMutability": "nonpayable",
			"type": "function"
		},
		{
			"inputs": [
				{
					"internalType": "address",
					"name": "_to",
					"type": "address"
				},
				{
					"internalType": "string",
					"name": "_message",
					"type": "string"
				}
			],
			"name": "envoyerMessage",
			"outputs": [],
			"stateMutability": "nonpayable",
			"type": "function"
		},
		{
			"inputs": [
				{
					"internalType": "address",
					"name": "",
					"type": "address"
				},
				{
					"internalType": "uint256",
					"name": "",
					"type": "uint256"
				}
			],
			"name": "listeAnnonces",
			"outputs": [
				{
					"internalType": "contract Annonce",
					"name": "",
					"type": "address"
				}
			],
			"stateMutability": "view",
			"type": "function"
		},
		{
			"inputs": [
				{
					"internalType": "address",
					"name": "",
					"type": "address"
				},
				{
					"internalType": "uint256",
					"name": "",
					"type": "uint256"
				}
			],
			"name": "listeHistoriqueAchat",
			"outputs": [
				{
					"internalType": "contract Annonce",
					"name": "",
					"type": "address"
				}
			],
			"stateMutability": "view",
			"type": "function"
		},
		{
			"inputs": [
				{
					"internalType": "address",
					"name": "",
					"type": "address"
				},
				{
					"internalType": "address",
					"name": "",
					"type": "address"
				},
				{
					"internalType": "uint256",
					"name": "",
					"type": "uint256"
				}
			],
			"name": "listeMessagesEnvoyes",
			"outputs": [
				{
					"internalType": "string",
					"name": "",
					"type": "string"
				}
			],
			"stateMutability": "view",
			"type": "function"
		},
		{
			"inputs": [
				{
					"internalType": "address",
					"name": "",
					"type": "address"
				},
				{
					"internalType": "address",
					"name": "",
					"type": "address"
				},
				{
					"internalType": "uint256",
					"name": "",
					"type": "uint256"
				}
			],
			"name": "listeMessagesRecus",
			"outputs": [
				{
					"internalType": "string",
					"name": "",
					"type": "string"
				}
			],
			"stateMutability": "view",
			"type": "function"
		},
		{
			"inputs": [
				{
					"internalType": "address",
					"name": "",
					"type": "address"
				}
			],
			"name": "listeUtilisateurs",
			"outputs": [
				{
					"internalType": "contract Utilisateur",
					"name": "",
					"type": "address"
				}
			],
			"stateMutability": "view",
			"type": "function"
		},
		{
			"inputs": [
				{
					"internalType": "uint256",
					"name": "indexAnnonce",
					"type": "uint256"
				},
				{
					"internalType": "string",
					"name": "_titre",
					"type": "string"
				},
				{
					"internalType": "string",
					"name": "_description",
					"type": "string"
				},
				{
					"internalType": "string",
					"name": "_etat",
					"type": "string"
				},
				{
					"internalType": "uint256",
					"name": "_prix",
					"type": "uint256"
				},
				{
					"internalType": "string",
					"name": "_modeAcheminement",
					"type": "string"
				},
				{
					"internalType": "string",
					"name": "_categorie",
					"type": "string"
				},
				{
					"internalType": "string",
					"name": "_localisation",
					"type": "string"
				}
			],
			"name": "modifierAnnonce",
			"outputs": [],
			"stateMutability": "nonpayable",
			"type": "function"
		},
		{
			"inputs": [
				{
					"internalType": "string",
					"name": "_localisation",
					"type": "string"
				},
				{
					"internalType": "string",
					"name": "_mail",
					"type": "string"
				},
				{
					"internalType": "string",
					"name": "_tel",
					"type": "string"
				},
				{
					"internalType": "string",
					"name": "_username",
					"type": "string"
				}
			],
			"name": "modifierUtilisateur",
			"outputs": [],
			"stateMutability": "nonpayable",
			"type": "function"
		},
		{
			"inputs": [
				{
					"internalType": "address",
					"name": "",
					"type": "address"
				},
				{
					"internalType": "address",
					"name": "",
					"type": "address"
				}
			],
			"name": "nbMessagesEnvoyes",
			"outputs": [
				{
					"internalType": "uint256",
					"name": "",
					"type": "uint256"
				}
			],
			"stateMutability": "view",
			"type": "function"
		},
		{
			"inputs": [
				{
					"internalType": "address",
					"name": "",
					"type": "address"
				},
				{
					"internalType": "address",
					"name": "",
					"type": "address"
				}
			],
			"name": "nbMessagesRecus",
			"outputs": [
				{
					"internalType": "uint256",
					"name": "",
					"type": "uint256"
				}
			],
			"stateMutability": "view",
			"type": "function"
		},
		{
			"inputs": [
				{
					"internalType": "string",
					"name": "_localisation",
					"type": "string"
				},
				{
					"internalType": "string",
					"name": "_mail",
					"type": "string"
				},
				{
					"internalType": "string",
					"name": "_tel",
					"type": "string"
				},
				{
					"internalType": "string",
					"name": "_username",
					"type": "string"
				}
			],
			"name": "nouvelUtilisateur",
			"outputs": [],
			"stateMutability": "nonpayable",
			"type": "function"
		}
	]
}